:1000000080200020513A00009D340000A7340000F9
:1000100000000000000000000000000000000000E0
:10002000000000000000000000000000B1340000EB
:100030000000000000000000B3340000B5340000F0
:10004000B7340000B9340000D5340000D7340000C4
:10005000D934000000000000DB3400000935000046
:100060001535000000000000433500007135000028
:1000700097350000000000009F350000B3350000F8
:10008000C7350000FD350000413600004336000052
:100090004536000047360000493600004B36000068
:1000A0004D3600000000000000000000AB1700000B
:1000B0000000000000000000000000000000000040
:1000C00081B0E022520080180268914203D3436855
:1000D000D218914202D380680028F5D101B0704750
:1000E0001848016800290ED1802149028160090960
:1000F00041600021C943C160016104214161124A8C
:100100001160124901600120704730B407230C00D0
:1001100008341C4201D1002304E008240D000835F6
:10012000641B2340C918D21A8161C26001231343A2
:100130004B602823091D8B5002490969C16130BCFD
:100140007047000028100020EC0E00206859883C01
:10015000F0B587B0060007200C000834044205D033
:1001600008240D000835641B04400919039111008F
:100170000831014205D0082114000834091B084049
:10018000121817000398C018049004460398381AF0
:10019000C01A01900320184303994860BC4201D360
:1001A00001F0FEFA01257868284001D101F0F8FA43
:1001B0000198102801D201F0F3FAB069874207D103
:1001C000F06801994018F060B4610543656077E11B
:1001D0007069874208D1B06801994018B0607461B5
:1001E0000543656020506BE178688107890F01291C
:1001F00000D0D1E0072188430690C0081F2843D8CB
:10020000B9680291F968009105900098874201D180
:1002100001F0C6FA0298874201D101F0C1FA78686C
:10022000072188430599C900884201D001F0B8FA36
:10023000300028300599C90040180299814207D042
:100240003269914200D29FE0C968B94200D09BE078
:100250000099029A914206D13168059A0120904096
:100260008143316092E0814208D00846316988427A
:1002700000D289E08068B84200D085E00098D06064
:1002800002980099886081E0B8690290F968B942E3
:1002900010D0B8680091316988422CD3C168B94246
:1002A00029D100998968B94225D10099C160009986
:1002B000886022E03A00143210680090002805D1CE
:1002C0003A00103210680090002816D0009801E023
:1002D0000A001068010014310B68002BF8D10100EE
:1002E00010310B68002BF3D100903069824202D3A9
:1002F0000020106001E001F053FA0298002845D078
:10030000982040003018F9698900401801688F4230
:100310000AD100990160002915D17168FA6901209C
:1003200090408143716031E002983169884208D37E
:100330000069B8420098029901D1086103E0486160
:1003400001E001F02DFA009800281FD030690099D3
:10035000814219D30299009A91613969002908D024
:10036000814204D3009801610098886101E001F0A6
:1003700017FA7869002809D03169884204D30099B6
:1003800048610099816101E001F00AFA06983F187E
:1003900001980699401801907868A8437860019800
:1003A00028436060019820500198C0081F2826D873
:1003B0000290300028300299C9004018009007468A
:1003C0000198102801D201F0EBF93068029902007F
:1003D000CA402A4003D18D400543356008E00098AB
:1003E00080683169884201D3070001E001F0D8F943
:1003F00000988460FC60A7600098E06060E001986D
:10040000000A25D02904884201D31F2020E0FF21C3
:10041000C9434118090C082211408840AE4A82188D
:10042000120C04231A4000929040AC4A8218120C1D
:1004300002231A400E23591A009BC91A891A9040A8
:10044000C00B08184100019AC01DC2402A408818FC
:1004500098214900711882008918E06100236361C6
:10046000236172681700C7402F4004D185401543AF
:1004700075600C601DE009681F28019D01D101987D
:1004800005E019224008101A8540F8E739004A684B
:100490000727BA43824217D00A001032EF0FBF007D
:1004A000D2196D001768002FF0D13069824205D350
:1004B0001460A161E4600498A06001E001F070F9AB
:1004C0000398083007B0F0BD886832699142F5D3CF
:1004D0009042F3D3C460049A8A60A060E160A36193
:1004E000EEE7FEB584B005000E00AC692100FFF711
:1004F000E7FD01684068081800902738410701D1DE
:10050000002003E00821081A4007400F00990F1847
:100510002F3F20001030874200D22700019638007C
:100520001830039000200290059A283A019928007B
:10053000FFF7EBFD38000830400701D001F030F93B
:100540001B207860E02040002E1838000830310071
:10055000102201F03FF9019830600598706006980C
:10056000F06038000830B06007230399029A0098C1
:1005700000E0091D4B60521C0E0008368642F8D37D
:10058000012A01DC01F00CF9A74200D196E0391BE9
:10059000201D4018026801239A43026001260120B1
:1005A000084360606150C8081F2823D80190C0002C
:1005B0002818283000900746102901D201F0F0F8E1
:1005C000286801990200CA40324003D18E40064398
:1005D0002E6008E0009880682969884201D30700EE
:1005E00001E001F0DDF800988460FC60A7600098ED
:1005F000E06063E0080A25D01A04904201D31F206E
:1006000020E0FF22D2438218120C08231A409040A7
:10061000314BC3181B0C04273B40009398402F4BD1
:10062000C3181B0C02273B400E27BA1A009FD21B8F
:10063000D21A9840C00B10184200C01D0B00C340D6
:100640003340D0188200AA1898235B00D218009279
:10065000E0610022626122616B681F00C740374081
:1006600007D186401E436E60009804600098A06128
:100670001FE0009B1B681F2801D1080006E0192617
:100680004008361A0800B04000E03B005E680727CB
:10069000BE438E4214D01E001036C70FBF00F6199D
:1006A00040003768002FF0D12869864204D33460B7
:1006B000A361E460A46001E001F072F807B0F0BD4E
:1006C000986829698B42F7D38842F5D3C4609C604F
:1006D000A060E360A261F1E700F0FFFF00C0FFFF50
:1006E000F8B504000E00764D2868002801D1FFF708
:1006F000F7FC0096A96870182F30491E884386427F
:1007000000D386E0D82149006618B168002905D0D9
:100710003268101882427CD281427AD301F074F898
:10072000002876D0010002680020C043814270D0CA
:10073000306880183060D82040002058D8235B00F3
:10074000E3185B68984200D218007060A069002826
:100750002AD12069002801D0814200D22161316173
:1007600072610020F0612B6863620023DB43236227
:1007700023002833DB601D469D6008355D611D61E7
:10078000801C10332028F5D34E48844201D1283AEA
:1007900027E0201F0068072398432018083889188D
:1007A0000A1A283A01001CE0E0204000201803004B
:1007B00000E09B68002B2ED01D685E68AD19A94231
:1007C000F7D11D7B2D0726D4A7691E68B74222D317
:1007D0005D687619B7421ED2A8185860E068821882
:1007E000A1692000FFF791FC20E09B68002B19D045
:1007F0001D688542F9D1187B000713D4284619607B
:100800005D68AA185A60009B02002000FFF7A0FC58
:10081000F2BD0020F2BD2369994200D2216103009C
:100820008818E3E700232000FFF75BFEE0680099EB
:100830008142EED2401AE060A169009A8A18A26152
:100840000123034353600098032202434A600800D7
:100850000830F2BD38B41A4A1368002B0ED1802339
:100860005B0293601B0953600023DB43D360136179
:1008700004235361144C2360144B13603F22D24372
:10088000914219D28369002B16D0C2682831914257
:100890000CD2E021490041180C68A34203D34D68F3
:1008A0006419A34202D389680029F5D1C169914234
:1008B00002D20021C943C161002032BC7047000050
:1008C00028100020300D0020EC0E00206859883CD4
:1008D000F2B584B000244F42090A25D0802252028A
:1008E000914201D31F211FE0FF22D2438A18120C2C
:1008F00008231A409140B84BCB181B0C04252B4001
:100900009940154D4D192D0C022635400E26B21A70
:10091000D21A521BA940C90B51184A00049BC91D89
:10092000CB40D907C90F5118019100909821490077
:100930004018029001998900405800282BD0019955
:100940001F29049B04D01921019A5208891A8B404F
:100950000021049A03E000BF00C0FFFF5B00456870
:100960000726B543AD1ABD4203D204002F0000D1C3
:100970008EE145691030DE0FB6008059002D02D09F
:10098000854200D029000028E8D104920800002800
:100990003DD1002C40D10123019801218140480024
:1009A0004142014300984068084000D16DE1424255
:1009B0000240521E100B10210840C2405109082568
:1009C00029400391CA409108042529400191CA4059
:1009D000510802252940CA4055082B40029D039E1C
:1009E0008019019E80194018C018DA4080188000D4
:1009F00028580CE0100042689A43521ABA4201D2B9
:100A0000170004000269002AF4D10491406900280B
:100A100002D004990723EEE7002C00D135E10098BD
:100A200080680499401A874200D32EE1009800693B
:100A3000844200D227E17818039060680721884338
:100A40000399884201D000F0ABFE04982518AC420F
:100A500000D318E1A0690190E668A6420DD0A06815
:100A600000990969884226D3C168A14223D1B1689F
:100A7000A14220D1C660B0601FE02000143006689B
:100A8000002E07D1200010300668002E15D001E09E
:100A900008000668310014310A68002AF8D13100D4
:100AA00010310A68002AF3D100990969884202D3FB
:100AB0000021016001E000F073FE0198002841D0A0
:100AC0000298E1698900401801688C420BD10660E8
:100AD000002E17D1009840680121E26991408843B7
:100AE000009948602EE0019800990969884207D36F
:100AF0000069A042019801D1066103E0466101E06E
:100B000000F04EFE002E1DD000980069864217D3DB
:100B10000198B0612069002808D0009909698842CD
:100B200002D33061866101E000F03AFE606900287E
:100B300008D000990969884202D37061866101E09A
:100B400000F02EFE03210120102F09D2039A114339
:100B50006160211D039A89180A68104308608FE0BC
:100B6000049A11436160012139436960EF51F9082A
:100B70001F2920D8009ACB00D2182832019216469D
:100B8000009A12681300CB40034004D18840104300
:100B90000099086008E0B06800990969884201D3AB
:100BA000060001E000F0FCFD01988560F560AE6094
:100BB0000198E86064E0390A2AD00204914201D326
:100BC0001F2125E0FF22D2438A18120C08231A4065
:100BD00003929140004A01E000F0FFFF8A18120CD6
:100BE00004231A4001929140314A8A18120C0223C0
:100BF0001A400E23039E9B1B019E9B1B9B1A914038
:100C0000C90B59184A00C91D3B00CB400340D118FD
:100C1000029A8B00D218E96100236B612B61009B63
:100C20005B681E00CE40064005D1884018430099FD
:100C3000486015601EE012681F2901D1380006E0E7
:100C400019204908411A3800884000E01A0051680C
:100C500007239943B9421DD011001031C30F9B00E7
:100C6000C91840000B68002BF0D100980069814240
:100C700004D30D60AA61ED60AD6001E000F090FD6D
:100C80002000083002E000F08BFD002005B0F0BD30
:100C900004927CE69068009909698A42EED3884202
:100CA000ECD3C5609560A860EA600020A861E7E722
:100CB00000C0FFFFF3B585B0416848420840401EC0
:100CC000010B10221140C840420908231A40D040AD
:100CD000830804242340D840440802252C40E040E7
:100CE0008507ED0F059E98277F00F6190196891854
:100CF000C91809194919E84008188000305804003B
:100D0000416807229143069A8D1A1746072207E089
:100D1000080041689143C91BA94201D20D0004009B
:100D200001690029F4D140690028F2D105980069D1
:100D3000844200D2D7E060689043E919884201D02C
:100D400000F02EFDE0190390844200D3CBE0A069AF
:100D50000090E668A6420DD0A0680599096988420E
:100D600026D3C168A14223D1B168A14220D1C66077
:100D7000B0601FE0200014300668002E07D120006C
:100D800010300668002E15D001E00800066831001A
:100D900014310A68002AF8D1310010310A68002A9B
:100DA000F3D105990969884202D30021016001E06D
:100DB00000F0F6FC0098002841D00198E169890014
:100DC000401801688C420BD10660002E17D105989F
:100DD00040680121E26991408843059948602EE00E
:100DE000009805990969884207D30069A0420098D4
:100DF00001D1066103E0466101E000F0D1FC002E64
:100E00001DD005980069864217D30098B06120690B
:100E1000002808D005990969884202D330618661AB
:100E200001E000F0BDFC6069002808D0059909695F
:100E3000884202D37061866101E000F0B1FC0320BA
:100E4000102D09D2E91908436060201D401801687F
:100E500001220A43026043E03843606001202843D6
:100E6000211DC85103984551059880680290C60815
:100E7000202E01D300F094FC029800282BD0059876
:100E80004069009001960598F100471828373E0008
:100E90000298102801D200F083FC05980168012017
:100EA000019A0B00D340034004D1904008430599B8
:100EB000086008E0B86805990969884201D306000E
:100EC00001E000F06DFC0098B8600098F0600098B8
:100ED00086600098C7600598856003980599486109
:100EE0002000083002E000F05BFC002007B0F0BDFD
:100EF000F8B586B0060000BF00BF0124BA4DF52E3C
:100F000000D326E10B2E01D2102602E00B3607207B
:100F10008643F1082868C840032738424FD0012291
:100F2000824388180390280028300399C90040188C
:100F3000019086680398C00002907068072188437A
:100F40000299884201D000F02BFCB0680090019813
:100F5000864201D100F024FC0098864201D100F0C5
:100F60001FFC7068072188430299884201D000F075
:100F700017FC01980099884206D12968039A01203C
:100F80009040814329600FE008462969884209D3CF
:100F9000C068B04206D10098019988600198009914
:100FA000C86001E000F0FCFB029807437760301D49
:100FB0000299401801680C430460370007E1AA68F1
:100FC000B24200D3D8E0002800D1B8E001228A4024
:100FD0005200884053421343034059421940491E6E
:100FE000080B10221040C1404A0908231A400292FF
:100FF000D1408A0804231A400192D1404A080223B2
:101000001A400092D1404A082240029BC018019B1E
:10101000C018009BC0188018D140401803902800C9
:1010200028300399C9004018029080680090039806
:10103000C0000490009840680721884304998842C2
:1010400001D000F0ADFB00988068019000980299F3
:10105000884201D100F0A4FB00980199884201D197
:1010600000F09EFB0098406807218843049988425D
:1010700001D000F095FB02980199884206D12968B9
:10108000039A012090408143296010E008462969B5
:1010900088420AD3C0680099884206D10198029913
:1010A000886002980199C86001E000F079FB04981B
:1010B000801B0290374300984760029820430099B4
:1010C000091D8851009880190590029805990850CB
:1010D000A8680490C608202E01D300F061FB049894
:1010E000002826D068690190039628002830F10076
:1010F00047183E000498102801D200F051FB2868E0
:1011000003990200CA40224003D18C4004432C6062
:1011100007E0B8682969884201D3060001E000F0C1
:101120003FFB0198B8600198F060019886600198D3
:10113000C7600298A86005986861009F47E06868EA
:10114000002836D031002800FFF7B4FD070013D087
:1011500044E03F20C043864202D30026F6430BE022
:101160000B36072086436868002805D03100280028
:10117000FFF7AEFB070031D1AA68B24219D3931B27
:1011800068690321102B08D382196A61AB601C4384
:101190005460D3503143416009E00023AB606B6180
:1011A00011434160011D89180A6814430C6007004F
:1011B0000DE0E86886420CD2801BE860A9698A19B4
:1011C000AA61044354600320304348600F0008378D
:1011D00004E031002800FFF783FA070000BF00BFDA
:1011E000380007B0F0BD0000300D0020002800D10D
:1011F0007047F8B584B00838050000BF00BF3D4C0B
:101200002069854200D2B5E26868032103220240CA
:10121000012A00D1AEE2C708FF00EA1900920126B8
:10122000304241D12A68084000D1A5E2BF1850429F
:101230002D182069854200D29CE26069854200D168
:10124000EFE0D008202869D2A9680291E9680191ED
:1012500003900198854201D100F0A2FA02988542DC
:1012600001D100F09DFA6868072188430399C900FD
:10127000884201D000F094FA200028300399C90078
:1012800040180299814205D02269914243D3C9682E
:10129000A94240D10199029A91422DD12168039A25
:1012A00001209040814321600098854200D361E293
:1012B0004068304200D15DE2810700D5B3E100997A
:1012C000A269914200D0BCE0E068C019E060A5616D
:1012D00006436E6061698D4202D100216161A160A7
:1012E000E169814200D347E200212000FFF7B2FA12
:1012F00042E200BF300D0020814206D0084621693D
:10130000884208D38068A84205D10198D06002982D
:1013100001998860C8E700F043FAC5E7A869029020
:10132000E968A94210D0A8680191216988422CD3AC
:10133000C168A94229D101998968A94225D1019999
:10134000C1600199886022E02A001432106801907F
:10135000002805D12A00103210680190002816D00C
:10136000019801E00A001068010014310B68002B9D
:10137000F8D1010010310B68002BF3D101902069E6
:10138000824202D30020106001E000F009FA0298C6
:10139000002889D0982040002018E9698900401869
:1013A00001688D420AD101990160002915D1616857
:1013B000EA69012090408143616075E702982169E4
:1013C000884208D30069A8420198029901D10861B6
:1013D00003E0486101E000F0E3F90198002800D142
:1013E00062E720690199814295D30299019A91613E
:1013F0002969002908D0814204D30198016101982C
:10140000886101E000F0CCF96869002800D14BE761
:101410002169884200D27EE7019948610199816182
:1014200042E7009840680140032900D03CE7A760EC
:1014300000984068B043009948603E436E60EF51A9
:101440009AE16269914207D1A068C019A060656104
:1014500006436E6028508FE1072188433F18C0087B
:1014600020284AD20099896802910099C96801919F
:10147000039000980199884201D100F091F90098F9
:101480000299884201D100F08BF900984068072149
:1014900088430399C900884201D000F081F92000F7
:1014A00028300399C90040180299814208D0226966
:1014B000914200D2ACE0C968009A914200D0A7E006
:1014C0000199029A914206D12168039A0120904025
:1014D000814321609EE0814209D00846216988420B
:1014E00000D295E080680099884200D090E0019891
:1014F000D0600298019988608CE000988069029021
:101500000098C0680099884212D0009989680190BB
:10151000206981422DD3C868009A904229D1019850
:101520008068904225D10198C8600198816022E0CE
:10153000009A143210680190002805D1009A1032E8
:1015400010680190002816D0019801E00A00106888
:10155000010014310B68002BF8D1010010310B6829
:10156000002BF3D101902069824202D30020106049
:1015700001E000F015F9029800284BD098204000B7
:1015800020180099C96989004018009902689142A1
:101590000BD101990160002917D161680098C269D7
:1015A000012090408143616034E0029821698842C3
:1015B00009D30069009988420198029901D1086114
:1015C00003E0486101E000F0EBF80198002821D029
:1015D0002069019981421BD30299019A9161009976
:1015E0000969002908D0814204D30198016101985A
:1015F000886101E000F0D4F800984069002809D023
:101600002169884204D3019948610199816101E00F
:1016100000F0C6F8012038436860EF5160698542E8
:1016200008D1A760A8E0B043009948600120384382
:101630006860EF51F808202827D202902000283057
:101640000299C900401800900190102F01D200F0BB
:10165000A7F8206802990200CA40324003D18E40A8
:101660000643266008E0009880682169884201D31B
:10167000019001E000F094F8009885600198C56041
:101680000198A8600098E86076E0380A01D100224D
:1016900025E03104884201D31F2220E0FF21C94305
:1016A0004118090C0822114088403B4A8218120C4C
:1016B00004231A4000929040384A8218120C0223E8
:1016C0001A400E23591A009BC91A891A9040C00B60
:1016D00008184100C01D3A00C24032408A189820C4
:1016E00040002018910040180090EA6100206861D5
:1016F000286161680B00D340334007D196400E4308
:101700006660009805600098A8611FE0009909686C
:101710001F2A01D13A0006E0192352089B1A3A0009
:101720009A4000E031004B680726B343BB4227D004
:101730000B001033D60FB6009B1952001E68002E06
:10174000F0D12069834204D31D60A961ED60AD60D2
:1017500001E000F025F8206A401E20620CD1E42050
:101760004000205800E080680028FCD10020C043E1
:10177000206201E000F014F800BF00BF05B0F0BD2A
:101780008A6823699942E4D39A42E2D3D5608D6096
:10179000AA60E960A861DEE700F0FFFF00C0FFFF7C
:1017A00080B5012000F046F801BDFEE7124207D0E7
:1017B0008B0706D00B78491C0370401C521EF7D8CB
:1017C0007047830706D00B78491C0370401C521EDB
:1017D000F9D1704770B4103A03D378C9103A78C081
:1017E000FBD2530701D318C918C001D508C908C0D6
:1017F000D20704D30B880380891C801C002A01D5E2
:101800000B78037070BC704707490868002801D046
:10181000002070470548072290430860044991431F
:10182000091A0160704700BF741000208720002053
:101830008024002080B500BF00BF024A110018209C
:10184000ABBEFBE72600020070B50024AE4DA4B28B
:1018500028550124002911D08878AB4D2600B6B256
:10186000A855641C4878A84D2600B6B2A855641C3B
:101870000878A5492500ADB24855641C1D00280014
:1018800080B200280AD011002A0092B29E4823009C
:101890009BB2C6183000FFF789FF6419200080B2A0
:1018A00070BD00B5010001208978402900DB0220CD
:1018B000C0B200BDF8B504000F000025032680214A
:1018C0000902924800F04BFB2000C0B2012807D16A
:1018D0000023002200210520FFF7B6FF050009E0E4
:1018E000E4B2022C06D10023002200213520FFF7AC
:1018F000ABFF0500864800680121884384490860E1
:10190000290089B2804800F091FB00280CD13800F2
:10191000012100F0C1FB002806D17D4800680121AB
:1019200001437B480160002680210902774800F0CE
:10193000FBFA3000C0B2F2BD80B5002069460870E5
:10194000062069460120FFF7B5FF0100C9B2002952
:1019500006D168460078C00701D4072000E00620C1
:10196000C0B202BD38B50025002004248021090240
:10197000664800F0F4FAFFF7DFFF072806D02800DA
:1019800005006D1CC821C9008842F4D3C820C000DE
:10199000854219D25E480068012188435C4908608D
:1019A0000023002200210620FFF74EFF010089B22C
:1019B000554800F03BFB002806D15548006801213E
:1019C0000143534801600024802109024F4800F080
:1019D000ABFA2000C0B232BD38B500220424002585
:1019E0006A4610706846417080210902474800F03D
:1019F000B6FAFFF7B7FF002828D1FFF79DFF0728A9
:101A000006D0280005006D1CC821C9008842F4D307
:101A1000C820C000854219D23D4800680121884392
:101A20003B49086002236A4600210120FFF70CFFB2
:101A3000010089B2344800F0F9FA002806D1344890
:101A4000006801210143324801600024802109021D
:101A50002E4800F069FA2000C0B232BD10B505244E
:101A600000F0C8FA00210020FFF7B6FF002800D1DF
:101A700000242000C0B210BDF1B50F0016000424F0
:101A8000002580210902214800F069FA0098FFF73B
:101A900008FF01282ED1FFF765FF00282BD1FFF7A3
:101AA0004BFF072806D0280005006D1CC821C9007F
:101AB0008842F4D3C820C00085421CD233003A00CB
:101AC0001348006801218843114908609BB20099BE
:101AD0000220FFF7B9FE010089B20B4800F0A6FA18
:101AE000002808D10A480068012101430848016024
:101AF000002400E0022480210902044800F014FAC6
:101B00002000C0B2F2BD0000080F002020000040FD
:101B100048000040F1B50F00160000200324002506
:101B200080210902204800F01AFA0098FFF7B9FE58
:101B3000012830D1FFF700FF072806D02800050054
:101B40006D1CC821C9008842F4D3C820C00085425A
:101B500022D21648006801218843144908600023F6
:101B6000002200990320FFF76FFE010089B21048A0
:101B700000F05CFA00280FD13100380089B200F083
:101B80008BFA002808D10948006801210143074861
:101B90000160002400E0022480210902024800F0D4
:101BA000C3F92000C0B2F2BD200000404800004050
:101BB000080F0020F8B5060009250024802109023D
:101BC000224800F0CCF9822149000022204F380041
:101BD00000F0A6FA3000FFF764FE01282DD1FFF7D0
:101BE000C1FE00282AD1FFF7A7FE072806D0200053
:101BF0000400641CC821C9008842F4D3C820C00076
:101C000084421BD2134800680121884311490860AF
:101C10000023002231002020FFF716FE010089B2C8
:101C20000B4800F003FA002808D10A480068012197
:101C3000014308480160002500E0022580210902D7
:101C4000024800F071F92800C0B2F2BD2000004047
:101C5000080F002048000040F8B506000D001400F1
:101C6000042100226F46380000F05AFA310068461D
:101C700000F01EF8220092B229006846FFF74AFFE2
:101C80000020F2BDF8B506000D001400042100226A
:101C90006F46380000F044FA3100684600F008F85A
:101CA000220092B229006846FFF7E6FE0020F2BD4E
:101CB0000A0002700A0A42700A00120C8270090EB1
:101CC000C170704738B504000020042100226D4621
:101CD000280000F025FA21006846FFF7E9FF684672
:101CE000FFF768FFC0B232BD80B5022241218848AB
:101CF00000F050F94121864800F016F9412184484E
:101D000000F02DF904224121814800F043F902221C
:101D100020217E4800F03EF920217C4800F004F9A3
:101D2000C82000F03DFA2021784800F018F902227E
:101D300080218900764800F02DF9002000F062FA39
:101D40000222C021C901724800F024F980218900D3
:101D50006F4800F0E9F8642000F022FA8021890041
:101D60006B4800F0FCF88021C901694800F0DCF8FC
:101D700080218901664800F0D7F8642000F010FA4D
:101D80008021C901624800F0EAF880218901604899
:101D900000F0E5F8642000F003FA8021C9015C48F6
:101DA00000F0C2F880218901594800F0BDF80422F2
:101DB000C021C901564800F0EDF802220121564821
:101DC00000F0E8F80121544800F0C9F80121524818
:101DD00000F0AAF80121504800F0C1F8C0218900A4
:101DE0004D4800F0BCF80222C02189004A4800F0AA
:101DF000D1F802220121494800F0CCF802228021CA
:101E00004901474800F0C6F880214901444800F0E4
:101E10008BF80121414800F087F8802109023C48F5
:101E200000F082F8022280210902394800F0B2F85D
:101E3000C021C901384800F092F80222C021C9012E
:101E4000354800F0A7F8C021C901334800F087F8F1
:101E5000022204212F4800F09DF804212D4800F0B3
:101E600063F80C222F49294800F094F8022202213D
:101E7000294800F08FF80221274800F070F804226A
:101E80002021254800F086F80C220221214800F08C
:101E900081F80C2280214900214800F07BF80222C1
:101EA0008021C9001E4800F075F88021C9001C4837
:101EB00000F03AF8042280210902174800F06AF87D
:101EC0000121174800F04BF802220121144800F0CC
:101ED00061F80121124800F027F80421104800F0B1
:101EE0003EF80C2204210E4800F054F80A210C4858
:101EF00000F035F802220A21094800F04BF80A21C7
:101F0000074800F011F801BD00000000104001403A
:101F1000200000406000004080000040A000004021
:101F200040000040540A000080B52D4A904203D181
:101F300089B200F0CDF911E02B4A90420BD02B4A28
:101F4000904208D0254A904205D0264A904202D0BD
:101F5000274A904202D189B200F0B5F901BD80B59F
:101F60001F4A904203D189B200F0BCF911E01E4A29
:101F700090420BD01D4A904208D0184A904205D09A
:101F8000184A904202D01A4A904202D189B200F017
:101F9000A4F901BDE0B5124B984207D192B201926B
:101FA00089B20091694600F06BF915E00E4B98423A
:101FB0000BD00E4B984208D0084B984205D0094BE5
:101FC000984202D00A4B984206D192B2019289B24D
:101FD0000091694600F02AF907BD0000600000404A
:101FE00010400140800000402000004040000040C0
:101FF000A000004080B586B0444800F07BF9002086
:102000000390002000908020C000049020200190C8
:10201000102002900020059069463C4800F087F9A6
:1020200001213A4800F096F907B000BDF8B5070065
:102030000E000024002500E06D1C2800310080B255
:1020400089B2884226D2280080B2385C30490860C4
:1020500030492E4800F08CF9002804D020000400FC
:10206000641C6428F4D3642C12D22B48006800202E
:1020700000242849254800F07BF9002804D02000DE
:102080000400641C6428F4D3642CD5D3012002E03E
:10209000012000E00020F2BDF1B50F000024112660
:1020A000002500E06D1C2800390080B289B288420A
:1020B0002AD23000C0B21649086000E0641C1549FD
:1020C000124800F055F9002802D014488442F5D394
:1020D0001248844207D200240F48006800992A0061
:1020E00092B2885402E001200FE0641C09490748BD
:1020F00000F03EF9002802D008488442F5D3074892
:102100008442CFD3012000E00020F2BD00580140FE
:10211000085801401000002010580140102700000E
:102120001206130A1A43130C1A4300BF094205D0C2
:10213000830705D00270401C491EF9D1704700008A
:10214000130030B414001500103902D310393CC00C
:10215000FCD2490700D30CC000D504C0890002D3CB
:102160000280801C002900D5027030BC704700003E
:1021700001B50098411E0091002810D000BF00BF9B
:1021800000BF00BF00BF00BF00BF00BF00BF00BF57
:1021900000BF00BF00BF00BF00BF00BFE9E701BD37
:1021A00001B50098411E0091002804D0FA2080005B
:1021B000FFF7DEFFF5E701BD0F48006840218843C7
:1021C0000D49086000200D49086000200A49086098
:1021D00000200B4908607047016842680A430749BC
:1021E0000A600549096887229143C26880681043E4
:1021F000084301490860704708080140040801408D
:102200001808014000B5012806D1074800684021A0
:1022100001430548016005E0034800684021884308
:102220000149086000BD00000808014010B5304AAF
:10223000904203D10A6804239A430A600A799207FC
:1022400009D5C2680B689A430B79DB0702D51300E6
:102250000A681A43C26002680B689A4343680C68B4
:10226000A3430C79240702D51C000B6823430C7987
:10227000640702D514000A6822430260436010BD5F
:1022800010B50A79920709D5C2680B689A430B7991
:10229000DB0702D513000A681A43C26002680B68A4
:1022A0009A4343680C68A3430C79240702D51C00A9
:1022B0000B6823430C79640702D514000A68224393
:1022C0000260436010BD826889B20A438260704731
:1022D000826889B20A4382607047826889B28A4301
:1022E00082607047826889B28A43826070470000CA
:1022F000A000004081B00021009100210160016830
:10230000802212010A43026001682C4A0A400260DE
:10231000016900910099491C0091802109024160E6
:1023200080210902C1600021416101B0704710B4F1
:102330000368234A1A400B684C681C438B6823438C
:102340000C691C434B692343C9681943114301605D
:1023500010BC704700B5012905D101688022120226
:102360000A43026003E00168164A0A40026000BDA9
:1023700000B54A0F520780231B069A4207D14068D6
:102380000840002801D0012016E0002014E04A0F88
:1023900052078023DB059A4207D1C0680840002815
:1023A00001D0012008E0002006E040690840002834
:1023B00001D0012000E0002000BD0000FFF7FFFF7A
:1023C000C8F8FFFFFF7FFFFF10B504002078C007AB
:1023D00012D58D480068082188438B4908608A48D7
:1023E0000068102188438849086087480068874949
:1023F00008600020864908608648006840218843BC
:1024000084490860844800688021884382490860C4
:10241000207800070FD57C480068802188437A49DE
:10242000086079480068216A01437748016076486E
:10243000006876490860207880072DD576480068C6
:102440008021884374490860E06820281AD16E48CA
:102450000068202101436C4801606B4800686B49AB
:1024600008606E48006807218843216901436B4872
:1024700001606B48006820218843A16801436848D7
:10248000016009E060480068202188435E490860D7
:102490005D4800685D4908602078400734D5A06930
:1024A000402827D158480068402101435648016020
:1024B00055480068554908605848006878218843A5
:1024C000E1690143554801606069102809D14E480F
:1024D0000068802101434C4801604B4800684B492B
:1024E00008604F48006810218843616901434C48E7
:1024F000016009E04448006840218843424908607F
:102500004148006841490860207880060AD544485F
:10251000006802218843616A014341480160A06A62
:1025200000F098F92078C0075ED56068002803D1D4
:1025300060683749086057E0606801280DD132486B
:10254000006880210143304801602F4800682F490E
:10255000086060682E49086046E0606802281ED165
:102560002948006840210143274801602648006847
:102570002649086000209349088093480068C007F6
:1025800009D4904800880100491C8E4A118080B20D
:102590008E498842F1DB60681D49086024E060686C
:1025A00004281ED118480068202101431648016004
:1025B0001548006815490860002082490880824853
:1025C0000068800709D47F4800880100491C7D4AC3
:1025D000118080B27D498842F1DB60680C49086057
:1025E00002E060680A4908602078400603D5E06A86
:1025F000401E774908602078000603D5206B401EF6
:102600007449086010BD0000681000200C420140B1
:10261000043E01402842014008420140244201405A
:102620000840014000B56C4800684007400F684909
:102630000968C9B2491C002806D002280ED008D368
:10264000042877D062D3B1E0C820C00300F035F988
:10265000ADE0C820C00300F030F9A8E05F48026890
:102660007820104000282AD008282DD0102830D0FB
:10267000182833D0202835D0282838D030283AD010
:1026800038283DD0602806D0682809D070280CD0A2
:1026900078280FD038E0C820000400F00EF934E0AC
:1026A000FA20000400F009F92FE09620400400F021
:1026B00004F92AE0AF20400400F0FFF825E0C8202C
:1026C000400400F0FAF820E0E120400400F0F5F8C2
:1026D0001BE0FA20400400F0F0F816E0404800F05B
:1026E000ECF812E09620800400F0E7F80DE03D4899
:1026F00000F0E3F809E0AF20800400F0DEF804E029
:10270000394800F0DAF800E0002050E0374800686F
:102710008007800F002804D18020000200F0CDF84F
:1027200007E0012804D18020800100F0C6F800E015
:1027300000203CE0294800684007400F00280BD0EB
:10274000022813D00DD304281AD014D3062821D080
:102750001BD3072823D027E0C820400400F0ADF8A1
:1027600023E0C820000400F0A8F81EE0C820C00341
:1027700000F0A3F819E0C820800300F09EF814E0F0
:10278000C820400300F099F80FE0C820000300F0D3
:1027900094F80AE0C820C00200F08FF805E0C820D5
:1027A000800200F08AF800E0002000E0002000BD78
:1027B00080B5FFF737FF07490968C9B2491C00F027
:1027C0007CF802BD7A1000205442014088130000BA
:1027D000083E01400C3E0140043E014024420140BD
:1027E0000000260200008A020000EE025848014064
:1027F00000B5002806D013481349086013481F4944
:10280000086005E00F481049086011481B4908603E
:1028100000BD00B5002019490968890704D50100E9
:102820000800401CC829F6D300BD00B5144909684A
:102830000840002801D0012000E0002000BD104920
:1028400008607047A55AA55A444801405AA55AA5A0
:102850005BA55AA510B504000A4800680321884307
:102860000443FFF7D6FF0020FFF7C2FF05480460CE
:102870000120FFF7BDFFFFF7CCFF10BD4848014026
:102880005048014058480140F446002804D44942C9
:1028900000F013F8404260474042002905D45FD061
:1028A00000F00BF8404249426047494200F005F809
:1028B0004942604703460B43E6D40022030A8B4299
:1028C0000BD203098B4219D243088B422ED2411AF4
:1028D00000D20146524110467047FF2209023FD004
:1028E00012068B4205D3121209028B4201D3121237
:1028F000090203098B4219D300E0090AC3098B427C
:1029000001D3CB01C01A524183098B4201D38B0101
:10291000C01A524143098B4201D34B01C01A5241A4
:1029200003098B4201D30B01C01A5241C3088B42E9
:1029300001D3CB00C01A524183088B4201D38B00D4
:10294000C01A524143088B4201D34B00C01A524176
:10295000884200D3401A5241CFD2014610467047F8
:1029600008B500F001F808BD7047000030B502005E
:102970000B003549002400E0641C9C4211D2105D1C
:1029800000024840010000200500EDB2082DF3DAF6
:102990000D0401D4490002E04D00B0496940401CDB
:1029A000F2E7080080B230BD0A0002700A0A4270E5
:1029B000090C8170704710B50400200000F080F908
:1029C000002000E0401C80218900884204D2215C64
:1029D000FF29F7D0022000E0002010BD70B50400F0
:1029E0000E0015002A003100200000F07AF900F0F6
:1029F000B5F9012801D002200BE0002000E0401CC6
:102A0000A84205D2215C325C9142F8D0022000E05D
:102A1000002070BD7CB50E00150001006846FFF770
:102A2000C3FF03242000441EC0B2002809D02A009E
:102A300092B231006846FFF76DF80028F2D100200D
:102A400000E0012076BD0000FFFF0000F1B582B07C
:102A50006846007A032801DB0720FDE092480078F1
:102A60006946097A884201D10020F5E08F4869461D
:102A7000097A04225143405800900C228C49009856
:102A8000FFF7C8FF0100C9B2002901D0C0B2E3E0DE
:102A9000874800888749884201D00320DCE08448C9
:102AA000C0796946097A884201D00720D4E080487D
:102AB00040888149401880218900FFF7FBFE04000F
:102AC000002500E06D1CA5420DD2802080006843E7
:102AD000F02189024018FFF76EFF0100C9B20029FA
:102AE000F0D0C0B2B8E080204000FEF701FA070045
:102AF000002F01D10620AFE000980C306C494A88C5
:102B00003900FFF787FF04002000C0B2002805D07D
:102B1000380000F045F92000C0B29DE064484188CB
:102B20003800FFF723FF6249898880B2884204D0C9
:102B3000380000F035F904208EE0002580204000A8
:102B4000019000E02D195A484088854219D2584812
:102B50004088441B0198A04201D2019CFFE722005B
:102B60007919F02080022818FFF738FF060030009E
:102B7000C0B20028E6D0380000F012F93000C0B230
:102B80006AE0380000F00CF9009849494988451876
:102B90000C354748807904214843FEF7A9F9040021
:102BA000002C01D1062057E041488279042042439D
:102BB00021002800FFF72EFF05002800C0B20028E2
:102BC00005D0200000F0ECF82800C0B244E000205E
:102BD00017E00100C9B20422514362189178D378FA
:102BE0001B061B0C194389B2F0229202891801229C
:102BF0000A432D490300DBB204256B43C9184A6020
:102C0000401C01002A4A9279C9B2914213D20100B4
:102C1000C9B20422514362189178D3781B061B0C69
:102C20001943234A528889B29142D2D3200000F03E
:102C3000B7F8072010E0200000F0B2F86846007AEC
:102C4000194908701A488079174948701B4800686C
:102C5000401C1A4908600020FEBD00002110000041
:102C600000B511490978C0B2814201D1012000E0CC
:102C70000020C0B200BD00B50B4A1278C0B282423B
:102C800001D000200EE00800074A527880B292B2CC
:102C9000904201D3002005E0034889B204224A4350
:102CA0008018406800BD000000000020383A000095
:102CB000541000204D4D0000FF0100006010002066
:102CC00000B52B492B4A11602B4908602B482C4931
:102CD00008602B4800680028FBD1002025490860C7
:102CE00000BD30B5224B234C2360234B18600023DA
:102CF0000EE00C78284D2C70491C08E0C418A4077D
:102D0000A40F022CF5D10C78224D2C70491C5B1CB1
:102D1000934213D2C418A407A40F002C04D10C783A
:102D2000184D2C70491CF2E7C418A407A40F012CFD
:102D3000E4D10C78194D2C70491CE8E700201249A9
:102D4000088012480068012804D00F480088104904
:102D50008842F6DB00200749086030BD00B50B480B
:102D60000068012801D1012000E0002000BD000022
:102D700055AAAA55E0FF0F00E8FF0F00AA5555AA73
:102D8000F4FF0F00ECFF0F007C100020BCFF0F00D1
:102D900010270000EEFF0F00EFFF0F00EDFF0F0008
:102DA00080B5FEF723FA01BD38B504002068056937
:102DB00020680561680600D4B5E0A0688068002836
:102DC00000D1B0E020684069400600D4ABE0606804
:102DD000007CC0076AD5280768D5A068007E022855
:102DE00028D1206800694006FBD5206800690007EB
:102DF00056D52068406908218843216848612068C9
:102E000000690821014320680161606800690121AF
:102E10008843616808616068406804210143606814
:102E200041606068006800283AD020206168096825
:102E3000884735E0206800694006FBD520680069B6
:102E400000072DD520680069082101432068016131
:102E5000206800694006FBD52068006900071FD57F
:102E6000206840690821884321684861206800691A
:102E700008210143206801616068006901218843DD
:102E800061680861606840680421014360684160CE
:102E900060680068002803D02020616809688847BE
:102EA000206805692068056108208543A0680069DD
:102EB000A168096888420CD2A0688068411CA26899
:102EC000916000782168C860A0680069401CA16812
:102ED0000861A0680069A1680968884213D1206868
:102EE0004069402188432168486160684068012149
:102EF00088436168486060680068002803D001204A
:102F000061680968884728070DD560684068042112
:102F100001436068416060680068002803D00820B1
:102F2000616809688847A80600D4C5E0A068C06841
:102F3000002800D1C0E020684069800600D4BBE0D2
:102F40006068006980076AD5680768D5A068407E18
:102F5000022828D1206800698006FBD52068006916
:102F6000400756D52068406904218843216848619C
:102F700020680069042101432068016160680069DC
:102F80000221884361680861606840680821014344
:102F9000606841606068006800283AD0402061683D
:102FA0000968884735E0206800698006FBD52068FD
:102FB000006940072DD5206800690421014320687D
:102FC0000161206800698006FBD520680069400720
:102FD0001FD5206840690421884321684861206822
:102FE00000690421014320680161606800690221D1
:102FF000884361680861606840680821014360682F
:10300000416060680068002803D04020616809685A
:103010008847206805692068056180208543A0688D
:103020004069A168496888420CD2A068C068411C08
:10303000A268D1602168C9680170A0684069401C1D
:10304000A1684861A0684069A1684968884213D1B5
:103050002068406920218843216848616068406891
:10306000012188436168486060680068002803D0D7
:10307000022061680968884728060DD560684068A5
:10308000022101436068416060680068002803D045
:10309000042061680968884768070DD56068406842
:1030A000082101436068416060680068002803D01F
:1030B000102061680968884731BD80B50148FFF775
:1030C00073FE01BD2C3A0000F3B585B00500170072
:1030D0001E00280000F00AF9002003900320009051
:1030E0003000C0B2002840D17948854209D17948E2
:1030F000007801210143774801700120764908706A
:103100005CE07648854209D172480078022101438B
:10311000704801700220704908704FE07048854285
:1031200009D16C480078042101436A4801700420E9
:103130006949087042E06B48854209D165480078CA
:10314000102101436348017010206349087035E085
:103150006548854232D15F480078202101435D48AF
:10316000017020205C49087028E05948854203D14D
:103170000120594908701AE05848854203D10220BD
:103180005549087013E05648854203D1042052493E
:1031900008700CE05348854203D110204E49087056
:1031A00005E05148854202D120204B49087049482A
:1031B000007849490978884346490870FFB2022FD0
:1031C00004D1F6B201960220029003E000200190A3
:1031D000002002900698302811D1962040000490DB
:1031E00028003B49401A08D0203840D0203840D031
:1031F000403840D0203840D040E006243EE031281E
:1032000003D1962080000490EAE7322803D196206B
:10321000C0000490E4E7332803D196200001049015
:10322000DEE7342803D1962040010490D8E7352802
:1032300003D1962080010490D2E7362803D196204E
:10324000C0010490CCE7372803D1E120400204906C
:10325000C6E7382803D1E120C0010490C0E739282F
:1032600003D1E12000020490BAE700202DE00724FA
:1032700004E0082402E00A2400E00B246946280048
:1032800000F048F801220821280000F06DF81648E7
:1032900085420AD101220121280000F073F80122A1
:1032A0000221280000F06EF804E00122012128002C
:1032B00000F068F801220221280000F063F80021E4
:1032C000200040B200F0D4F8012007B0F0BD0000AB
:1032D000001801407F1000207E10002020180140BF
:1032E0004018014080180140A018014081B0002121
:1032F0000091016800910099491C00913F21C16033
:103300003C21416000210161002141610021816077
:1033100001B07047FEB505000C00A8680321884382
:1033200021680143019168690F2188436168A2689F
:103330000A43E168114301436961FFF739FA060066
:1033400030002169FFF7B9FA0700206940080090B2
:1033500030002169FFF7B1FA0098884200D27F1C43
:103360002F610198A860F7BD00B5D2B2012A03D140
:1033700082681143816002E082688A43826000BDF6
:10338000C160704700B5012A03D182681143816092
:1033900002E082688A43826000BD00000121C0060D
:1033A000C00E81402C48016070470121C006C00E4C
:1033B00081402A4801607047F0B5020052B2002AED
:1033C00023D5274B020052B21207120F083A920877
:1033D00004246243224C05006DB22D072D0F083DD9
:1033E000AD08042675436459FF258607B60F0827E4
:1033F0007E43B540AC438901C9B28007800F0825E0
:1034000068438140214399501BE0164A03005BB298
:103410009B0804246343D258FF238407A40F082584
:103420006C43A3409A438901C9B283079B0F0824C8
:103430006343994011430B4A40B280080423584328
:103440001150F0BD00B5BFF34F8F07480749086022
:10345000BFF34F8F00BFFDE700E100E080E200E036
:103460001CED00E000E400E00400FA050CED00E0D3
:1034700038B505000C00280040B2FFF796FF210088
:10348000280040B2FFF798FF280040B2FFF786FF00
:1034900031BD80B5FFF7D6FF01BD000080B50F201C
:1034A000FFF7F7FFFEE780B51020FFF7F2FFFEE71A
:1034B000704770477047704780B50420FFF7B5F933
:1034C000002802D00420FFF7BAF90020C043FFF71C
:1034D000B6F901BD70477047704780B502214D486D
:1034E000FFF74EFF0021C9434A48FFF749FF022179
:1034F0004848FFF745FF02214648FFF741FF0221F8
:103500004448FFF73DFF01BD80B502214248FFF767
:1035100037FF01BD80B502214048FFF731FF002190
:10352000C9433E48FFF72CFF02213C48FFF728FF24
:1035300002213A48FFF724FF02213848FFF720FF15
:1035400001BD80B502213648FFF71AFF0021C943AB
:103550003348FFF715FF02213148FFF711FF022121
:103560002F48FFF70DFF02212D48FFF709FF01BD8E
:1035700080B50021C9432B48FFF702FF02212948EB
:10358000FFF7FEFE02212748FFF7FAFE0221254839
:10359000FFF7F6FE01BD80B5FFF78FFD01BD80B5D9
:1035A000214800F05DF8002802D01F4800F060F8C4
:1035B00001BD80B51D4800F053F8002802D01B481B
:1035C00000F056F801BD80B519480068401C184944
:1035D0000860184800F044F800280ED0154800F0A4
:1035E00047F815480068401C1349086012480068F5
:1035F000642802D300201049086001BD80B50F483F
:1036000000F02EF8002802D00C4800F031F801BD7F
:10361000000000000018014020180140401801403F
:1036200080180140A01801400028014020280140D6
:103630006C100020402801407010002060280140DC
:1036400070477047704770477047704780B580205B
:1036500000F012F8002802D0802000F017F801BD19
:1036600000B5C068C00701D5012000E0002000BD02
:103670000121C1607047000000B506490968084093
:10368000002801D0012000E0002000BD01490860B1
:10369000704700006042014000B5294800680121E0
:1036A00088432749086026480068264908600020AA
:1036B000254908602548006803218843234908609C
:1036C000032023490860002022490880224800681E
:1036D000002809D51F4800880100491C1D4A118097
:1036E00080B21E498842F1DB00201B49086000BD02
:1036F00000B5002118490968194A0A40C368816861
:10370000194311430268002A0CD14268002A05D1EE
:10371000F02291430069000108430EE080208003FD
:1037200008430AE04268002A04D10F22914300694D
:10373000084302E08020400308430749086000BDB9
:10374000681000200C4201400442014064420140E4
:103750006042014078100020684201408813000058
:1037600000E0C8FF00B507490968012805D12020FD
:10377000814308001021014301E0102081430148EA
:10378000016000BD0442014038B5012000F044F85A
:1037900000F068F8FEF7A8FAFEF760F96420FEF77B
:1037A000FFFCFEF727FC0020FEF78CFA6420FEF7F2
:1037B000F7FC002419E01548006805198022520022
:1037C000134801192800FEF75DFA6420FEF7E8FCB3
:1037D000802252000C4801192800FEF73DFA6420AF
:1037E000FEF7DEFC8020400024180A48006884426E
:1037F000E1D36420FEF7D4FC00F04AF8FA20800000
:10380000FEF7CEFCFAE70000100200206410002052
:10381000240000200C02002000B58DB0E3210091AF
:10382000042101910100C9B2002904D101200490B2
:1038300002200C9006E0C0B2012803D100200490C1
:1038400001200C900020029020200390002009907D
:1038500000200A9001200B906846FEF7B5FD0DB0E0
:1038600000BD000080B5FEF7C5FB0121A02000F0DF
:1038700023F800F03BF80023002230210348FFF733
:1038800023FC8020400000F049F801BD8018014071
:1038900080B50020FFF7E4F9002804D10020FFF7ED
:1038A000D5F8002807D100210020FFF7E4F9010036
:1038B000002900D0804701BDF8B500220292C9B2AC
:1038C000022902D18121039101E08221039100218B
:1038D0000191C0B20090FEF76FFC6846FEF77CFCD9
:1038E0000120FEF78FFC05B000BD000000B585B0DB
:1038F000FFF7D2FE802000060090002001900920F2
:103900000490C02080000390002002906846FFF7DA
:10391000EFFE0020FFF726FF05B000BD00B504490B
:1039200009680840002801D0012000E0002000BD07
:103930005442014070B40123002413E00168001DCB
:10394000194202D04D466D1E49190C60091D121F07
:10395000042AFAD20D00960701D50C80AD1C1A403E
:1039600000D02C700268001D002AE7D170BC70479F
:1039700030B501684118446862088A188368E40712
:103980000DD54C461B190AE00C7864B2491C0D7821
:10399000491C1D705B1C002C05D5641CF9D191429B
:1039A000F2D10C3030BD641EF1D5F8E710B50749EF
:1039B00079441831064C7C44163404E0081D0A682A
:1039C000891888470100A142F8D110BD0800000005
:1039D0002400000061FFFFFF700E000010020020B5
:1039E000000000008DFFFFFF700000005C0300007E
:1039F0000000002000F00DF8002801D0FFF7D6FFEE
:103A000000BF00BF002000BF00BFFFF7BDFE00F0F9
:103A100002F80120704780B500F002F801BD0000F7
:103A200007463846FDF706FFFBE70000002001408F
:103A3000401000200C1000200000000000010000D9
:103A40000002000000BF00BF00BF00BFFFF7D2FFB1
:103A500000480047453A00000003DD00FC4D35F109
:103A60000A00009E7C0800250600005F0600008B0F
:103A700006000095060000090700002B07000067FC
:103A80000700008107000040100020E10A0000E16B
:103A9000030000EB03E20001F503F60019F7030051
:103AA00000F9030000FB030000FD030000190400FF
:103AB000001B0400001D04FA00091F0400004D044F
:103AC00000005904FA000987040000B5040000DB77
:103AD00004FA0029E3040000F70400000B050000CD
:103AE00041050000850500008705000089050000EC
:103AF0008B0500008D0500008F0500009105F60084
:103B0000010306EE007E38B50400206805692068D0
:103B10000561680600D4B5E0A0688068002800D17F
:103B2000B0E020684069400600D4ABE06068007CEB
:103B3000C0076AD5280768D5A068007E022828D16A
:103B4000206800694006FBD520680069000756D54B
:103B5000206840690821884321684861206800691D
:103B600008210143206801616068006901218843E0
:103B700061680861606840680421014360684160D1
:103B8000606800680056283AD0202061680968887B
:103B90004735E0206800694006FBD500BF00BF0242
:103BA0004A11001820ABBEFBE726000200250600E4
:103BB000005F060000090700002B0700008B0600CD
:103BC0000067070000810700003132334134353689
:103BD00042373839432A30234400200140FD001881
:103BE000201400002000BF00BF00BF00BFFFF7B6D9
:103BF000FF00480047D50A0000FC4D09C80001FF3E
:063C00000000E7010000D6
:0400000500003A4578
:00000001FF
