:1020000038510020A53C0200913002009B300200B4
:1020100000000000000000000000000000000000C0
:102020000000000000000000000000001B31020062
:1020300000000000000000001D3102001F310200FE
:10204000213102002732020075320200773202008D
:10205000793202007B32020099320200CF32020054
:10206000E3320200FF32020041330200B5330200C6
:102070002D340200353402003D340200C334020026
:10208000F5340200393502003B3502003D350200CF
:102090003F3502004135020043350200453502005C
:1020A0004735020000000000000000003D3602003D
:1020B00000B50020BF490978122931D0BD490978FF
:1020C00014292DD0BB4909781C2929D0B949097890
:1020D0001D2925D0B7490978292921D0B549097882
:1020E0002A291DD0B3490978422919D0B149097864
:1020F000432915D0AF4909782C2911D0AD49097869
:102100002D290DD0AB4909782F2909D0A949097883
:10211000092905D0A74909780A2901D00121080019
:10212000C0B200BD10B5A4480078FF2800D13FE13F
:10213000A0480078002800D13AE19E4800783D2868
:1021400000D135E19D4800784006400E63281AD042
:1021500001221400984800780A2106F00DFD303065
:1021600001002200C9B2002006F060FD0122140027
:10217000914800780A2106F0FFFC30312200C9B2F4
:10218000012006F053FDB1480078800704D4B04820
:102190000078012800D00BE1884840784006400EC6
:1021A000632803D0FFF784FF002804D1FFF780FFE6
:1021B000002800D0FCE0B3480CC80838002080217B
:1021C000C90210431943AF4A03C2083A122006F06D
:1021D000B3FE784800782F2844D1AB48407D0D28C5
:1021E00040DAA948407D00283CD0A8480078C007C4
:1021F00000D5DDE0A6480078022106F0BDFC0A28E3
:102200000EDA01221400A2480078022106F0B4FC84
:10221000303001002200C9B2022006F007FDC7E0FD
:10222000012214009A480078022106F0A5FC0A2138
:1022300006F0A2FC303001002200C9B2022006F0F4
:10224000F5FC0122140092480078022106F094FC6B
:102250000A2106F091FC30312200C9B2032006F0B9
:10226000E5FCA5E0534800782F283AD1894800784A
:10227000002836D086480078022106F07DFC0A2826
:102280000EDA0122140082480078022106F074FC64
:10229000303001002200C9B2022006F0C7FC20E065
:1022A000012214007A480078022106F065FC0A2118
:1022B00006F062FC303001002200C9B2022006F0B4
:1022C000B5FC0122140072480078022106F054FC8B
:1022D0000A2106F051FC30312200C9B2032006F079
:1022E000A5FC6C4800780A281FDA324800782C28B0
:1022F00003D0304800782D280ED101221400644804
:102300000078062106F038FC303001002200C9B206
:10231000022006F08BFC4BE001225E480178303150
:10232000C9B2022006F082FC42E0224800782C2844
:1023300003D0204800782D280ED1012214005448E3
:102340000078062106F018FC303001002200C9B2E6
:10235000022006F06BFC2BE04E48007841280CDB95
:102360004C4800784C2808DA01224A48017820318C
:10237000C9B2022006F05AFC1AE0012214004548B6
:1023800000780A2106F0F8FB303001002200C9B2C3
:10239000022006F04BFC012214003E4800780A217E
:1023A00006F0EAFB30312200C9B2032006F03EFC01
:1023B00010BD0000590C00205A0C0020B040002035
:1023C00030B50725344906F0DAFB6D1E08000A21F6
:1023D00006F0D5FB01000029F7D130480078042829
:1023E00023D02E48007802281FD02C4800780328DC
:1023F0001BD02A480078222817D0284800780528C2
:1024000013D0264800780D280FD0244800782428BF
:102410000BD022480078252807D0204800781C28B7
:1024200003D01E4800782E28FFD11C4800780928C8
:1024300003D01A4800780A2806D12C002000C0B228
:10244000052801DB641EF9E730BD000001410020D2
:10245000580C002010B506230A22002810D541424E
:10246000080001210E4C2170904203D35B1E0A210B
:102470004A43F9E71900C9B2042901DB03210B0023
:1024800010BD0000704000201C3F0020013E0020D5
:10249000114100200B41002000E1F505590C0020FE
:1024A00003410020F4B506000D00002400200127A0
:1024B0002800C0B23900C9B2C91D88421ADA20000A
:1024C000C0B2305C002815D02000C0B2305C2E288D
:1024D00001D1641CECE768460078012807D101228D
:1024E0002000C0B2315C2800C0B206F09FFB6D1C1A
:1024F000641CDDE7F1BD0000F8B50024002069464A
:1025000048700020694608707B48007801280CD08C
:102510000ED3032801D004D30AE000206946487096
:1025200006E001206946487002E0022069464870D2
:10253000FFF7BEFD002831D1C24800780A210140D2
:102540000A292BD1C0480078C049C14A1278895C59
:10255000884223D2BF48007801281FD0BA480078AB
:10256000401CB9490870BC480078401CBA49087042
:10257000B4480078C00600D4C0E1B3480078401EDB
:10258000B1490870B4480078401EB3490870AD489E
:102590000078EF210140AB480170AFE1FFF788FD03
:1025A000002818D1A74800780A2101400A2912D131
:1025B000A548007800280ED0A648007801280AD146
:1025C000A1480078401EA0490870A3480078401E2A
:1025D000A149087092E100209D4908709C4800784C
:1025E000BE4908709B48007801282DD0BC4800885F
:1025F000BC49098804224A43083290420ED3BA48A3
:102600000078032806D13D20914908700420B44980
:10261000088073E10820B249088035E0B3480078AB
:1026200001280BD187480078800707D5AC4800887F
:10263000001FAB4908800220AC490870A8480088F8
:10264000001DA74908801FE0A5480088082816D269
:10265000A548007803280AD13D207D490870A1488B
:1026600000880421414308319D48018046E19D488E
:10267000008804214143091D9948018004E09848DD
:102680000088001F96490880042295480088F021A0
:1026900049014118BC4806F0BFFC002800D127E1E1
:1026A0000020BA490870B8480078FF280CD1B64815
:1026B0004078FF2808D1B4488078FF2804D1B24878
:1026C000C078FF2800D113E1854800888549098832
:1026D00004224A430832904210D3834800780328EA
:1026E00006D13D205A49087004207D49088005E143
:1026F00004207B490880FBE0580C0020A2480078A9
:102700004006400E642800DBF2E09F484078400617
:10271000400E642800DBEBE09B4880784006400ECA
:10272000512800DBE4E00425974EBA4F2A0031001F
:10273000380006F021FE944869464978405C00065E
:1027400000D4D5E0B34800784006400E63490870D5
:10275000B04840784006400E3F490870AD48807848
:102760004006400E3A490870FFF7A2FC002875D0D9
:10277000A848C0784006400E33490870A648007843
:1027800056490978884203D1A448007801280ED11F
:102790000020564908702B480078FD210140294847
:1027A000017028480078FE210140264801709948B0
:1027B00040784006400E002805D0964840784006F4
:1027C000400E412811D14948007800280DD14348D6
:1027D0000078914908701B4800780121014319488D
:1027E000017001204149087088E08A48407840061D
:1027F000400E632803D08948007801280DD137485E
:102800000078854908700F480078FE2101400D4886
:10281000017000203549087070E07F4800782F492A
:102820000978884264D107480078C00760D5054818
:102830000078800762D403480078FD2101400148F8
:10284000017055E00141002011410020703C002042
:10285000590C0020064100200B4100206E480078F2
:102860001E490978884208D00020204908706C4829
:102870000078FD2101406A480170184800786649D7
:102880000870674800780821014365480170644872
:10289000007810210143624801705E48407840068C
:1028A000400E002805D05B4840784006400E632863
:1028B00006D100205B49087000205B4908700BE0DE
:1028C000544840784006400E412805D10020554923
:1028D000087041205449087010E000BF5A0C0020D5
:1028E000E840002068400020E7150020004100205B
:1028F000641C2000C0B2BE2800DA6CE62000C0B222
:10290000BE280BDB21480078401C204908701F4876
:1029100000780B2802DB0E2006F0BFFD434800784C
:10292000C00759D4424800782F2834D11725FF26F4
:10293000404F32002900380006F0B8FD39480078D1
:10294000022825DB37480078022106F015F9401EE1
:102950006946087033480078022106F00DF9002915
:1029600003D000203449087002E001203249087089
:1029700068460078401C2C4908702E49684600784B
:1029800005F096FF07E000BFB44000201A41002088
:102990000020254908702648007829280BD02448B3
:1029A00000782A2807D022480078422803D02048FF
:1029B0000078432810D11726FF251E4F2A0031002A
:1029C000380006F073FD1748007869460870194909
:1029D0006846007805F06CFF15480078002814D18F
:1029E000A14800788121014081290ED09F480068CC
:1029F000032188439D4908609C48006801210143E8
:102A00009A48016001209A4908700020994908708D
:102A1000F1BD0000B0400020FF400020580C002015
:102A200001410020114100200B410020013E002007
:102A3000590C00201C3F00201B410020FEB58E4891
:102A40000078002802D08C48007800E00120401E69
:102A50008A49087088480078002802D086480078A3
:102A600000E00120022809DB83480078002802D01A
:102A70008148007800E00120401E00E000208049ED
:102A800048777D480078002802D07B48007800E035
:102A90000120401E7A49887477480078002802D0C7
:102AA0007548007800E00120401E7549087572489D
:102AB0000078002802D07048007800E00120401E15
:102AC000704908706C480078002802D06A48007885
:102AD00000E00120401E6A490877002006F0E2FA73
:102AE0006949087068480078684908706648007845
:102AF0000D2803DA64480078002803D100206249D9
:102B0000087004E060480078401E5F4908700020AB
:102B100006F0C8FA5E4908705D4800785B490870A5
:102B20005B4800780D2803DA59480078002803D163
:102B300000205749087004E055480078401E544969
:102B40000870002006F0AEFA52490870514800782B
:102B50004E4908704F4800780D2803DA4D48007838
:102B6000002803D100204B49087004E04948007850
:102B7000401E484908700C204749087046480078B4
:102B800042490870444800780D2803DA424800782A
:102B9000002803D100204049087004E03E48007836
:102BA000401E3D49087007200090002401AD22001E
:102BB0000099280006F07AFC0625384E01AF2A005D
:102BC0003100380006F0D8FB00202D49087400279A
:102BD0003800C0B230281CDA31483900C9B2405C34
:102BE000FF2814D03800C0B2082105F0C5FF01A9A4
:102BF0000C5C01253800C0B2082105F0BDFF8D40F6
:102C00002C4204D01E48007C401C1D4908747F1CC7
:102C1000DEE7B348C07DC00704D51948007C401CDE
:102C200017490874AF480078042808DAAD480078DE
:102C3000002804D01248007C401C1149087419482F
:102C400006F066FC002804D50D48007C401C0C49A9
:102C500008740B48007C002804D00948007C401E02
:102C600007490874F7BD0000BF150020002100408F
:102C70001C4100200941002035310020923C0020F9
:102C8000703C0020903C0020993C0020184100201E
:102C9000B23C0020B33C00209A3C0020091A0020DE
:102CA000703B02002830002080B58F480078002853
:102CB00011D08E480CC80838802000010021104334
:102CC00019438A4A03C2083A89480068C021490466
:102CD0000143874801608248C07D400711D5834881
:102CE0000CC80838802040010021104319437F4A56
:102CF00003C2083A7E4800688021890401437C4869
:102D000001607C480078C0070FD578480CC80838A7
:102D10000120002110431943744A03C2083A744841
:102D20000068022101437248016072480078800700
:102D30000FD56E480CC808380220002110431943F3
:102D40006A4A03C2083A6A48006810210143684889
:102D5000016064480078042813DA6248007800288B
:102D60000FD062480CC808380220002110431943D4
:102D70005E4A03C2083A5E480068102101435C487D
:102D800001605748C07CC0070FD558480CC80838A8
:102D90001020002110431943544A03C2083A5448F2
:102DA0000068402101435248016008F071FB00288F
:102DB00010D04E480CC80838402000211043194359
:102DC0004A4A03C2083A4A480068802189030143FD
:102DD0004748016048480078012141404648017059
:102DE0000BF036FCC0072AD53D48407DC00615D5FE
:102DF0004148007800281CD13C480CC80838802085
:102E00004000002110431943384A03C2083A3848A9
:102E1000006880210143364801600AE033480CC84D
:102E20000838802040000021104319432F4A03C274
:102E3000083A2F480068802101432D4801600BF0BB
:102E400007FC80072CD52648407D800616D52A48E9
:102E5000007800281DD125480CC808388020800043
:102E6000002110431943214A03C2083A2048006850
:102E70008021490001431E4801600AE01B480CC83C
:102E8000083880208000002110431943174A03C2EC
:102E9000083A17480068802149000143144801603E
:102EA0000BF0D6FB40073BD50D48407D400625D5AD
:102EB0001148007800282CD10C480CC80838802014
:102EC000C000002110431943084A03C2083A0848C9
:102ED00000688021890001430548016019E000BFB6
:102EE000D01900200F190020C432002070400020AB
:102EF000A8400020300800201D410020A0480CC838
:102F000008388020C0000021104319439C4A03C2A6
:102F1000083A9C4800688021890001439948016073
:102F200099480078400602D5984806F005F8984878
:102F3000C07DC00710D592480CC8083880200021F9
:102F4000104319438E4A03C2083A8E480068802114
:102F5000C90201438B4801608D48C07CE0210140DB
:102F6000002907D18B480078002803D18A48C07D0A
:102F7000000711D5834800688021C90301438148B7
:102F800001608348C07C800606D5844800688021A3
:102F90004903014381480160814800783E2800D1FF
:102FA00093E07F4800783F2800D18EE00BF043FB90
:102FB000400710D572480CC8083800204021104343
:102FC00019436F4A03C2083A6E480068802189019C
:102FD00001436C4801606E48407D7021014000292A
:102FE00011D067480CC808388020800400211043A5
:102FF0001943634A03C2083A624800688021890283
:103000000143604801600BF016FBC00710D55C4817
:103010000CC808380020802110431943584A03C2C5
:10302000083A584800688021490101435548016029
:103030000BF001FB800711D551480CC8083800205F
:1030400080214900104319434D4A03C2083A4D48B4
:1030500000688021C90001434A4801600BF0EBFA87
:10306000000711D546480CC8083800208021890087
:1030700010431943424A03C2083A4248006880217B
:10308000090101433F4801604148C07C000706D563
:103090003C4800688021490301433A4801603C48AC
:1030A000407D000611D536480CC808388020C00481
:1030B000002110431943324A03C2083A31480068DC
:1030C0008021090301432F4801608C4800780221C8
:1030D00005F052FD002951D03148007800284DD02C
:1030E000874800781A2849D086480078800720D57C
:1030F00001226321052005F099FD21480CC80838FC
:10310000002080214905104319431D4A03C2083A93
:103110007D4805F011FF21480068802189000143A6
:103120001E4801601D4800688021090101431B48B9
:10313000016074480078400720D5012274210620E0
:1031400005F074FD0E480CC80838002080214905A0
:10315000104319430A4A03C2083A6B4805F0ECFED3
:103160000E4800688021890001430C4801600B482B
:1031700000688021C90001430848016001BD0000CA
:1031800070400020A84000200C1A00201B03000003
:10319000D01900203216002050180020AC4000202A
:1031A000590C0020F8B504000F0016001D00574808
:1031B000007804286FD02800C0B2002839D15448C4
:1031C00000783D2835D02000C0B20C2814DB0C3C20
:1031D0004F480078282822D04E480CC80838802054
:1031E00000040021104319434A4A03C2083AC3208D
:1031F000C00005F0A1FE12E04548007828280ED056
:1032000044480CC80838802040040021104319436A
:10321000404A03C2083AA320C00005F08DFE2000FA
:10322000C0B2002805D13A480078282801D00C20E7
:1032300004002800C0B200280FD036480CC8083857
:1032400000208021090410431943324A03C2083A7E
:10325000C620800005F070FE0EE02E480CC808382D
:10326000002080214904104319432A4A03C2083A26
:103270008320C00005F060FE26480CC808380020F6
:10328000C021490210431943224A03C2083A0720C9
:1032900005F052FE30E02800C0B200280FD01D48D3
:1032A0000CC8083800208021090410431943194A2A
:1032B00003C2083AC620800005F03EFE0EE0154825
:1032C0000CC8083800208021490410431943114AD2
:1032D00003C2083A8320C00005F02EFE0D480CC83A
:1032E00008380020C021490210431943094A03C28B
:1032F000083A072005F020FEF1BD0000094100203A
:103300005A0C00200D1A002019060000580C00204D
:10331000590C00207040002080B589480078801E3C
:103320000ED0801E01280BD9093809D0153807D0D6
:10333000801E032804D9C01F02D0133801280DD8DD
:1033400080480CC80838802000060021104319432B
:103350007C4A03C2083A7C4805F0EEFD78480078C4
:10336000093804D01B38032801D91B3810D17548FF
:103370000CC8083880208005002110431943714A89
:1033800003C2083A714805F0D7FD714805F0D4FD35
:103390006B4800780A3804D01A38032801D91B3842
:1033A0000FD168480CC80838002004211043194385
:1033B000644A03C2083A674805F0BEFD664805F056
:1033C000BBFD5F480078022809D0052807D00D28EA
:1033D00005D0222803D02B2801D03E2810D15948EF
:1033E0000CC808380020022110431943554A03C273
:1033F000083AFF202C3005F09FFD2B2005F09CFDA6
:103400004F480078801E0CD0801E012809D91E3834
:1034100007D0801E012804D9C01F02D0133801280C
:1034200010D84E4805F088FD46480CC808380020E2
:10343000012110431943434A03C2083AE320C00064
:1034400005F07AFD3E4800781138062802D90E387A
:10345000022811D83B480CC808388020C00300213E
:1034600010431943374A03C2083A162005F064FD99
:103470008B20400005F060FD31480078123808D0FC
:10348000801E06D00838012803D9001F01D0801EF5
:103490000DD12C480CC808388020C00200211043F0
:1034A0001943284A03C2083A0B2005F045FD244879
:1034B00000781B38012801D9C01E10D121480CC842
:1034C0000838802080030021104319431D4A03C29D
:1034D000083A234800680821014321480160184840
:1034E0000078132803D0152801D01F2826D11D48A5
:1034F0000078032811DB13480CC80838802000022C
:103500000021104319430F4A03C2083A14480068C7
:10351000022101431248016010E00A480CC8083833
:1035200080204002002110431943064A03C2083A92
:103530000B480068012101430948016001BD0000FA
:10354000590C0020704000202B0600002B040000C6
:103550002B0300002B0200001907000017060000D3
:10356000AC40002011410020F0B591B01C260E2780
:10357000924C3A003100200005F098FF0024002012
:103580000290FF208E49087000208E4908700020AC
:103590008D49087000258D480078FB2101408B483B
:1035A00001708B480078002800D1CEE0012801D1BD
:1035B00002F0F6FC022801D100F02CFC032801D116
:1035C00000F08CFC042801D100F046FF052801D151
:1035D00000F09CFF062801D103F0DEFC072800D193
:1035E000F0E2082801D102F0F7FE092800D11FE31C
:1035F0000A2800D15CE30B2800D1C1E30C2801D1DB
:1036000001F08CF80D2801D100F0BAFF0E2800D18E
:103610009FE00F2801D102F07AFA102801D102F0C0
:103620005BFB112801D101F0FAFC132801D101F054
:10363000B9FA152801D101F0C0F9162801D101F01D
:103640008AFE182801D102F08DFC1A2800D1B3E2BD
:103650001C2801D102F094FF1D2801D103F084F849
:103660001E2801D102F0FAFF1F2801D101F066FBEC
:10367000202801D101F080FC212801D102F050F86E
:10368000222801D100F0B2FD242801D100F0DCFD98
:10369000252801D100F0B0FE262801D100F0D6FF88
:1036A000272801D101F018F8282801D102F00EFED8
:1036B0002A2801D103F07AFD2B2800D1DEE32F2840
:1036C00001D103F011F9302801D103F09AFA322820
:1036D00001D103F039FB332801D103F08AFB3528EF
:1036E00001D103F0A0FB362801D103F0BDFB372840
:1036F00001D103F035FC382801D103F0BFFB392894
:1037000001D103F0FEFB3A2801D103F001FC3B2874
:1037100001D104F077F83C2801D104F0E1F83D280C
:1037200001D103F0B5FB3E2801D103F08DFE3F2807
:1037300001D103F069FF422801D103F0ADFD432818
:1037400001D103F027FE04F055FA0BF010FF04F04E
:1037500057FAC4480078002826D1C3480088029050
:10376000C2480078002802D1662014490871C04878
:103770000078002802D062201049487102980BF0AE
:1037800041FF039002980190BA4E039A01993000CC
:1037900005F0F2FD05200090B74EB84F009A3100B9
:1037A000380005F0E9FD05E2AE480078012811D1A6
:1037B000B34805F0ADFE0400FCE100BFAC3E0020C4
:1037C0001241002013410020144100200A41002032
:1037D000590C0020A3480078022800D0A1E1D54967
:1037E000087A4A7A1206120C104380B201280AD1D4
:1037F00001226E21052005F019FA0122642106201C
:1038000005F014FA84E1CB49087A4A7A1206120CC0
:10381000104380B202280AD101226121052005F05F
:1038200005FA01226C21062005F000FA70E1C14979
:10383000087A4A7A1206120C104380B203280AD181
:1038400001226321052005F0F1F901226E210620F5
:1038500005F0ECF95CE1B749087A4A7A1206120CD5
:10386000104380B204280AD101227321052005F0FB
:10387000DDF901226421062005F0D8F948E1AD49BF
:10388000087A4A7A1206120C104380B205280AD12F
:1038900001226E21052005F0C9F9012265210620CB
:1038A00005F0C4F934E1A349087A4A7A1206120CE9
:1038B000104380B206280AD101227621052005F0A6
:1038C000B5F901226521062005F0B0F920E19949FA
:1038D000087A4A7A1206120C104380B207280AD1DD
:1038E00001226221052005F0A1F9012268210620AC
:1038F00005F09CF90CE18F49087A4A7A1206120CFD
:10390000104380B209280AD101227321052005F055
:103910008DF901226321062005F088F9F8E0854938
:10392000087A4A7A1206120C104380B20F280AD184
:1039300001226C21052005F079F90122622106207F
:1039400005F074F9E4E07B49087A4A7A1206120C11
:10395000104380B210280AD101226321052005F00E
:1039600065F901226721062005F060F9D0E0714970
:10397000087A4A7A1206120C104380B211280AD132
:1039800001226721052005F051F90122612106205D
:1039900005F04CF9BCE06749087A4A7A1206120C25
:1039A000104380B212280AD101226C21052005F0B3
:1039B0003DF901226921062005F038F9A8E05D49AA
:1039C000087A4A7A1206120C104380B213280AD1E0
:1039D00001226521052005F029F901227421062024
:1039E00005F024F994E05349087A4A7A1206120C39
:1039F000104380B214280AD101226721052005F066
:103A000015F901226821062005F010F980E04949E6
:103A1000087A4A7A1206120C104380B2C9498842C9
:103A20000AD101226E21052005F000F9012263214F
:103A3000062005F0FBF86BE03E49087A4A7A120648
:103A4000120C104380B2C04988421BD1012273215D
:103A5000052005F0EBF801226121062005F0E6F8CB
:103A600056E000BF114100204C0C002020410020F6
:103A7000AC3B0020B23E00204C3D0200B53E002091
:103A8000181A00200620009000260AAF3200009984
:103A9000380005F00BFD2748017A427A1206120C15
:103AA0001143052289B20AA80BF060FE0AA800782B
:103AB000302805D001220AA80178022005F0B6F8C6
:103AC0000AA84078302805D001220AA841780320AE
:103AD00005F0ACF80AA88078302805D001220AA8A1
:103AE0008178042005F0A2F80AA8C078302805D013
:103AF00001220AA8C178052005F098F80AA80079E3
:103B0000302805D001220AA80179062005F08EF898
:103B1000B54908784A781206120C104380B20400A6
:103B200048E0B2480078032806D1024805F0F0FCCE
:103B300004003FE0141A0020AC480078052819D191
:103B4000AB480078AB490870AB480078AB490870C7
:103B5000AB480078AB4908700122AB48017830319E
:103B6000C9B2042005F062F8012005000120A74930
:103B700008701FE09D48007806280FD1A4480078FF
:103B8000A0490870CE4800789C490870CD4800785C
:103B90009849087002209D4908700BE0934800780E
:103BA000042807D1C84908784A781206120C104335
:103BB00080B2040004F024F8C44805F0A9FC040015
:103BC00004F01EF88948007800281ED0C04800780C
:103BD00088490870BF48007888490870BE48007856
:103BE000884908700122CB4801783031C9B20420DD
:103BF00005F01CF801200500012084490870C54823
:103C000000783030C449087110E0C4480078794920
:103C10000870C348007879490870C248007879492B
:103C200008700020050002207849087003F0E8FFC2
:103C3000BD480CC808380020802189011043194371
:103C4000B94A03C2083AB94800780C210143B74881
:103C50000170062005F070F901200500B4486349A1
:103C60000978042251434018B249401805F050FC2D
:103C70000400FA208000844201D2002004005B4846
:103C80000078002802D1ACA002900CE057480078E0
:103C9000012802D1A9A0029005E05448007802282A
:103CA00001D1A7A002902000FEF78AFB03F0A8FF35
:103CB000012005004D48007804280DD09C484B4950
:103CC0000978042251434018D249401805F020FCDD
:103CD0000A2104F054FF040044480078002802D16F
:103CE000CDA0029033E041480078012802D1CBA05A
:103CF00002902CE03D480078022802D1C8A0029032
:103D000025E03A48007803280BD1C6A00290200095
:103D10000A2104F034FF0400652C18D200200400AE
:103D200015E032480078042811D1BFA00290BF48A6
:103D30000068FA21C900884208D30A2104F01FFF55
:103D4000040004E03B570000F203000000242000C0
:103D5000FEF736FB74480CC8083800208021490162
:103D600010431943704A03C2083A70480078802112
:103D700001436E4801703C2005F0DEF803F040FF7F
:103D8000062005F0D9F80DF01DF8002108AA03C29D
:103D9000083A08A803C8C00705D50020002108AAD2
:103DA00003C2083A12E008A803C8800705D501201D
:103DB000002108AA03C2083A08E008A803C840077F
:103DC00004D50220002108AA03C2083A584A08A8CC
:103DD00003C8C0B2042148431018C749401805F071
:103DE00097FB040003F00CFF071A0020114100208C
:103DF000D415002012410020D515002013410020C9
:103E0000D615002014410020D71500200D410020B8
:103E1000D81500204648877DC17D0906090C0F434F
:103E2000B64805F075FB060008A80090BFB2380040
:103E30000021B34A00230DF03DFD3200002312188B
:103E40004B4100980CC0083808A803C8AD4A172396
:103E50000DF049FD0A2200230DF045FD30322E48B9
:103E60000271DD48006804210143DB480160012044
:103E7000050008A803C8040003F0C2FED74805F0F7
:103E800047FB00280BD4D6480078012807D1D54835
:103E9000007804210143D348017003F0B1FED248F9
:103EA00005F04AF801200500E34805F031FB040065
:103EB000C948006804210143C748016003F0A0FE1F
:103EC000D9150020DA15002085170020012F0020C9
:103ED0003C1900203D1900203E190020012005005A
:103EE000D648007800282DD10F480CC8083880200B
:103EF00040020021104319430B4A03C2083AB64856
:103F0000006801210143B4480160CD4805F000FB81
:103F1000040016E13F190020AC3E00203B190020B0
:103F20003A19002039190020704000201641002065
:103F3000D02B0020CD020000763100007632000048
:103F400076330000BD480078012871D1BD480CC807
:103F5000083880208003002110431943B94A03C266
:103F6000083A9D480068082101439B480160B54814
:103F70000CC8083880204002002110431943B14A80
:103F800003C2083A94480068012101439248016045
:103F9000E14805F0BDFAE14988421DD2A9480CC8A4
:103FA000083800208021490110431943A54A03C263
:103FB000083ADB48007880210143D94801703C2051
:103FC00004F0BAFFD44805F0A3FA0A2104F0D7FDA3
:103FD000FEF740FA0400B4E09A480CC80838002004
:103FE0008021890110431943964A03C2083ACC48FC
:103FF00000780C210143CA480170062004F09CFFA0
:10400000C54805F085FA642104F0B9FDFEF722FAEF
:10401000040096E0D9020000413100004132000066
:1040200041330000413400006E740000B0080020ED
:1040300082480078022815D182480CC808388020B0
:1040400000020021104319437E4A03C2083A624825
:1040500000680221014360480160D24805F058FA27
:1040600004006EE07548007803286AD175480CC8D2
:10407000083880208003002110431943714A03C28D
:10408000083A5548006808210143534801606D48CB
:104090000CC8083880200002002110431943694AE7
:1040A00003C2083A4C480068022101434A480160B3
:1040B000D04805F02DFA9949884225D261480CC8AC
:1040C0000838002080214901104319435D4A03C28A
:1040D000083A9348007880210143914801703C20C0
:1040E00004F02AFFC34805F013FA0A2104F047FD43
:1040F000FEF7B0F9040024E025030000E22B0020C5
:10410000FFC99A3BFFE776484E480CC808380020A4
:1041100080218901104319434A4A03C2083A804862
:1041200000780C2101437E480170062004F004FF52
:10413000B04805F0EDF9642104F021FDFEF78AF99D
:1041400004003E480078002803D03C48007802284C
:1041500040D13C480CC8083880200006002110439C
:104160001943384A03C2083ABA4804F0E5FE354814
:104170000CC808380020022110431943314A03C2F9
:10418000083AFF202C3004F0D7FE2B2004F0D4FE98
:104190002C480CC808380020012110431943294A33
:1041A00003C2083AE320C00004F0C6FE25480CC84C
:1041B000083800208021490110431943214A03C2D5
:1041C000083A5748007880210143554801703C2047
:1041D00004F0B2FE03F014FDAC40002028300020B3
:1041E000580C00200A41002019030000E148007823
:1041F0001249097888420AD112480CC80838802030
:1042000040020021104319430E4A03C2083ADA481B
:10421000006801210143D848016001200500D7480A
:10422000064909780422514340183F3005F070F9DF
:10423000040003F0E5FC00BF9018002011410020AD
:104240008F2F002070400020DE480CC808388020E6
:10425000C005002110431943DA4A03C2083AFF207F
:104260002C3004F069FED8480078002835D1D748B2
:10427000077841780906090C0F43D54805F048F93D
:10428000060008A80090BFB238000021D14A0023E0
:104290000DF010FB3200002312184B4100980CC0A7
:1042A00008380122160008A803C8CB4A17230DF0CE
:1042B0001AFB0A2200230DF016FB303211003200E7
:1042C000C9B2052004F0B2FC0120050008A803C80B
:1042D000FA2189004843040089E0BB48007801289E
:1042E00020D101200500B7480CC8083880204002C2
:1042F000002110431943B34A03C2083A9E4800689C
:10430000012101439C480160B44805F001F9FA21FC
:104310008900484304006AE0F02F002000CA9A3B5D
:1043200016410020A8480078022817D10120050076
:10433000A4480CC80838802000020021104319430B
:10434000A04A03C2083A8C480068022101438A4807
:104350000160DC4805F0DCF8040048E09A48007889
:10436000032821D101200500D74805F0D1F8060027
:10437000D64805F0CDF80700D54805F0C9F8F11981
:104380000E18D44805F0C4F80700DF4805F0C0F85F
:104390000090DE4805F0BCF800997918081830182C
:1043A000040024E0B72F00208748007804281ED19D
:1043B00001200500D64805F0ABF80600D54805F009
:1043C000A7F80700D44805F0A3F8F1190E18DE4845
:1043D00005F09EF80700DD4805F09AF80090DC48EB
:1043E00005F096F80099791808183018040003F0C1
:1043F00007FC00BF18300020D6480778417809062E
:10440000090C0F43D44805F083F8060008A8009073
:10441000BFB2380000216F4A00230DF04BFA320082
:10442000002312184B4100980CC0083808A803C894
:10443000694A17230DF057FA0A2200230DF053FAA8
:104440003032C64802710120050008A803C80400E4
:1044500003F0D6FB2B060000012005005A48007827
:1044600000281AD157480CC80838002002211043F0
:104470001943544A03C2083AFF202C3004F05CFD73
:104480002B2004F059FDD64805F042F83A49096856
:1044900004220A4338490A6032E04A480CC8083806
:1044A00080208005002110431943464A03C2083A80
:1044B000CC4804F041FDCC4804F03EFD41480CC816
:1044C000083800200421104319433E4A03C2083A29
:1044D000C64804F031FDC64804F02EFD39480CC82A
:1044E00008388020C005002110431943354A03C213
:1044F000083AFF202C3004F01FFDBE4805F008F8F4
:104500000400FA208000444303F07AFBDA4807787D
:1045100041780906090C0F43D84804F0F9FF06005A
:1045200008A80090BFB2380000212A4A00230DF0ED
:10453000C1F93200002312184B4100980CC0083812
:1045400008A803C8244A17230DF0CDF90A22002336
:104550000DF0C9F93032814802710120050008A828
:1045600003C80400044800680421014302480160B4
:1045700003F046FBE72F0020AC400020802F0020F6
:1045800010480CC808380020802149011043194305
:104590000C4A03C2083ABA48007880210143B8485F
:1045A00001703C2004F0C8FC01200500064800789A
:1045B000032815D1B34804F0ABFF0A2104F0DFFA59
:1045C000040018E07040002011410020FE2B002064
:1045D000FA2B0020FFC99A3BFFE776480519002017
:1045E000A948AA490978042251434018A84940180B
:1045F00004F08EFF0400702069460877A348007815
:10460000002803D1312007A9487012E09F480078A4
:10461000012803D1322007A948700AE09B4800789E
:10462000022803D1332007A9487002E0202007A9FF
:104630004870002007A988700122052107A8FDF70E
:1046400031FF2000FDF7BCFE03F0DAFA91480CC8F8
:104650000838002080214901104319438D4A03C2C4
:10466000083A8748007880210143854801703C2042
:1046700004F062FC87480CC808388020C00500217F
:1046800010431943834A03C2083AFF202C3004F038
:1046900053FC012005007D480078032804D1D1484F
:1046A00004F036FF04000AE07748784909780422CC
:1046B00051434018CC49401804F02AFF040003F08D
:1046C0009FFA00BF09190020962C00209C2C002086
:1046D000A22C0020BA2C0020012005006B48007895
:1046E000032804D1C14804F013FF04000AE066481F
:1046F00066490978042251434018D349401804F010
:1047000007FF040003F07CFAC02C0020C62C002018
:10471000A82C0020AE2C0020B42C0020CB4804F0A4
:104720000BFC0120CA490870012005005748007899
:104730000028022800D8E2E0C01E00D1ACE0401EF4
:104740000ED0401E58D032E1CC2C0020D22C0020BC
:10475000D82C0020162C0020122C0020AC3E00206B
:104760004C480CC8083880204002002110431943EF
:10477000484A03C2083AB748006801210143B548D6
:10478000016044480CC80838002080210906104305
:104790001943404A03C2083A8620800004F0CCFB4B
:1047A000AD4800787F2819D03A480CC80838002056
:1047B0008021490110431943364A03C2083A304860
:1047C0000078802101432E4801703C2004F0B4FBA6
:1047D000A148007840B2FDF73DFE0400E7E000BFCD
:1047E0002A2C00202B0400002B0300002B020000C9
:1047F00019070000422C002026480CC808388020E9
:104800000002002110431943224A03C2083A91488A
:104810000068022101438F4801601E480CC8083817
:10482000002080210906104319431A4A03C2083A9E
:104830008620800004F080FBD74800787F2819D0BC
:1048400014480CC80838002080214901104319433E
:10485000104A03C2083A0A480078802101430848F8
:1048600001703C2004F068FBCB48007840B2FDF7B3
:10487000F1FD04009BE000BF4C2C0020482C0020E0
:1048800016410020D12E0020D02B00201141002005
:10489000F502000070400020544804F039FE002862
:1048A0002CD0BE4804F034FE0600504804F030FE20
:1048B000070030000A2104F062F9390004F05FF9C2
:1048C0000600652E01D364200600300040B2FDF7DB
:1048D000C1FD0400B2480CC80838002080214901FD
:1048E00010431943AE4A03C2083AD34800788021E6
:1048F0000143D14801703C2004F01EFB57E07020BA
:1049000069460870662069464870CC4800780028DF
:1049100003D131206946887012E0C8480078012828
:1049200003D13220694688700AE0C4480078022822
:1049300003D133206946887002E0202069468870E0
:1049400000206946C870012204216846FDF7AAFDCF
:10495000BB48BA490978042251434018B949401864
:1049600004F0D6FD7F2821D08D480CC808380020DF
:104970008021490110431943894A03C2083AAE48CD
:10498000007880210143AC4801703C2004F0D4FA47
:10499000AB48AA490978042251434018A949401854
:1049A00004F0B6FD40B2FDF755FD0400FFE7652CAD
:1049B00001D36420040003F023F9A0480078002804
:1049C00016D0022856D049D3042800D18FE063D3F3
:1049D000062800D1A9E000D295E0072800D1BFE069
:1049E000D8E000BFE12E002005030000F12E0020DA
:1049F0006B480CC808380020042110431943684A4A
:104A000003C2083AD64804F097FAD64804F094FA5C
:104A1000D54804F07DFD040061480CC8083800202A
:104A200080214901104319435D4A03C2083A824874
:104A3000007880210143804801703C2004F07CFA1A
:104A400001200500A6E000BF1503000017070000C5
:104A50000E410020AC400020072F0020C348007802
:104A6000C3490870C3480078C34908700220C3498D
:104A700008708FE0C2480078BD490870C1480078CE
:104A8000BD490870C0480078C04908700120050081
:104A90000120BA4908707DE041480CC80838002060
:104AA0000421104319433E4A03C2083AAC4804F0BB
:104AB00043FAAC4804F040FADA4804F029FD040057
:104AC00037480CC808380020802149011043194399
:104AD000334A03C2083A58480078802101435648B7
:104AE00001703C2004F028FA0120050052E0D4486F
:104AF00000789F490870D34800789F4908700220C9
:104B00009E49087046E0D048007899490870CF481F
:104B1000007899490870CE4800789C4908700120B7
:104B2000050001209549087034E01D480CC808387C
:104B300000208021490110431943194A03C2083A51
:104B40003D480078802101433B4801703C2004F03F
:104B5000F3F901200500BF4804F0DAFC040019E075
:104B60000F480CC808380020802149011043194320
:104B70000B4A03C2083A30480078802101432E488E
:104B800001703C2004F0D8F901200500B24804F07F
:104B9000BFFC040003F034F8082F0020D12E0020C1
:104BA000704000202548007800280AD0022857D0FD
:104BB0004AD3042800D19FE064D3052800D1A7E0A0
:104BC000B7E0A6480CC80838802000060021104332
:104BD0001943A24A03C2083ADF4804F0ADF99F48DE
:104BE0000CC8083800200221104319439B4A03C215
:104BF000083AFF202C3004F09FF92B2004F09CF998
:104C0000D64804F085FC040094480CC808380020FD
:104C10008021490110431943904A03C2083A0648CB
:104C2000007880210143044801703C2004F084F99D
:104C3000012005007DE000BF164100201141002049
:104C4000D02B0020E9020000C548007848490870D0
:104C5000C44800784849087002204849087068E054
:104C6000C148007842490870C0480078424908703D
:104C7000BF480078454908700120050001203F49E0
:104C8000087056E075480CC80838802000060021DE
:104C900010431943714A03C2083AAF4804F04CF973
:104CA0006E480CC8083800200221104319436B4A93
:104CB00003C2083AFF202C3004F03EF92B2004F008
:104CC0003BF9AC4804F024FC040064480CC80838E4
:104CD00000208021490110431943604A03C2083A69
:104CE000DC48007880210143DA4801703C2004F060
:104CF00023F9012005001CE0D74800781C49087002
:104D0000D64800781C49087002201C49087010E041
:104D1000D348007816490870D248007816490870C0
:104D2000D148007819490870012005000120134975
:104D30000870CE4804F000F902F062FFCC48007819
:104D4000002825D0022800D18AE06DD3042800D1A4
:104D5000E2E000D296E0052800D1E9E0F9E000BFEA
:104D60002B02000019070000C0300020C5300020D1
:104D700012410020C4300020134100200D410020CA
:104D8000C6300020C7300020C83000201441002069
:104D900032480CC80838802000060021104319430F
:104DA0002E4A03C2083A6C4804F0C6F82B480CC8D7
:104DB000083880208005002110431943274A03C288
:104DC000083AC24804F0B8F8C14804F0B5F82348DE
:104DD0000CC8083800200421104319431F4A03C29D
:104DE000083ABC4804F0A8F8BB4804F0A5F8BB4852
:104DF00004F08EFB040019480CC8083800208021FC
:104E0000490110431943154A03C2083A91480078F2
:104E1000802101438F4801703C2004F08DF801206F
:104E2000050096E0B7300020DA480078DA490870CB
:104E3000DA480078DA4908700220DA49087088E018
:104E4000BC300020BB300020BD300020BE30002030
:104E5000BF300020E7160020EB1600207040002035
:104E6000D1480078CC490870D0480078CC49087007
:104E7000CF480078CF490870012005000120C949BA
:104E8000087066E0CC480CC8083880200006002175
:104E900010431943C84A03C2083A2F4804F04CF89B
:104EA000C5480CC8083880208005002110431943EC
:104EB000C14A03C2083A854804F03EF8844804F029
:104EC0003BF8BD480CC808380020042110431943A2
:104ED000B94A03C2083A7F4804F02EF87E4804F02D
:104EE0002BF8D64804F014FB0400B3480CC808386B
:104EF00000208021490110431943AF4A03C2083AF8
:104F00005448007880210143524801703C2004F04D
:104F100013F8012005001CE0C94800789E4908707C
:104F2000C84800789E49087002209E49087010E029
:104F3000E348007898490870E2480078984908707A
:104F4000E14800789B49087001200500012095493F
:104F5000087002F055FE00BF2B0600004C30002008
:104F600051300020503000205230002053300020BB
:104F700054300020433000208F480CC808380020EF
:104F800080214901104319438B4A03C2083A314832
:104F90000078802101432F4801703C2003F0CCFFB2
:104FA0000120050084480CC8083880200006002134
:104FB00010431943804A03C2083AC44803F0BCFFB7
:104FC0007D480CC808388020800500211043194313
:104FD000794A03C2083A3D4803F0AEFF3C4803F06B
:104FE000ABFF75480CC80838002004211043194352
:104FF000714A03C2083A374803F09EFF364803F06F
:105000009BFFB3481A490978042251434018FF21F5
:105010001031401804F07CFA040002F0F1FD14484D
:105020000078002826D001285AD0022864D004280D
:1050300074D0052800D1C1E0062800D1DBE00728A4
:1050400000D101E1082800D144E1092800D15EE146
:105050007FE100BF1641002048300020473000208B
:10506000493000204A3000204B3000201706000055
:105070001141002050480CC808380020042110437A
:1050800019434D4A03C2083A124803F055FF12482B
:1050900003F052FF01200500DB4804F039FA040058
:1050A00045480CC8083800208021490110431943A5
:1050B000414A03C2083AD548007880210143D348C9
:1050C00001703C2003F038FF43E100BF2B040000D7
:1050D0002B0300002B02000019070000863000207F
:1050E000CB4800782C490870CA4800782C490870D1
:1050F00002202C4908702CE1DB4800782649087012
:10510000DA48007826490870D9480078294908709B
:10511000012005000120234908701AE126480CC827
:1051200008380020042110431943234A03C2083AD7
:10513000D04803F001FFD04803F0FEFE1E480CC823
:105140000838002080214901104319431A4A03C23C
:10515000083AAE48007880210143AC4801703C20F9
:1051600003F0EAFE14480CC80838802040020021F1
:1051700010431943104A03C2083AC048006801218D
:105180000143BE48016001200500BD4804F0C0F99C
:105190000400DEE08B300020124100208A30002025
:1051A000134100200D4100208C3000208D30002064
:1051B0008E3000201441002070400020D7480CC8D9
:1051C000083880204002002110431943D34A03C20B
:1051D000083AAA48006801210143A8480160D04864
:1051E0000078D0490870D0480078D0490870022073
:1051F000CF490870ADE0C9480CC80838802040028B
:10520000002110431943C54A03C2083A9B4800686D
:105210000121014399480160C6480078C1490870DE
:10522000C5480078C1490870C4480078C44908706E
:10523000012005000120BE4908708AE07D30002071
:105240008230002081300020B4480CC8083800208B
:10525000042110431943B14A03C2083A854803F0B8
:105260006BFE854803F068FEAC480CC80838002087
:105270008021490110431943A84A03C2083A6348F0
:10528000007880210143614801703C2003F054FE06
:10529000A2480CC80838802000020021104319439E
:1052A0009E4A03C2083A75480068022101437348C8
:1052B000016001200500A34804F02AF9040048E039
:1052C0008330002084300020853000202B06000031
:1052D000802F002091480CC808388020000200214F
:1052E000104319438D4A03C2083A644800680221FA
:1052F000014362480160DA4800788A490870D94859
:1053000000788A49087002208949087021E08348A2
:105310000CC80838802000020021104319437F4A3E
:1053200003C2083A5548006802210143534801600E
:10533000DC4800787B490870DB4800787B490870BE
:10534000DA4800787E49087001200500012078497C
:10535000087002F055FCD6480078002814D00228C6
:1053600066D059D3042800D18CE073D3062800D12D
:1053700007E100D2E8E0082800D175E100D223E17E
:10538000092800D196E1B7E164480CC808388020AC
:105390000006002110431943604A03C2083AD94865
:1053A00003F0CAFD5D480CC80838002002211043F4
:1053B00019435A4A03C2083AFF202C3003F0BCFDBF
:1053C0002B2003F0B9FD55480CC808380020802177
:1053D000490110431943514A03C2083A0B48007867
:1053E00080210143094801703C2003F0A5FD012004
:1053F0000500C54804F08CF804002048006804212A
:1054000001431E48016077E1402E00201641002034
:10541000452E0020442E0020BC48007841490870E9
:10542000BB4800784149087002204149087063E197
:10543000B84800783B490870B74800783B49087085
:10544000B64800783E49087001200500012038491F
:10545000087051E1E44908784A781206120C1043AA
:1054600080B2040048E100BF462E0020472E0020F5
:10547000482E00202B02000019070000AC4000203D
:10548000612E002025480CC8083880200006002125
:1054900010431943214A03C2083A9A4803F04CFDCD
:1054A0001E480CC8083800200221104319431B4A2B
:1054B00003C2083AFF202C3003F03EFD2B2003F0FE
:1054C0003BFD16480CC808380020802149011043D4
:1054D0001943124A03C2083AD84800788021014390
:1054E000D64801703C2003F027FD0C480CC8083852
:1054F00080204002002110431943084A03C2083AA1
:10550000CF48006801210143CD480160012005001A
:10551000CC4803F0FDFF0400EEE000BF7040002027
:10552000662E002012410020652E0020134100202D
:105530000D410020672E0020682E0020692E0020DB
:1055400014410020822E0020BF480CC8083880205B
:105550004002002110431943BB4A03C2083AB8482D
:10556000006801210143B6480160B8480078B84995
:105570000870B8480078B84908700220B749087028
:10558000BAE0B1480CC8083880204002002110431E
:105590001943AD4A03C2083AA948006801210143F2
:1055A000A7480160DC480078A9490870DB4800780A
:1055B000A9490870DA480078DA4908700120050026
:1055C0000120A649087097E09F480CC80838802041
:1055D00000060021104319439B4A03C2083A494878
:1055E00003F0AAFC98480CC8083800200221104398
:1055F0001943954A03C2083AFF202C3003F09CFC63
:105600002B2003F099FC90480CC80838002080211A
:105610004901104319438C4A03C2083A874800786D
:1056200080210143854801703C2003F085FC8648B9
:105630000CC8083880200002002110431943824A18
:1056400003C2083A7E480068022101437C48016099
:1056500001200500B44803F05BFF04004CE000BFEC
:10566000872E0020862E002077480CC8083880201E
:105670000002002110431943734A03C2083A7048DC
:105680000068022101436E480160A8480078704913
:105690000870A74800787049087002206F490870A8
:1056A0002AE000BF882E0020892E00208A2E0020AC
:1056B0001141002064480CC80838802000020021F5
:1056C00010431943604A03C2083A5D48006802214A
:1056D00001435B480160974800785D49087096482F
:1056E00000785D490870954800788E49087001205F
:1056F0000500012059490870DF4803F01DFC02F045
:105700007FFA00BF2B0600002A2E00202F2E00203B
:105710002E2E0020302E0020312E0020322E002090
:10572000D6480078002814D002286BD05ED3042815
:1057300000D195E078D3062800D11EE100D2FFE029
:10574000082800D1A2E100D23AE1092800D1BAE14B
:10575000DBE13D480CC808388020000600211043DA
:105760001943394A03C2083AC54803F0E5FB3648F5
:105770000CC8083880208005002110431943324AA4
:1057800003C2083ABF4803F0D7FBBF4803F0D4FB7D
:105790002D480CC8083800200421104319432A4A18
:1057A00003C2083AE04803F0C7FBE04803F0C4FB3B
:1057B00025480CC8083800208021490110431943AE
:1057C000214A03C2083A1D480078802101431B4842
:1057D00001703C2003F0B0FB01200500D44803F029
:1057E00097FE040091E100BF332E0020D1480078DD
:1057F00017490870D04800781749087002201749E7
:10580000087082E1CD48007811490870CC480078D2
:1058100011490870CB4800784249087001200F49AF
:1058200008700120050070E1C74908784A7812061F
:10583000120C104380B2040067E100BF1641002043
:10584000AC4000204B2E002070400020502E002045
:10585000124100204F2E0020134100200D41002056
:10586000E4480CC808388020000600211043194382
:10587000E04A03C2083A824803F05EFBDD480CC8E8
:10588000083880208005002110431943D94A03C2FB
:10589000083A7C4803F050FB7B4803F04DFBD548A9
:1058A0000CC808380020042110431943D14A03C210
:1058B000083A9D4803F040FB9C4803F03DFBCD486F
:1058C0000CC8083880204002002110431943C94AFF
:1058D00003C2083ADF48006801210143DD48016046
:1058E000C4480CC8083800208021490110431943DE
:1058F000C04A03C2083AD848007880210143D648FC
:1059000001703C2003F018FB01200500D34803F090
:10591000FFFD0400F9E000BF512E0020522E0020B0
:10592000532E0020144100206C2E0020712E0020E8
:10593000702E0020722E0020732E0020742E002066
:10594000AC480CC80838802040020021104319439D
:10595000A84A03C2083ABF48006801210143BD4874
:105960000160D4480078D4490870D4480078D449FC
:1059700008700220D3490870C7E09E480CC8083858
:10598000802040020021104319439A4A03C2083A7A
:10599000B048006801210143AE480160CA48007860
:1059A000C5490870C9480078C5490870C8480078DA
:1059B000C8490870012005000120C2490870A4E010
:1059C0008C480CC808388020000600211043194379
:1059D000884A03C2083A2A4803F0AEFA85480CC840
:1059E000083880208005002110431943814A03C2F2
:1059F000083A244803F0A0FA234803F09DFA7D48B2
:105A00000CC808380020042110431943794A03C206
:105A1000083A454803F090FA444803F08DFA754877
:105A20000CC8083800208021490110431943714AED
:105A300003C2083A884800788021014386480170F3
:105A40003C2003F079FA6B480CC80838802000022B
:105A5000002110431943674A03C2083A7D48006891
:105A6000022101437B48016001200500C84803F082
:105A70004FFD040049E000BF17060000114100205F
:105A80002B0600002B0400002B03000059480CC813
:105A9000083880200002002110431943554A03C2F0
:105AA000083A6C480068022101436A480160B9481D
:105AB000007881490870B848007881490870022050
:105AC0008049087021E04B480CC80838802000024B
:105AD000002110431943474A03C2083A5D48006851
:105AE000022101435B480160C84800787249087090
:105AF000C748007872490870C64800787549087030
:105B00000120704908700120050002F079F8C248B0
:105B1000007800281AD1C14908784A781206120C78
:105B2000104380B20400C3E02B02000019070000FC
:105B3000352E00203A2E0020392E00203B2E00204A
:105B40003C2E00203D2E00203E2E0020B448007E3A
:105B5000002801D102F064F8AF480078012800D095
:105B60007EE0B048AE49097E405C04000A2C58D063
:105B70009D2C47D0162C3FD0B42C38D065206946D8
:105B80000874722004A94870722004A9887020202B
:105B900004A9C87020000A2102F0F1FF0A2102F0D6
:105BA000EEFF303004A9087120000A2102F0E7FF5F
:105BB0000A2102F0E4FF303104A84171002004A959
:105BC000887120000A2102F0DAFF002909D02E2076
:105BD00004A9887120000A2102F0D1FF303104A805
:105BE000C171002004A9087204A802900FE0C948FE
:105BF00002900CE070400020C7480290082003F09B
:105C00009BF904E0C5480290082003F095F90926A5
:105C100002980090C94F32000099380003F0ACFBA5
:105C200046E0C7480078002809D00A48006880216B
:105C30008901014307480160C848029038E00548DF
:105C4000006880214901014302480160C448029074
:105C50002EE000BFAC40002016410020562E002050
:105C60006D480078022811D16D48C07E1249087035
:105C70006B48007F124908706948407F15490870D9
:105C80000120050001200F49087011E062480078EA
:105C900003280DD16248807E074908706048407E25
:105CA0000749087000200B49087002200549087058
:105CB00001F0A6FF5B2E0020124100205A2E00208A
:105CC000134100200D4100205C2E00205D2E00209D
:105CD0005E2E00201441002000270EA80021002283
:105CE00006C008380020694608730020040006201A
:105CF0001090AA4801900EA80090109A019900985F
:105D000003F03AFB0098C648C07D0100C907C90FDF
:105D10000EA881716846C349097C0173C2480078A6
:105D200004280DDAC0480078002809D0BF4803F0E5
:105D3000EFFB002804D56846BA49097C491E017367
:105D40006846007B34490978884202D2B8480290FC
:105D500001E1314800786946097B88420AD1B2489E
:105D60000078042806DAB0480078002802D0B42071
:105D700004005CE0AD4803F0CBFB00280ED52648BC
:105D80000078A849097C884208D1BE2004004EE072
:105D9000772E00207C2E00207B2E00200020060085
:105DA0003000C0B2302842DAA2483100C9B2405CAB
:105DB00000283CD09F483100C9B2405C401E0821F9
:105DC00002F0DAFE0EA9095C0191012000909948C9
:105DD0003100C9B2405C401E082102F0CDFE00989F
:105DE00088400199014220D00E4892493200D2B237
:105DF000895C4018401E0078040038000649097884
:105E0000C0B2884210D10020070010E07D2E002093
:105E10007E2E00207F2E002011410020051A002038
:105E200050180020703B02007F1C761CB8E7002C45
:105E300002D1C54802908EE0332C0AD1C34803F04A
:105E400067FB002805D0C2488079002801D03220A5
:105E500004000A2C64D09D2C4AD0162C42D0B42CBD
:105E60003DD0BE2C38D0652069460874722004A944
:105E70004870722004A98870202004A9C8702000EE
:105E80000A2102F07CFE0A2102F079FE303004A9DA
:105E9000087120000A2102F072FE0A2102F06FFE52
:105EA000303104A84171002004A9887120000A2122
:105EB00002F065FE002909D02E2004A98871200077
:105EC0000A2102F05CFE303104A8C171002004A94F
:105ED000087204A8029010E0C94802900DE00D4835
:105EE00002900AE00C480290082003F025F804E034
:105EF0000A480290082003F01FF809201090029829
:105F000001900E480090109A0199009803F034FA1D
:105F1000009820E0B43C0200C03C0200CC3C0200EF
:105F20000748007800280DD0B64800688021890114
:105F30000143B4480160094802900CE0B23E0020E1
:105F4000E0160020AF480068802149010143AD48B8
:105F500001600348029001F053FE00BF543D02006F
:105F6000D83C0200D648007802280ED13C2002F02E
:105F7000E3FFD44800880400D3A00290012005006C
:105F80002000FCF71DFA01F03BFEE04800780421F8
:105F90000143DE48017001F033FE00BF091A002002
:105FA000C748007807280ED0C548007804280AD0D2
:105FB000D7480CC80838802000030021104319433B
:105FC000D34A03C2083AD34802F0B6FF01200500C5
:105FD000BB480078002846D1CD480CC8083880203E
:105FE0008003002110431943C94A03C2083A854877
:105FF000006808210143834801608C20400002F0C2
:106000009BFF0A4803F084FA002815D4074803F0E0
:106010007FFAFCF71FFA0A21484304004DE100BF54
:10602000D0190020703C00200F19002028300020DB
:10603000E43C0200A43B0200B5480CC8083800202C
:106040008021490110431943B14A03C2083AE0488C
:10605000007880210143DE4801703C2002F06CFF93
:106060000020040029E19648007801284FD1A84873
:106070000CC8083880200006002110431943A44AA8
:1060800003C2083AD34802F057FFA1480CC80838A9
:1060900000200221104319439D4A03C2083AFF2001
:1060A0002C3002F049FF2B2002F046FF98480CC824
:1060B00008380020012110431943954A03C2083AC9
:1060C000E320C00002F038FF91480CC808380020D7
:1060D00080214901104319438D4A03C2083ABC4844
:1060E000007880210143BA4801703C2002F024FF6F
:1060F0008C20400002F020FFD84803F009FA040089
:1061000040480068042101433E480160D5E06C48E6
:10611000007802281ED17E480CC808388020400331
:106120000021104319437A4A03C2083ACC4802F0CE
:1061300003FFCC4908784A781206120C104380B24B
:10614000040000200500B8E05C3D0200C3180020F8
:106150007C0800205A480078032815D16C480CC8E8
:10616000083880208003002110431943684A03C285
:10617000083A244800680821014322480160BA48CF
:1061800003F0C6F9040098E04D48007804283BD19C
:106190000DF0B6FF0400202069460874202004A9F1
:1061A0004870202004A98870202004A9C87020000D
:1061B000303004A90871002004A9487154480CC863
:1061C00008388020C002002110431943504A03C2FE
:1061D000083A0B2002F0B0FE4D480CC80838802069
:1061E0004002002110431943494A03C2083A0548B6
:1061F0000068012101430348016004A802905CE0AB
:10620000643D0200AC4000202D480078072854D19E
:10621000D84803F07DF900282ED53D480CC8083831
:1062200080208003002110431943394A03C2083AF1
:10623000D148006808210143CF480160CF4802F0EF
:106240007BFE33480CC808380020802149011043E8
:1062500019432F4A03C2083A5D4800788021014360
:106260005B4801703C2002F067FEC24803F050F921
:10627000FCF7F0F8040020E000200400D948007882
:10628000012806D121480078042101431F480170EC
:1062900013E01F480CC808388020800300211043F9
:1062A00019431B4A03C2083AB34800680821014356
:1062B000B1480160B14802F03FFE01F0A1FC00BF0F
:1062C000114100209E40002062617400DB4800788C
:1062D000002821D0DA4803F01BF93C2102F04FFCE2
:1062E000D8490870D64803F013F93C2102F047FC66
:1062F000481ED54908703B20D4490978401AD44932
:1063000008700220D34908705FE000BF0A410020F6
:10631000704000201A020000CF480CC808388020C6
:106320000006002110431943CB4A03C2083A29480A
:1063300002F002FEC8480CC80838002002211043B1
:106340001943C54A03C2083AFF202C3002F0F4FD7D
:106350002B2002F0F1FDC0480CC8083800200121B4
:1063600010431943BC4A03C2083AE320C00002F0BC
:10637000E3FDB34803F0CCF80021C943884201D1C2
:1063800001F04EFCB4480CC80838002080214901B7
:1063900010431943B04A03C2083A0D4800788021DF
:1063A00001430B4801703C2002F0C6FD01200500AE
:1063B000A34803F0ADF80A2102F0E1FB04006E48A7
:1063C0000068042101436C48016001F019FC00BF22
:1063D000164100202B060000DC480078002808D079
:1063E000032820D0062841D0072859D008286CD08F
:1063F000BDE099480CC80838802080030021104374
:106400001943954A03C2083A5B48006808210143D2
:1064100059480160CE4908784A781206120C104398
:1064200080B20400A3E08C480CC8083880208003A8
:10643000002110431943884A03C2083A4E480068B5
:10644000082101434C480160C24908784A78120685
:10645000120C104380B2040089E000BF2C300020F1
:1064600017030000303000206F1800207A480CC855
:10647000083880208005002110431943764A03C262
:10648000083AB54802F058FDB44802F055FDB44949
:106490008878CA781206120C104380B2040066E0B5
:1064A0006D480CC80838802080050021104319432E
:1064B000694A03C2083AA84802F03EFDA74802F024
:1064C0003BFDA7480079040051E0A64803F020F8FE
:1064D000002839D060480CC8083880200006002108
:1064E000104319435C4A03C2083ADE4802F024FD17
:1064F00059480CC808380020022110431943564A55
:1065000003C2083AFF202C3002F016FD2B2002F0C7
:1065100013FD51480CC80838002080214901104360
:1065200019434D4A03C2083ACF48007880210143FD
:10653000CD4801703C2002F0FFFC01200500894895
:1065400002F0E6FF040012E043480CC808380020BF
:10655000042110431943404A03C2083AC34802F0D9
:10656000EBFCC34802F0E8FC7D484079040001F0F0
:1065700047FB00BF28300020AC400020190300007A
:10658000BC4800780A2102F0F7FA3031BA480171AC
:106590000120050030480CC808380020802109017E
:1065A000104319432C4A03C2083AAF4800784021EF
:1065B0000143AD480170392002F0BEFC0BF0A0FF92
:1065C000800711D51D48007801280DD1AB485F49DF
:1065D0000978042251434018773002F099FF0600F1
:1065E0000CE000BF580C0020A54858490978042247
:1065F000514340186B3002F08BFF06000120E04948
:106600000870E04800785149097888420AD1124858
:106610000CC80838802040020021104319430E4A5C
:1066200003C2083A97480068012101439548016078
:1066300034000A20444301F0E3FA00BF3631002061
:10664000BB2F0020124100201341002039190020E7
:10665000144100200D410020704000200120050061
:106660003A480078002829D1D94802F051FF0400A7
:10667000D8480CC8083880208003002110431943F3
:10668000D44A03C2083A7F480068082101437D4884
:106690000160D0480CC8083800208021490110430F
:1066A0001943CC4A03C2083A6F480078802101435D
:1066B0006D4801703C2002F03FFC44E02348007824
:1066C000012829D1C44802F023FF0400C1480CC8A6
:1066D000083880208003002110431943BD4A03C2BB
:1066E000083A684800680821014366480160B948D3
:1066F0000CC8083800208021490110431943B54ACD
:1067000003C2083A58480078802101435648017076
:106710003C2002F011FC16E0DA4800780400AD4895
:106720000CC8083800208021490110431943A94AA8
:1067300003C2083A4C480078802101434A4801705E
:106740003C2002F0F9FB01F05BFA00BF1141002090
:106750002F310020313100202B0400002B030000DA
:106760007C080020C3180020424800780A2102F06B
:1067700003FA30314048017196480CC8083880202F
:106780000006002110431943924A03C2083A3548D3
:1067900002F0D2FB8F480CC80838002002211043B9
:1067A00019438C4A03C2083AFF202C3002F0C4FB84
:1067B0002B2002F0C1FB87480CC8083800200121BB
:1067C00010431943834A03C2083AE320C00002F091
:1067D000B3FB2B48CF490978042251434018473076
:1067E00002F096FE0400CC480078002802D0CA4887
:1067F000007800E00120C7490978401E814207D196
:10680000C64802901F480068802101431D4801606E
:10681000C0480078002845D0E14908784A78120637
:10682000120C10430121BB4A1278914080B20842F9
:1068300038D0B9480078002802D0B748007800E086
:106840000120B4490978401E81421DD0D5A0029094
:106850002000FBF7B5FD0B480068402101430948C3
:1068600001601FE02B060000164100202B020000F3
:106870001907000074180020AC3E002050180020BA
:10688000F4300020AC400020E3480290E348006868
:1068900040210143E1480160E04800688021014354
:1068A000DE480160012036490870DC480068042198
:1068B0000143DA48016033480078964909788842F4
:1068C0000AD144480CC808388020400200211043F7
:1068D0001943404A03C2083AD048006801210143E5
:1068E000CE48016001F08CF9012025490870002094
:1068F000040088480078002870D136480CC8083851
:1069000080204002002110431943324A03C2083A52
:10691000C248006801210143C04801602D480CC8ED
:10692000083880200006002110431943294A03C279
:10693000083ABB4802F000FB26480CC80838002083
:10694000022110431943234A03C2083AFF202C3086
:1069500002F0F2FA2B2002F0EFFA1E480CC80838B9
:1069600000200121104319431A4A03C2083AE320C8
:10697000C00002F0E1FA01200500D94804E000BFA0
:106980000C410020E72F002002F0C2FD0A214843FD
:10699000040010480CC80838002080214901104329
:1069A00019430C4A03C2083AE248007880210143A7
:1069B000E04801703C2002F0BFFADF4802F0BCFA68
:1069C00096480068042101439448016017E100BF24
:1069D000AC31002070400020B03100204D480078DC
:1069E000012851D1D5480CC8083880204002002128
:1069F00010431943D14A03C2083A8848006801216C
:106A0000014386480160CD480CC8083880208003C7
:106A1000002110431943C94A03C2083A7F4800685D
:106A2000082101437D480160C4480CC80838802013
:106A30004002002110431943C04A03C2083A774874
:106A400000680121014375480160BC480CC8083842
:106A500000208021490110431943B84A03C2083A73
:106A6000B448007880210143B24801703C2002F014
:106A700063FA01200500B24802F04AFDFBF7EAFC88
:106A80000400BCE0B4310020AE480078002850D0AB
:106A9000AA480CC80838802000060021104319437A
:106AA000A64A03C2083A5E4802F046FAA3480CC858
:106AB00008380020022110431943A04A03C2083AB3
:106AC000FF202C3002F038FA2B2002F035FA9B48D8
:106AD0000CC808380020012110431943974A03C20B
:106AE000083AE320C00002F027FA934802F024FAA3
:106AF000DB4800680021C943884211D0D94800789A
:106B0000C0070DD4D64800680A214843040001207C
:106B1000050007E011410020353100206C3D0200E6
:106B2000002005003D480068042101433B48016006
:106B30003CE084480078002838D180480CC80838E8
:106B4000802080030021104319437C4A03C2083A85
:106B5000324800680821014330480160C04840685D
:106B60000021C94388421FD0BE480078C0071BD40B
:106B700072480CC80838002080214901104319438D
:106B80006E4A03C2083A6B48007880210143694885
:106B900001703C2002F0D0F90120050006E000BFA2
:106BA0007317002030202D00002005002800C0B2FF
:106BB000002813D10120D549087009200090202613
:106BC00004AF32000099380002F070FC2D2004A9B7
:106BD000C871002004A9087204A8029057480CC884
:106BE000083880200002002110431943534A03C291
:106BF000083A0A480068022101430848016000F091
:106C0000FFFFD548007801280CD1D44802F080FC61
:106C100004000120050030E0743D0200AC4000207B
:106C20002B060000CC48007802281CD143480CC831
:106C30000838002080214901104319433F4A03C20C
:106C4000083A3C480078802101433A4801703C20D2
:106C500002F072F9CC4802F05BFCFBF7FBFB04008E
:106C60000120050009E0BC480078032805D1C74889
:106C700002F04EFC040001200500B748007803280C
:106C800030D12E480CC8083880200006002110435F
:106C900019432A4A03C2083ABD4802F04DF9274871
:106CA0000CC808380020022110431943234A03C2AC
:106CB000083AFF202C3002F03FF92B2002F03CF97B
:106CC0001E480CC8083800200121104319431B4AF4
:106CD00003C2083AE320C00002F02EF927E000BF0B
:106CE0008F2F002015480CC8083880208003002111
:106CF00010431943114A03C2083AA6480068082104
:106D00000143A44801600D480CC8083800208021C8
:106D1000490110431943094A03C2083A054800785B
:106D200080210143034801703C2002F005F900F086
:106D300067FF00BF164100201706000070400020CA
:106D4000F02F00201B4100200120CD490870CD48C4
:106D5000807C400609D5CC4802908E48006880218E
:106D6000490201438B48016041E0C648C07DC0072D
:106D700027D5D5480CC80838802000211043194376
:106D8000D14A03C2083AD14800688021C9020143B0
:106D9000CE480160CE480290CB480CC8083800208D
:106DA0008021490510431943C74A03C2083ADD4808
:106DB00002F0C2F87748006820210143754801605D
:106DC00015E0D9480290C0480CC80838002080213E
:106DD000890510431943BC4A03C2083AD34802F05C
:106DE000ABF86C480068102101436A48016000F06C
:106DF00007FFCF48CF490978042251434018473054
:106E000002F086FB0400B0480CC808388020C0029D
:106E1000002110431943AC4A03C2083A0B2002F088
:106E20008BF800F0EDFE4C480078002803D195481F
:106E3000007B040012E048480078012803D1914803
:106E4000C07A04000AE044480078022803D18D4843
:106E5000807B040002E08B48407B040000F0D0FE01
:106E60001C3F0020013E0020C74908784A781206DE
:106E7000120C104380B2040000F0C2FEC349087A2D
:106E80004A7A1206120C104380B2040000F0B8FED9
:106E9000BF4908784A781206120C104380B2E126E6
:106EA000360146430027BB4802F032FB864204D33A
:106EB000B84802F02DFB301A07003800E121090123
:106EC00001F05DFEB44908703800E121090101F0CC
:106ED00056FE08003C2101F052FEB049087038000F
:106EE000E121090101F04BFE08003C2101F047FEC1
:106EF000AB480170002005000220AA49087000F08C
:106F00007FFEA9480078040000F07AFE0E410020C0
:106F1000D6480078C00717D5D5480078002809D092
:106F20001C4800688021890101431A480160D1484A
:106F300002900FE01748006880214901014315487D
:106F40000160CD48029005E0CC480078042101435F
:106F5000CA48017000F054FE11410020A91500201C
:106F6000C74800788C490870C64800788B4908707B
:106F7000C54800788A490870012005000120894928
:106F8000087000F03DFE00BFB2150020F41500208F
:106F90002B060000AC4000200126BC4800780028E9
:106FA00026D149480CC808388020400200211043EF
:106FB0001943454A03C2083AB54800680121014314
:106FC000B348016040480CC8083880208003002185
:106FD000104319433C4A03C2083AAD4800680821EF
:106FE0000143AB480160AB4802F092FA0400AAE00A
:106FF000A6480078012826D133480CC808388020DC
:1070000000020021104319432F4A03C2083AA04846
:107010000068022101439E4801602B480CC80838D3
:1070200080208003002110431943274A03C2083AF5
:10703000974800680821014395480160D14802F053
:1070400067FA04007FE09148007802281ED11E48AC
:107050000CC80838802080030021104319431A4AC5
:1070600003C2083A8A480068082101438848016041
:10707000C54802F04DFA0A214843040063E000BF0E
:107080000C410020D01900207C3D02007F48007890
:1070900003281FD10C480CC8083880208003002129
:1070A00010431943084A03C2083A79480068082186
:1070B000014377480160D64802F02AFA0A2101F01C
:1070C0005EFD04003FE000BF70400020A8400020AB
:1070D000843D02006D48007804282DD1CD49087800
:1070E0004A781206120C1043CB4A117853781B06CB
:1070F0001B0C1943C94B1A785D782D062D0C2A43B9
:10710000C74D2B786F783F063F0C3B4380B289B266
:10711000401892B280189BB2C018040000200600EC
:1071200011E000BF190600008C3D020019050000A7
:10713000F4300020E72F002054480078052802D1C1
:10714000B84800780400012550480078042819D078
:107150004E480078052815D0B3480CC808380020E0
:107160008021890110431943AF4A03C2083AAF484E
:1071700000780C210143AD480170062001F0DCFECF
:107180006420444300F03CFDF2150020141A002056
:10719000E8150020EE1500201241002013410020C8
:1071A000144100200D41002032160020A048007834
:1071B000002856D09F4800680021C943884250D01B
:1071C00099480CC808388020000600211043194354
:1071D000954A03C2083A984801F0AEFE92480CC89E
:1071E0000838802080050021104319438E4A03C2CD
:1071F000083A924801F0A0FE914801F09DFE8A48AD
:107200000CC808380020042110431943864A03C2E1
:10721000083ADE4801F090FEDD4801F08DFE82481C
:107220000CC808388020C0050021104319437E4A4D
:1072300003C2083AFF202C3001F07EFE7A480CC8C9
:1072400008380020012110431943774A03C2083A45
:10725000E320C00001F070FE7648006904000120C0
:1072600005000120CB49087000F0CAFC0B1A002071
:10727000E0160020543D0200D83C02000A410020E4
:10728000E3160020E4160020E5160020114100203E
:10729000AC40002020300020002663480CC808388D
:1072A000802000060021104319435F4A03C2083AB8
:1072B000614801F041FE5C480CC808388020800518
:1072C000002110431943584A03C2083A5B4801F0B1
:1072D00033FE5B4801F030FE53480CC808380020EC
:1072E000042110431943504A03C2083AA74801F049
:1072F00023FEA74801F020FE4B480CC80838802028
:10730000C005002110431943474A03C2083AFF2031
:107310002C3001F011FE44480CC80838002001212F
:1073200010431943404A03C2083AE320C00001F069
:1073300003FEBB480078002815D13B480CC808382C
:1073400080204002002110431943374A03C2083A03
:10735000B448006801210143B2480160B24802F01C
:10736000D7F8040014E0334800690021C94388427B
:107370000CD0AE480078C00708D42E48046901201C
:10738000050005E0243000201C30002000F048FCFF
:1073900000F036FC24480CC808388020C0030021C7
:1073A00010431943204A03C2083A162001F0C4FDD5
:1073B0008B20400001F0C0FD99480078002817D1CB
:1073C00019480CC808388020400200211043194396
:1073D000154A03C2083A93480068012101439148C5
:1073E0000160DE4802F094F80400012005002AE064
:1073F0001048C0680021C943884223D08B480078D8
:10740000C0071FD40B48C0680400012005001AE023
:10741000C6150020383000203630002034300020DF
:1074200032300020CD150020704000201641002091
:10743000184100201C3F00202B0600002B040000F8
:107440002B030000ECE3DBE375480078002806D04E
:10745000022868D035D3032800D19DE0CDE0E14873
:1074600002F056F80600E04802F052F80700DF4844
:1074700002F04EF8F11908180400DD480CC808386D
:107480000020802110431943D94A03C2083AD94841
:107490000068802149010143D6480160D4480CC8E6
:1074A000083800208021490010431943D04A03C204
:1074B000083AD04800688021C9000143CD480160E6
:1074C0009BE0CD4802F024F80600CC4802F020F8FA
:1074D0000700CB4802F01CF8F11908180400C44852
:1074E0000CC808380020402110431943C04A03C289
:1074F000083AC0480068802189010143BD48016005
:10750000BB480CC8083800208021490010431943AB
:10751000B74A03C2083AB74800688021C90001434E
:10752000B448016069E0E54801F0F2FF0600E44874
:1075300001F0EEFF0700E34801F0EAFFF119081837
:107540000400AB480CC80838002040211043194300
:10755000A74A03C2083AA74800688021890101436D
:10756000A4480160A2480CC8083800208021890086
:10757000104319439E4A03C2083A9E48006880217E
:10758000090101439B48016037E000BF2B02000066
:10759000190700000E410020CB4801F0B9FF06009A
:1075A000CA4801F0B5FF0700C94801F0B1FFF11961
:1075B000081804008E480CC80838002080211043A9
:1075C00019438B4A03C2083A8A480068802149015E
:1075D00001438848016086480CC808380020802193
:1075E000890010431943824A03C2083A814800685F
:1075F0008021090101437F4801600A480068042195
:10760000014308480160FBE20548007800280FD0DC
:10761000022871D03ED3032800D1A1E0D1E000BF01
:1076200011410020AC40002005190020013E00203F
:10763000A84801F06DFF0600A74801F069FF0700A8
:10764000A64801F065FFF1190818040068480CC845
:1076500008380020802110431943654A03C2083AC4
:107660006448006880214901014362480160604824
:107670000CC80838002080214900104319435C4A97
:1076800003C2083A5B4800688021C9000143594899
:10769000016096E0D74801F03BFF0600D64801F0B4
:1076A00037FF0700D54801F033FFF119081804002F
:1076B0004F480CC8083800204021104319434C4A59
:1076C00003C2083A4B4800688021890101434948B8
:1076D000016047480CC80838002080214900104349
:1076E0001943434A03C2083A424800688021C9004E
:1076F00001434048016064E0DC4801F009FF0600F6
:10770000DB4801F005FF0700DA4801F001FFF1193D
:107710000818040036480CC80838002040211043DF
:107720001943334A03C2083A32480068802189016C
:107730000143304801602E480CC8083800208021E1
:107740008900104319432A4A03C2083A29480068AD
:107750008021090101432748016032E04C300020BC
:10776000D74801F0D5FE0600D64801F0D1FE07004B
:10777000D54801F0CDFEF119081804001C480CC8CA
:1077800008380020802110431943194A03C2083ADF
:1077900018480068802149010143164801601448D7
:1077A0000CC8083800208021890010431943104A72
:1077B00003C2083A0F4800688021090101430D48BF
:1077C00001600B480CC808388020C0050021104318
:1077D0001943074A03C2083AFF202C3001F0ACFBE2
:1077E0000EE200BF4E2C0020542C00205A2C00200A
:1077F00070400020A8400020602C0020662C002053
:107800006C2C00200520009000260CAF320000995F
:10781000380001F04BFED748007B00284AD00CA965
:1078200036200FF0FDFE002844D0D3480078002811
:1078300020D0E5480CC808380020802109041043F6
:107840001943E14A03C2083AC620800001F074FBE4
:107850000CA88078E34908700CA8C078E249087049
:107860000CA80079E1490870012005000120E049D9
:10787000087021E0D4480CC8083800208021490451
:1078800010431943D04A03C2083A8320C00001F0D4
:1078900053FB0CA84078D34908700CA80078D24953
:1078A00008700020D1490870002005000220D0494E
:1078B000087001E0DB480290A2E100BF722C0020BA
:1078C000782C00207E2C0020842C00208A2C002084
:1078D000902C0020962C00209C2C0020A22C002014
:1078E000A5480078002830D1B7480CC80838802057
:1078F0000006002110431943B34A03C2083ACA489C
:1079000001F01AFBB0480CC80838002002211043CF
:107910001943AD4A03C2083AFF202C3001F00CFB9A
:107920002B2001F009FBA8480CC8083800200121D1
:1079300010431943A44A03C2083AE320C00001F0EF
:10794000FBFABA48007804004AE18B480078012825
:107950001AD1CA4801F0DCFD04009B480CC8083865
:1079600080208003002110431943974A03C2083A3C
:10797000C948006808210143C7480160012005008B
:10798000082001F0D9FA2BE17B480078022837D192
:107990008D480CC808388020000600211043194388
:1079A000894A03C2083AA04801F0C6FA86480CC8C2
:1079B00008380020022110431943834A03C2083AC1
:1079C000FF202C3001F0B8FA2B2001F0B5FA7E48E8
:1079D0000CC8083800200121104319437A4A03C219
:1079E000083AE320C00001F0A7FAAC480078040090
:1079F000F6E000BFA82C0020AE2C0020B42C002004
:107A00005D480078032837D16F480CC808388020BB
:107A100000060021104319436B4A03C2083A82480A
:107A200001F08AFA68480CC8083800200221104387
:107A30001943654A03C2083AFF202C3001F07CFA52
:107A40002B2001F079FA60480CC808380020012189
:107A5000104319435C4A03C2083AE320C00001F016
:107A60006BFA8F4800780400BAE000BFBA2C0020FF
:107A7000C02C0020C62C00203F480078042825D1C7
:107A8000884908784A781206120C104380B2040024
:107A90004D480CC80838802080030021104319434A
:107AA000494A03C2083A7C480068082101437A48E1
:107AB000016001200500082001F03EFA90E000BFBF
:107AC000CC2C0020D22C0020D82C00202A48007872
:107AD000052830D13C480CC8083880200006002119
