:10000000983B002069CD0100C1BE0100CBBE0100BC
:1000100000000000000000000000000000000000E0
:100020000000000000000000000000004BBF0100C5
:1000300000000000000000004DBF01004FBF0100A4
:1000400051BF010037C0010081C0010083C0010021
:1000500085C0010000000000A3C00100FBC001003A
:100060000FC101000000000023C101009DC101007B
:1000700015C20100000000001DC20100A3C2010062
:10008000CDC2010019C301001BC301001DC3010043
:100090001FC3010021C3010023C3010025C30100C8
:1000A00027C301000000000000000000F39C0000D6
:1000B0000000000000000000000000000000000040
:1000C0004D484E4902780A7042784A7082788A70A8
:1000D000C278CA7000790871704710B5474C606AE1
:1000E0002063A06A6063E06AA063210030311020C1
:1000F00004F0F8FE00206062A062E06210BDF8B576
:1001000006F038FB0024444E11E0200006F03FFAD0
:10011000A8420BD03A497118A20089180D00FA21A3
:10012000890006F0A8FB290006F0FCFB641C0025F2
:10013000ED43032CE9DB032006F029FA3749741854
:10014000A84205D0642106F096FB210006F0EAFBE8
:10015000200006F0F1FB192803D22100002006F050
:10016000E1FB00242BE0A000351825482F183800AB
:1001700006F0E2FB19281AD23900002006F0D2FB63
:1001800000202749705420482918002006F0CAFB97
:100190001C4829187F2006F0C5FB1C4829180020A0
:1001A00006F0C0FB1A482918002006F0BBFB20000F
:1001B00006F0DBF91749691806F0B4FB641C032C40
:1001C000D1DBF1BD10B5144C1648201800210A00EF
:1001D0000280418014482118104606F0A3FB134802
:1001E0002118002006F09EFB11482118002006F07F
:1001F00099FB10BD0000000086090020A00100202E
:10020000D9020000E9020000F50200001503000019
:100210000503000025030000181C0020E502000073
:1002200036030000620300009503000099030000FC
:1002300091030000FEB50027664C16E00020B08157
:1002400012E0312007F072FA607F042101436177E8
:10025000287869780906090C0843C94901402970C2
:10026000090A69700020B0817F1C022F00DDDAE2EC
:10027000C44879004118C44A8E185F328D18B900FD
:1002800040180290207F0100012902D0002800D0F0
:10029000BFE0607B002800D1BBE0BC48007839009B
:1002A000491C884248D108F081FF002844D00298B8
:1002B000B749401806F040FBFA21890006F0DBFA46
:1002C000617B884200D3A2E0287869780906090C8E
:1002D0000843C0070BD4287869780906090C08433D
:1002E000012101432970090A69700020308030889B
:1002F0001D2800DC8DE0A748C07DC00700D588E040
:10030000380002280BD80121002008F0E9FE022164
:10031000002008F0E5FE0321002008F0E1FE287827
:1003200069780906090C08439B4901402970090AAC
:100330006970002030806CE008F038FF002868D138
:1003400002989349401806F0F7FAFA21890006F05E
:1003500092FA617B88425AD3287869780906090C99
:100360000843C0070BD4287869780906090C0843AC
:10037000012101432970090A6970002030808748F3
:10038000FF21C831415C002906D1A07B0101081A78
:1003900080006946088012E0FF214900405C002887
:1003A00006D1A07B0101081A80006946088006E09A
:1003B000CD4800780101081A80006946088030881D
:1003C0000988884225D3002F06D0022F0ED008D3EB
:1003D00010E000BFA00100200121084608F080FEC7
:1003E00008E00221012008F07BFE03E00321012048
:1003F00008F076FE287869780906090C08436649F2
:1004000001402970090A69700020308001E0002055
:100410003080207F0100022902D0002800D0A6E011
:10042000002F00D0A3E0B14806F086FA002800D1E2
:100430009DE008F0BBFE00284BD0AD4806F07CFAEA
:100440000090AA4806F078FA0099814200D38BE028
:100450004C48A849411800910A46117853781B0668
:100460001B0C1943D022920080180190C8070DD4AC
:10047000009908784A781206120C104301220243B0
:100480000A70120A4A700020019908809A49087877
:100490004A781206120C104301990988814266D3EA
:1004A0003C48C07DC00762D40021084608F018FE11
:1004B000009908784A781206120C1043364A024016
:1004C0000A70120A4A7000200100019A11802077F8
:1004D0004DE008F06BFE002849D1854806F02CFA63
:1004E0000090824806F028FA009981423CD32548C2
:1004F0008049411800910A46117853781B061B0C5D
:100500001943D022920080180190C8070DD4009999
:1005100008784A781206120C1043012202430A702E
:10052000120A4A70002001990880734908784A78B5
:100530001206120C104301990988814217D3002139
:10054000012008F0CDFD009908784A781206120CB7
:100550001043114A02400A70120A4A7000200199A1
:1005600008800220207702E00020AF490880094877
:10057000007D002F14D10100C907C90F080016E043
:10058000FBFF0000181C0020420300008B2A002003
:10059000D9020000180A0020FEFF00009804002085
:1005A000012F02D10221084001E0042108400299F4
:1005B0009E4A89180091002808464BD006F0BCF9E5
:1005C000FA21890006F057F96189884200D395E045
:1005D000287869780906090C084380070BD4287825
:1005E00069780906090C0843022101432970090AA8
:1005F00069700020F080F088E17B884200D27FE0C3
:10060000002F03D0022F11D008D316E0902007F05E
:100610008DF8607F0121014361770EE0912007F0A2
:1006200085F8607F02210143617706E0922007F0A0
:100630007DF8607F04210143617728786978090695
:10064000090C08437A4901402970090A69700020A1
:10065000F08055E006F070F9FA21890006F00BF9F8
:10066000618988424AD3287869780906090C0843C9
:1006700080070BD4287869780906090C0843022101
:1006800001432970090A69700020F080F088E17B3D
:10069000884235D3002F03D0022F11D008D316E0A3
:1006A0002C2007F043F8607F0121014361770EE0C1
:1006B0002D2007F03BF8607F02210143617706E0BF
:1006C0002E2007F033F8607F0421014361772878FA
:1006D00069780906090C0843554901402970090A3F
:1006E00069700020F0800BE0830A00200F090020D1
:1006F000191F0020A10300000D0900200020F08038
:10070000A848007D002F02D10821084006E0012FF3
:1007100002D11021084001E020210840002841D0EA
:10072000009806F009F9FA21890006F0A4F8217B67
:10073000814200D382E5297868780006000C0143E5
:100740000420020011420AD129786A781206120C9C
:10075000114308432870000A68700020B081B089F6
:10076000217C884200D27FE5002F03D0022F09D0E0
:1007700004D30AE0932006F0D9FF06E0942006F0A7
:10078000D5FF02E0952006F0D1FF287869780906A8
:10079000090C0843844901402970090A6970002046
:1007A000B08161E502F0F2FA0121B940084200D1BE
:1007B0005AE5009806F0C0F8FA21890006F05BF8C7
:1007C000217B814200D239E5287869780906090C35
:1007D000084340070BD4287869780906090C0843B8
:1007E000042101432970090A69700020B081B08991
:1007F000217C884200D237E5002F04D0022F00D19F
:100800001FE508D324E52F2006F090FF607F01212B
:10081000014361771CE5302006F088FF607F0221EC
:100820000143617714E5F7BD581F0020CD02000099
:10083000FDFF0000F8B500273D0016E03800690014
:100840006118D722920088520EE0402006F06EFF19
:10085000207861780906090C084354490140217049
:10086000090A6170380030806D1C032D00DB97E0B1
:100870004C48807D002D02D10421084006E0012D66
:1008800002D10821084001E0102108400126AE40B5
:10089000474C002848D002F079FA3042E4D0A80052
:1008A00020184449401806F047F86428DCD0680056
:1008B000211841480C18207862781206120C104357
:1008C000D72292008E18202108420AD1207862781F
:1008D0001206120C104301432170090A617038009E
:1008E00030803088B349097D8842BDD3002D03D0C4
:1008F000022D09D004D30AE0A22006F017FF06E07B
:10090000A32006F013FF02E0A42006F00FFF2078DA
:1009100061780906090C0843244901402170090A3D
:100920006170380030809FE702F030FA304285D1A4
:10093000A80020181F49401805F0FEFF642800D8C1
:100940007CE7680021181C480C1820786278120691
:10095000120C1043D72292008E18202108420AD18F
:10096000207862781206120C104301432170090AA4
:1009700061703800308030888E49097D884200D20D
:1009800072E7002D04D0022D00D15EE704D35FE7AB
:100990003E2006F0CBFE5BE73F2006F0C7FE57E7A0
:1009A000F1BD0000180A0020FBFF0000DFFF00007F
:1009B000181C0020D9020000A1030000F8B584B083
:1009C0000024270025000DE0A80030187A494618B9
:1009D000300005F0B1FF874203D2300005F0ACFFD4
:1009E00007006D1C754E032DEEDB75483518280089
:1009F00005F0A2FFFA2189004018B84207D3280069
:100A000005F09AFFFA2189007918814206D229005F
:100A1000380005F087FF6B483452C8E0280005F025
:100A20008BFFFA218900884217D9280005F084FF3E
:100A300065494018B84210D2280005F07DFFFA2120
:100A400089004018874208D2280005F075FF290068
:100A50003818400805F066FF03E02900380005F06B
:100A600061FF584830180290524F0088397A0A01C5
:100A7000511A8900884200DA99E0280005F05CFFED
:100A8000F8625248019005F057FF03905048301823
:100A9000009005F051FF0399814205D2009805F0BE
:100AA0004BFF019905F03EFF4A48019005F044FFD5
:100AB000039049483018009005F03EFF03998142A9
:100AC00005D2009805F038FF019905F02BFF434847
:100AD0003018019005F030FF0390280005F02CFF3E
:100AE0009C218900711800910399643181420FD2D1
:100AF000280005F021FF019905F014FF384830184F
:100B00003900052208F0E6FF387A0099488510E0A0
:100B1000280005F011FF0390019805F00DFF0399DF
:100B20006431814205D30098408D397A401800998C
:100B30004885280005F000FF00990968019164319B
:100B4000814212D2280005F0F7FE009908609D202E
:100B5000800030183900052208F0BCFFA548301885
:100B6000397A0170090A417017E0280005F0E4FEA7
:100B700064300199884210D3280005F0DDFE642816
:100B80000BD99C483018017842781206120C114398
:100B90003A7A89180170090A41707C62BC62FFF7D9
:100BA0009CFA029804802900204605F0BBFE05B09F
:100BB000F0BD0000A0010020D9020000181C002098
:100BC000910300006203000018FCFFFF4B070020A8
:100BD000DD0200004F070020E1020000910200004A
:100BE00095020000FEB58448407A022802DA02200D
:100BF000814948728148019000883C2803DC00202C
:100C00007D494884F7BD002421E07D4D7D482818AA
:100C1000009005F091FE0600A0002F187A483818C1
:100C200005F08AFE00994000301805F07BFE7748F9
:100C30002D18280005F080FE06007548381805F0CC
:100C40007BFE29004000301805F06CFE641C022C6D
:100C5000DBDD694C01980088617A0A01511A89002C
:100C6000884200DAC5E0668C654D66482818009019
:100C700005F062FE310005F0FEFD06006662654883
:100C80002F18380005F058FE6430B0420ED23900FB
:100C9000300005F047FE604828182100052208F0C2
:100CA00019FF607A5D496918C8820CE0380005F0C8
:100CB00043FE31006431814205D358482818C18A67
:100CC000627A8918C18256482F18380005F034FE20
:100CD0006430B04210D23900300005F023FE514894
:100CE00028182100052208F0F5FE4F482818617ADF
:100CF0000170090A417014E0380005F01DFE310052
:100D0000643181420DD3642E0BD9474828180178ED
:100D100042781206120C1143627A89180170090A8E
:100D20004170668C39482818029005F005FE3100A4
:100D300005F0A1FD0600A6623C482F18380005F01A
:100D4000FBFD6430B04210D23900300005F0EAFDFE
:100D5000374828182100052208F0BCFE354828181D
:100D6000617A0170090A417012E0380005F0E4FD73
:100D70003100643181420BD32E4828180178427823
:100D80001206120C1143627A89180170090A417027
:100D900029482F18380005F0CFFD6430B0420DD23D
:100DA0003900300005F0BEFD244828182100052236
:100DB00008F090FE607A194968520EE0380005F09C
:100DC000BBFD31006431814207D3642E05D913483D
:100DD00028180188627A89180180FFF77EF90020BF
:100DE00001990880009905F09DFD0299002005F009
:100DF00099FDF7BD79020000A00100207C1F0020B2
:100E0000181C002095030000F50200009903000063
:100E1000150300007B0200007F0200006E0200004C
:100E20005A0200005E020000630200008602000019
:100E30008A0200008F0200006502000069020000C3
:100E4000F0B589B00024CD4D2000CD496854CD487F
:100E5000281808900146204605F064FDCA48281865
:100E600007900146204605F05DFDC8482818069009
:100E70000146204605F056FD15E00020610071187E
:100E8000C34A88520EE03A2006F050FC3078717860
:100E90000906090C0843CB4901403170090A7170F9
:100EA00000203880641C032C00DBE4E1B34EA0007A
:100EB00030180190C4494718380005F03DFD082559
:100EC000192834D20198C1494118002005F02AFDA3
:100ED0000198BF494118002005F024FD0120A040E1
:100EE000C0B205F05DFC0198BA494118002005F038
:100EF00019FD0198B8494118002005F013FD01982B
:100F0000B64941187F2005F00DFD0198B4494118FC
:100F1000002005F007FD0198B2494118002005F0B6
:100F200001FD2800A040C0B205F03AFCE9E0AE485F
:100F3000807D002C02D10421084005E0012C01D164
:100F4000284001E0102108403146A2008918A34A38
:100F50008918039100282AD00120A040C0B205F0D2
:100F60001FFC2800A040C0B205F01AFC380005F0B4
:100F7000E3FC0590C148C18A05984843242105F047
:100F80007AFC0290002704900399642005F0CAFCC3
:100F900001988F4941180091B848C18A0598484383
:100FA000B74905F068FC009905F0BCFC23E020007F
:100FB00005F04BFB0290B349884206D30020029013
:100FC0000120A040C0B205F0EBFB200005F055FB6E
:100FD0000700AC48874205D300272800A040C0B2D4
:100FE00005F0DEFB200005F05BFB0490A54988427C
:100FF00001D300200490200005F0DCFAFA218900DA
:1010000005F036FC009005F008FB089905F08AFC15
:101010007548807D002C02D10421084005E0012C98
:1010200001D1284001E010210840002805D1019895
:1010300067494118009805F075FC05F0BDFB019863
:1010400062494118029805F06DFC200005F0C3FAD2
:10105000029005F0EAFA079905F064FC01986149ED
:10106000411800910298FA21890005F001FC0099CD
:1010700005F058FC05F0A0FB0198564941183800CE
:1010800005F050FC019854494118049805F04AFCB9
:10109000200005F0B1FA070005F0CFFA069900919B
:1010A000FA21890005F0E7FB009905F03BFC019867
:1010B0004B49411800913800FA21890005F0D8FB0E
:1010C000009905F02FFC4848807D002C02D10421B6
:1010D000084005E0012C01D1284001E01021084022
:1010E000002805D1200005F0EEFA039905F01AFC5E
:1010F000039805F021FC642803D90399642005F0C6
:1011000011FC3949487D002C02D11022104006E024
:10111000012C02D12022104001E040221040002882
:1011200064D00127A74005F047FB3840B84200D102
:10113000A3E66000311854480E1830787278120611
:10114000120C1043124A8F18290008420AD1307835
:1011500071780906090C0843054335702D0A75702E
:101160000020388038884549497C884200D299E679
:10117000002C0FD0022C15D010D316E0181C002024
:1011800035030000010300001103000021030000EB
:10119000560300009C2006F0C9FA06E09D2006F0E8
:1011A000C5FA02E09E2006F0C1FA3078717809068F
:1011B000090C0843034901403170090A717000208D
:1011C00038806FE6F7FF0000D90200006D030000D1
:1011D000F50200007903000085030000E902000029
:1011E0001503000005030000180A0020887D002C6C
:1011F00002D10421084005E0012C01D1284001E082
:1012000010210840002800D037E60127A74005F04C
:10121000D3FA3840B84200D02FE6600031181A489F
:101220000E18307872781206120C1043174A8F1875
:10123000290008420AD1307871780906090C084360
:10124000054335702D0A75700020388038880B49A9
:10125000497C884200D225E6002C04D0022C00D123
:1012600011E604D312E6382006F060FA0EE63920C3
:1012700006F05CFA0AE609B0F0BD0000A00100200B
:101280001027000081D1F008A103000056030000E0
:10129000F8B590B0194803C80AAA03C20022062173
:1012A0000AA808F055FC00200790154CABE1049803
:1012B00005F042FB029013483018019005F03CFB0A
:1012C0007988009102990818210005F0D4FA009954
:1012D00008187880049805F02FFB0290019805F01B
:1012E0002BFB0199009102990818210005F0C3FA1F
:1012F0000800009905F016FB5FE100BF34CD010046
:1013000040420F00C102000003250598DE49401845
:1013100005F012FB33280AD30598DC49401805F084
:101320000BFBDB49884202D3092003990870D64899
:10133000301805F001FB19281DD2D648301805F0E9
:10134000FBFA192817D2D448301805F0F5FA1928F5
:1013500011D2002003990870D04831187F2005F081
:10136000E1FACF4831187F2005F0DCFACD4831187A
:101370007F2005F0D7FAE8004019400030180D9999
:10138000471838007E3005F0D7FA0990029805F02A
:10139000D3FA089068004019800030180C99401862
:1013A0000590E12149004018039005F0C5FA390085
:1013B0007E3101910999009108990818210005F0E2
:1013C0005AFA00990818019905F0ACFA029805F04C
:1013D000B3FA0190039805F0AFFA039900910199CF
:1013E0000818210005F047FA0800009905F09AFA5C
:1013F0003800C63005F0A0FA0990049805F09CFA70
:1014000008900598F92149004018039005F094FAD6
:101410003900C631019109990091089908182100F5
:1014200005F029FA00990818019905F07BFA04984B
:1014300005F082FA0190039805F07EFA0399009175
:1014400001990818210005F016FA0800009905F026
:1014500069FA87204000381805F06EFA089006985F
:1014600005F06AFA03900598DD494018019005F0EF
:1014700063FA8721490079180091089F0399081899
:10148000210005F0F8F93818009905F04BFA069894
:1014900005F052FA0700019805F04EFA0199009103
:1014A0003818210005F0E7F90800009905F03AFA2C
:1014B000002D01D0022D2CD1CA4F3800D53000901C
:1014C00005F03AFA0590049805F036FA0390E137F2
:1014D000380005F031FA00990191059900910399BE
:1014E0000818210005F0C7F900990818019905F0BE
:1014F00019FA049805F020FA0090380005F01CFA5B
:1015000000990818210005F0B6F90800390005F027
:1015100009FA029805F010FA0390B34830180190C8
:1015200005F00AFA0AAF39880091039908182100DA
:1015300005F0A1F9009908183880029805F0FCF927
:101540000290019805F0F8F90199009102990818A4
:10155000210005F090F90800009905F0E3F9A3488F
:101560000078012800D0A2E6002D01D0022D24D160
:10157000049805F0E1F902909D483018019005F0BB
:10158000DBF97988009102990818210005F073F9B8
:10159000009908187880049805F0CEF90290019817
:1015A00005F0CAF90199009102990818210005F087
:1015B00062F90800009905F0B5F9069805F0BCF944
:1015C0000190EE483618300005F0B6F9B988009160
:1015D00001990818210005F04EF900990818B88003
:1015E000069805F0A9F90700300005F0A5F93818AC
:1015F000210005F040F90800310005F093F9079843
:10160000401CC0B20790079880000C90DC4E301848
:101610000590DC48301803900798022801DD00F09F
:1016200099FC3000123005F087F906900598D649EC
:101630004018029005F080F90700BD2040003018E6
:10164000049005F079F93100123101910699009169
:101650003818210005F00FF900990818019905F0D4
:1016600061F9029805F068F90700049805F064F93B
:10167000049900913818210005F0FDF80800009940
:1016800005F050F9C14F0FE0D9020000CD02000073
:1016900051C30000DD020000E1020000E902000089
:1016A000ED020000F10200003800533005F044F96B
:1016B0000890029805F040F906903800573005F080
:1016C0003BF93900533101910899009106990818A6
:1016D000210005F0D0F800990818019905F022F9C9
:1016E000029805F029F90190049805F025F93900D0
:1016F0005731009101990818210005F0BCF8080045
:10170000009905F00FF907984100081840000D9066
:101710003018089005F010F90990029805F00CF9BE
:1017200006900598B72149004018049005F004F987
:10173000089901910999009106990818210005F06E
:101740009AF800990818019905F0ECF8029805F04C
:10175000F3F80190049805F0EFF8049900910199CD
:101760000818210005F087F80800009905F0DAF85C
:10177000AB2040003018019005F0DEF80990029887
:1017800005F0DAF8069082483018049005F0D4F895
:10179000019901910999009106990818210005F015
:1017A0006AF800990818019905F0BCF8029805F04C
:1017B000C3F80190049805F0BFF8049900910199CD
:1017C0000818210005F057F80800009905F0AAF85C
:1017D00030002A3005F0B0F80E9005986D4909E008
:1017E0002202000098080020BD0200007F090020AE
:1017F000C10200004018049005F09EF80990C52031
:1018000040003018069005F097F831002A31019118
:101810000E99009109990818210005F02CF80099FB
:101820000818019905F07EF8049805F085F80190F4
:10183000069805F081F80699009101990818210091
:1018400005F019F80800009905F06CF838005B30D5
:1018500005F072F80E90049805F06EF809903800C3
:101860005F3005F069F839005B3101910E99009104
:1018700009990818210004F0FEFF00990818019941
:1018800005F050F8049805F057F80190069805F017
:1018900053F839005F31009101990818210004F0D4
:1018A000EAFF0800009905F03DF83000423005F0ED
:1018B00043F80F90059838494018069005F03CF819
:1018C0000E90CD2040003018099005F035F8310019
:1018D000423101910F9900910E990818210004F0EE
:1018E000CAFF00990818019905F01CF8069805F040
:1018F00023F80190099805F01FF8099900910199C2
:101900000818210004F0B7FF0800009905F00AF854
:101910003800633005F010F80F90069805F00CF8C9
:101920000E903800673005F007F8390063310191F7
:101930000F9900910E990818210004F09CFF00995E
:101940000818019904F0EEFF069804F0F5FF0190E5
:10195000099804F0F1FF39006731009101990818E6
:10196000210004F088FF0800009904F0DBFF0698CE
:1019700004F0E2FF0E90094812E000BFC50200002B
:10198000181C0020350300006D030000980700209C
:101990005202000079030000850300005602000097
:1019A0003018019004F0C8FFAE2149007118099168
:1019B000096800910E990818210004F05CFF009955
:1019C000081809990860069804F0B6FF0990019874
:1019D00004F0B2FF0199009109990818210004F060
:1019E0004AFF0800009904F09DFF0898183004F0A1
:1019F000A3FF0F90049804F09FFF0E900598BF215D
:101A000049004018099004F097FF08991831019196
:101A10000F9900910E990818210004F02CFF0099ED
:101A20000818019904F07EFF049804F085FF0190E6
:101A3000099804F081FF0999009101990818210083
:101A400004F019FF0800009904F06CFF089830308A
:101A500004F072FF0F90069804F06EFF0E90059848
:101A6000C72149004018099004F066FF08993031F9
:101A700001910F9900910E990818210004F0FBFEC6
:101A800000990818019904F04DFF069804F054FFDE
:101A90000190099804F050FF0999009101990818E4
:101AA000210004F0E8FE0800009904F03BFFD04854
:101AB000407D0799002902D11021084006E0012944
:101AC00002D12021084001E040210840002800D137
:101AD000BCE030005A3004F02FFF0F90029804F061
:101AE0002BFF0E90D52040003018099004F024FF01
:101AF00031005A3101910F9900910E990818210077
:101B000004F0B9FE00990818019904F00BFF02983F
:101B100004F012FF0190099804F00EFF099900915A
:101B200001990818210004F0A6FE0800009904F0AD
:101B3000F9FE3800733004F0FFFE0F90029804F0B5
:101B4000FBFE0E903800773004F0F6FE390073315A
:101B500001910F9900910E990818210004F08BFE55
:101B600000990818019904F0DDFE029804F0E4FEE3
:101B70000190099804F0E0FE390077310091019955
:101B80000818210004F077FE0800009904F0CAFE4E
:101B900038006B3004F0D0FE0F90029804F0CCFEB9
:101BA0000E9038006F3004F0C7FE39006B310191A0
:101BB0000F9900910E990818210004F05CFE00991D
:101BC0000818019904F0AEFE029804F0B5FE0090EA
:101BD000099804F0B1FE39006F310F000099081820
:101BE000210004F048FE0800390004F09BFE08982C
:101BF000483004F0A1FE0E90029804F09DFE09907A
:101C00000598CF2149004718380004F095FE08993F
:101C1000483101910E99009109990818210004F0AA
:101C20002AFE00990818019904F07CFE029804F03D
:101C300083FE0090380004F07FFE00990818210010
:101C400004F019FE0800390004F06CFE0820079922
:101C50008840099004F0B0FD09990140099881423B
:101C60005CD13000723004F067FE0F90049804F0ED
:101C700063FE0E90DD2040003718380004F05CFE53
:101C80003100723101910F9900910E9908182100CD
:101C900004F0F1FD00990818019904F043FE04983E
:101CA00004F04AFE0090380004F046FE009908183F
:101CB000210004F0E0FD0800390004F033FE08982C
:101CC000603004F039FE0F90049804F035FE0E9059
:101CD0000598D72149004718380004F02DFE0899CF
:101CE000603101910F9900910E990818210004F0BC
:101CF000C2FD00990818019904F014FE049804F03C
:101D00001BFE0090380004F017FE0099081821000F
:101D100004F0B1FD0800390004F004FE012704F0CE
:101D20004BFD079A390091400140009104F044FDB9
:101D3000099A024000990A43D2B207980241D2B2EE
:101D4000002A09D0012A20D0082A01D1FFF7DCFAA5
:101D5000092A33D0FFF7EBFA00250598C749401848
:101D600004F0EAFD332801D2FFF7E1FA0598C449EF
:101D7000401804F0E1FDC349884201D2FFF7D7FAC9
:101D8000032003990870FFF7D2FA3D000598BB497C
:101D9000401804F0D1FD332801D2FFF7C8FA0598A6
:101DA000B749401804F0C8FDB649884201D2FFF790
:101DB000BEFA062003990870FFF7B9FA02250598C4
:101DC000AE49401804F0B8FD332801D2FFF7AFFA4E
:101DD0000598AB49401804F0AFFDAA49884201D2EA
:101DE000FFF7A5FA0C2003990870FFF7A0FA00BFCF
:101DF000180A0020019804F09FFD642148433168CF
:101E000004F039FD0399887003988078652806DB13
:101E100064200399887002E07F2003998870F0683D
:101E2000002869D0B12040002D189748E721415C77
:101E300001294FD10400DB34200004F07DFD28008F
:101E400004F07AFD200004F077FD0600200004F085
:101E500073FD070064243000210004F00CFD06002F
:101E60003800210004F007FD46430027280004F055
:101E700063FD0090280004F05FFD019000982100B0
:101E800004F0F9FC020000920198210004F0F3FC38
:101E9000009A42430023300039008018594107F06E
:101EA00079FE07F0AFFE06000F00280004F044FDA5
:101EB00005003000390007F005FF0100280004F09C
:101EC000DAFC0399C8700398C078652817DB03987B
:101ED000C47014E0280004F02FFD64214843F16829
:101EE00004F0C9FC0399C8700398C078652806DB24
:101EF00064200399C87002E07F200399C870059898
:101F000062494418200004F017FD00281CD020006E
:101F100004F012FD5E4D2900BE3108700878652876
:101F200001DB64200870200004F006FD2C00BF34A3
:101F3000210004F0F7FC200004F0FEFC642803D923
:101F40002100642004F0EEFC0AA9022002F0CAFF7E
:101F500011B0F0BD4F48407D000627D535464E48AC
:101F60002E18300004F0E8FC0190DF2040002F180C
:101F7000380004F0E1FCA96F0091019908182100D4
:101F800004F079FC00990818A867300004F0D4FC2C
:101F90000500380004F0D0FC39000E00281821009C
:101FA00004F069FC0800310004F0BCFC3B4DAE209D
:101FB00040002E183068002800D12DE73248AB21B0
:101FC000490069180191E721415C012900D011E71E
:101FD0000400D534200004F0AFFC019804F0ACFC00
:101FE000200004F0A9FC0090200004F0A5FC0700EC
:101FF00064240098210004F03EFC00903800210089
:1020000004F039FC010000984843002106AA03C2ED
:10201000019804F091FC0090019804F08DFC0700F9
:102020000098210004F027FC0200009238002100F3
:1020300004F021FC009A4243002306A803C880183C
:10204000594107F0A7FD07F0DDFD06AA03C201987C
:1020500004F072FC070006A803C807F033FE010075
:10206000380004F008FC039988700398807865288C
:1020700000DAD4E603988470D1E60000D9020000AB
:10208000CD02000051C3000098080020E9020000C2
:1020900098070020180A00209D030000181C00204B
:1020A000FCB5CF4D2800123004F046FCCD498842E3
:1020B0000CD32800123004F03FFC29001231CA4A28
:1020C000801804F02FFCE88A401CE882E88A0100AE
:1020D000C64A914202DB1146401AE88228002A30A3
:1020E00004F02AFCBF4988420CD328002A3004F0AF
:1020F00023FC29002A31BC4A801804F013FCE88D27
:10210000401CE885E88D0100B84A914202DB114687
:10211000401AE8852800423004F00EFC2C004634BA
:10212000B04988420DD32800423004F005FC290054
:102130004231AD4A801804F0F5FB4620285A401C75
:1021400020804620285A0100A84A914202DB11460D
:10215000401A208028005A3004F0EEFBA149884242
:102160000CD328005A3004F0E7FB29005A319E4A6C
:10217000801804F0D7FB208B401C2083208B0100AB
:102180009A4A914202DB1146401A20830024E3E080
:102190009348F100891949004018019947183800FF
:1021A0007E3004F0C9FB8F49884216D338007E3058
:1021B00004F0C2FB39007E318B4A801804F0B2FB78
:1021C0008748F10089194900401861000919490040
:1021D000401882300188491C01808148F10089192A
:1021E00049004018610009194900401882300188EF
:1021F0000A007E4B9A4202DB1A46891A0180380097
:10220000C63004F099FB7749884216D33800C630AF
:1022100004F092FB3900C631734A801804F082FB47
:102220006F48F100891949004018610009194900F7
:102230004018CA300188491C01806948F100891999
:10224000490040186100091949004018CA30018846
:102250000A00664B9A4202DB1A46891A01808720DF
:102260004000381804F068FB892149007918009172
:102270005C49884218D35A48F1008919490040182E
:1022800061000919490040188721490047183800A2
:1022900004F052FB3900544A801804F043FB0098C4
:1022A0000088401C009908800098008801004F4A6F
:1022B000914203DB1146401A00990880761C042ED7
:1022C00000DA65E72800183004F036FB454EB042CE
:1022D0000CD32800183004F02FFB29001831424A93
:1022E000801804F01FFBA88B401CA883A88B3F4FCD
:1022F0000100B94202DB3946401AA8832800303079
:1023000004F01AFBB0420CD32800303004F014FB68
:1023100029003031344A801804F004FBA88E401C98
:10232000A886A88E0100B94202DB3946401AA88669
:102330002B4DA96F28007830B14205D32A4A89185D
:1023400001608188491C818081880A00BA4202DBD1
:102350003A46891A8180641C032C3FDA6000001918
:10236000400001902D18280004F0E6FA1D4988422B
:102370000AD3280004F0E0FA29001B4A801804F070
:10238000D1FAA888401CA880A8880100174A914269
:1023900002DB1146401AA8802800483004F0CCFA2D
:1023A000104988420ED32800483004F0C5FA2900AD
:1023B00048310D4A801804F0B5FA4C20285A401CC8
:1023C0004C2168524C20285A0100084A914203DBF4
:1023D0001146401A4C216852002670E7F3BD0000F8
:1023E000181C0020FFC99A3B013665C40F27000066
:1023F000F8B59C48009000889B49897E0A01511AD3
:102400008900884244DB0027984C1CE09848B900BA
:1024100045189848281804F08FFA790066180A21A0
:1024200004F029FAB0819448281804F085FAFA21BA
:10243000890004F020FA70829048281804F07CFA91
:10244000E11908767F1C022FE0DD894D280012304B
:1024500004F072FA2060E88AA08028002A3004F094
:102460006BFAA11D04F05EFAE88D60817E48017868
:10247000E1764178217781786177C178A177007919
:10248000E0772100032007F069FD00200099088013
:10249000F1BD7548C07F704700207349C877704709
:1024A00080B57148C17FFF224A40C2777449C97D17
:1024B0000BD0C90705D501212022815404F046FB29
:1024C00001BD00212022815401BDC90705D420216E
:1024D000405C012801D104F039FB01BD69480021AD
:1024E000C1600161704738B504000020694608806A
:1024F00002222100684607F0EDFA63486946098820
:102500000170090A41705F4D684600880101081A90
:10251000800068600222A11C684607F0DBFA68466A
:102520000088FA2189004143A9602079287005209C
:1025300032BD1CB5534C6068002802D0E16881426E
:1025400005D2A168002915D022698A4212D32169D7
:10255000A26891420ED3E16881420BD3FFF7A0FF3E
:102560002078002803D000204849088013BD14209B
:1025700007F0C5FD13BDF8B500252E0044480188BD
:10258000491C0180434C022D43DC280003F0DCFF92
:1025900007003748A900401837494018009000202C
:1025A000C04387421CD00099380004F0BBF9606832
:1025B000874202D2002F00D06760204680688742A1
:1025C00000D33800A060E068C019E060A1780A007C
:1025D000521CA270152903DB142104F04CF9206170
:1025E000009804F0A9F92C49884200D2761C009882
:1025F00004F0A2F92949884205D320780121A94095
:102600000143217003E00099002004F08BF96D1C58
:10261000B9E7F6B2032E02D16078401C6070607892
:1026200002281DDD1E4908200A78030013430B70A1
:102630001C490A7803001A420CD10A78104308702A
:1026400007F08DFD002004F087F9032016498872F9
:1026500005F0ABFF8020800107F0ABFD002060702B
:10266000F1BD00007E1F0020A0010020A42B00204F
:10267000181C0020D9020000CD020000E902000071
:10268000180A00204C2C002054070020AC2D0020FC
:10269000A42D0020602C0020C0D4010010270000D1
:1026A000D42D0020882A0020C81F0020FEB58024D9
:1026B000A401200007F070FD002801D10020FEBD1C
:1026C000200007F07BFDAA480078C00700D515E27E
:1026D000A84EA9483518287869780906090C0843D6
:1026E000000515D5CA4830188178022900DA05E2BC
:1026F00000218170287869780906090C08439F49F0
:1027000001402970090A6970402003F015FFF5E1C6
:10271000C048807C800700D5CFE199480290C07FF7
:10272000002801D0FFF705FF00F040FB002802D091
:1027300004F07EF8E2E1FDF7C3FC924C07F046FDA1
:10274000002800D197E0002789480078C00700D50D
:1027500086E08D4803C8A02292003B4699426BD385
:1027600001D8904268D301201946874A03C221004C
:102770000831132008F0F7FCE070A068002802D5AB
:10278000C143491CA16021000C31132007F032FD28
:10279000E070E068002802D5C143491CE1602100D7
:1027A0001831142008F0DFFCE070A069002802D581
:1027B000C143491CA16121001C31142007F01AFDFE
:1027C000E070E069002802D5C143491CE161E0687E
:1027D00002280DD3CD4988420AD0E069022807D3E8
:1027E000884205D0CA48301804F0A6F8002800D165
:1027F000E760A16802290DD3C44881420AD0A169CB
:10280000022907D3814205D0C248301804F094F859
:10281000002800D1A760E068A16841182161E06943
:10282000A269801860613B2007F0D3FCE070616909
:102830003F2007F0CEFCE070A078401CA070C0B232
:102840000A2803DB3800A070FFF795FE60780128A6
:1028500004D1B14809F0CEFF380060703800207014
:1028600003F074FFAD480178002902D007703846A4
:10287000FEBDFDF744FC287869780906090C084379
:10288000DA21890071180091000400D47EE0FDF780
:1028900036FC01F023F9FEF791F8287869780906EB
:1028A000090C08434004400C2870000A6870002797
:1028B000380057497054009988705648807C40070A
:1028C0000CD5822004F032FF287869780906090CBB
:1028D0000843934901402970090A6970FEF7B0FA6C
:1028E00003F047FFFEF77EF935468E482818019021
:1028F0000146384604F016F88B48291808784A78BB
:102900001206120C104300061BD53800C0B2032873
:1029100000DBF5E0019804F00FF8060001990D00C6
:102920000298C08A0299098B4843242103F0A3FF2F
:10293000FA21890048433018290003F0F3FF7F1C77
:10294000E3E73D00EDB2032D00DBD9E0019803F091
:10295000F3FF06000748A90040187449401803F027
:10296000EBFF0199301803F0DDFF7F1CE9E700BFA2
:10297000882A0020181C0020A1030000FFF7000097
:10298000A0010020E0010020302D00202978687887
:102990000006000C01438020C00101420BD12978C0
:1029A0006A781206120C114308432870000A6870F6
:1029B0000020174970541748807C40071AD41448E7
:1029C00036183078142815DB95480078C00711D4E4
:1029D0001E2004F0ABFE012003F0AEFD28786978DC
:1029E0000906090C08434E4901402970090A69701B
:1029F00000203070FFF7FCFC8A4D009800888A495F
:102A0000884228DB864E3078C00724D4874803E00C
:102A10003D030000180A00200088000718D4012296
:102A2000B3218900280009F0FDFEB3218900685414
:102A30004F1C3A0080210901280007F067F930781F
:102A4000C00705D43A00D0214901280007F05EF9FB
:102A500000200099088076480078C00708D400203C
:102A60000099C87073482918002003F05BFF45E007
:102A70000098C0780A2841DB002528000099C8701A
:102A800006E06D49800009187F2003F04BFF6D1CA4
:102A90002800C0B20328F4DB002003F04DFD60796C
:102AA000401C60719E49497C490727D4C0B20A285E
:102AB00024DB162004F03AFE20E0002534462800EE
:102AC000DA2189006118087107E0964961188000D1
:102AD00009187F2003F026FF6D1C2800C0B20328D0
:102AE000F3DB0423022235218F480AF093FA0220F7
:102AF00003F022FD9E480179491C01710120FEBDB1
:102B0000FEF7C6FBFFF7CCFA74E700BFFFFFFF003C
:102B1000F5020000F902000050C30000F12D002072
:102B2000FFBF00009D030000C90200006D0300000C
:102B3000F8B50124874D3D4E308828403080394F0C
:102B400000227321CF208000381807F001F889484F
:102B5000381800907248417D090609D4807D010033
:102B6000C907C90F481E8041C00F0099087002E0D4
:102B7000002000990870FF207F4908707F4F0022D5
:102B80000521380006F0E4FF002220217C4806F0F1
:102B9000DFFF00226C217B4806F0CAFF7A4AE1027F
:102BA000204807F0A7F800280BD02246B32189005F
:102BB0001C4809F037FE00994978884203D0002468
:102BC00001E00020B877002C308803D108210143B0
:102BD000318001E00540358001252C001422C02100
:102BE000C9003800083007F085F800280AD02246CE
:102BF00013213800083009F015FEF97E884202D012
:102C0000002400E00024002C308803D16902014335
:102C1000318002E091490140318000980570F1BD9A
:102C2000882A0020181C002060540000AC2D0020D1
:102C3000D72D0020AB030000011F002038B5072866
:102C40006CD801A2125C9744065488B0D2D2BCC69C
:102C50000222834806F03EFFFDF7B4FA02248148C1
:102C60000088000719D4454D01221321280008309F
:102C700009F0D8FDE8761422C021C90028000830E8
:102C800007F044F878480078C00706D41422B82129
:102C900049012800083007F039F8200032BD07222A
:102CA000724806F017FF724C002206217148201866
:102CB00006F03EFF00220621D2208000201806F0F8
:102CC00047FF002206216C48201806F031FF072438
:102CD000C5E70522694806F0FDFE654C0022062185
:102CE0006748201806F024FF00220621D720800024
:102CF000201806F02DFF0524B1E70422614806F0F4
:102D0000E9FE0424ABE701225F4806F0E3FE03E09E
:102D10000122AD4806F0DEFE0124A0E7002032BD0E
:102D2000180A0020E90200000018014080B5694639
:102D3000BC4A13880B80022206F0CCFE022002BDA2
:102D400010B5B72464002200494906F0C3FE2000F4
:102D500010BD0000F7FF000080B52122C44906F035
:102D6000B9FE212002BDC348007870470000000072
:102D7000E0010020CB020000BF1F0020A0010020C6
:102D8000A42B0020E51E0020CD02000080B503F03A
:102D900040FD02BD80B5032006F0F2FF02BD80B504
:102DA0000B000100032007F05DF802BD80B503F0C1
:102DB000C5FC02BD1CB5002806D0022827D010D3C0
:102DC000042837D02BD313BDAB48017842781206C4
:102DD000120C1143802212020A430270120A42703E
:102DE00013BDA648407C400736D4A54C200003F014
:102DF000A3FD0A2803D3162004F098FC13BD20007D
:102E000003F09AFD2100401C03F08CFD13BD9B488C
:102E1000807C800720D41D2004F088FC13BD9748D7
:102E2000807C800718D5812004F080FC0020954923
:102E3000087013BD944C200003F07EFD2100401C5F
:102E400003F070FD200003F077FD9049884203D322
:102E50002100002003F066FD13BD0000FFFD00000F
:102E6000A8010020AC2D0020882A0020AA01002003
:102E7000181C0020420300004E030000B101002096
:102E800056030000B6010020BA010020F8B5804CBE
:102E9000CF20800025182878401C2870E88C401C22
:102EA000E884688D401C6885A88D401CA8857948F9
:102EB0002718387879780906090C0843000502D5E7
:102EC000E878401CE870744E3078401C3070002068
:102ED000FFF770FF288D401C2885002318003070F4
:102EE0003BE0580021186B480818027846783606EF
:102EF000360C3243694E8919D20705D50A88521C0F
:102F00000A80AA88521CAA80027846783606360CB7
:102F10003243920702D5CA88521CCA80027846788A
:102F20003606360C3243520702D58A89521C8A81F2
:102F3000027846783606360C3243120702D58A8A62
:102F4000521C8A82027846783606360C3243900646
:102F500002D5488B401C48835B1C032BC1DB3878AF
:102F600079780906090C0843C00602D5288B401C55
:102F70002883387879780906090C0843400402D57B
:102F80006878401C68703D48807C800704D54448C0
:102F900020188178491C81704248211808784A78A5
:102FA0001206120C1043000604D53D482018017883
:102FB000491C01703C480078C00704D538482018E7
:102FC0004178491C4170F1BDAD01002010B5304C75
:102FD00000F0E8FD8021890088420CD02D4820189F
:102FE000017842781206120C1143802212010A4322
:102FF0000270120A427000223121CF208000201876
:1030000006F0A6FD29482118002003F08BFC284873
:103010002118002003F086FC26482118002003F028
:1030200081FC10BD3CCD0100002800D0704738B5B0
:103030002148008800071AD4154C0122B3218900C9
:10304000200009F0EFFBB321890060544D1C2A00D9
:1030500080210901200006F059FE18480078C007B9
:1030600005D42A00D0214901200006F04FFE31BDD1
:10307000721E00204D1F0020B91F0020180A0020DA
:10308000C31F0020561F0020491F0020FFE0F50548
:10309000181C0020A1030000D32D002042030000D3
:1030A0006A030000C9020000D72D0020950300002C
:1030B0009903000091030000AC2D0020882A002015
:1030C000172800D97047FEB501A14000095A8F4466
:1030D0002E00C4004C01720146034E038A03920382
:1030E000820308089A03B203CA033204AA047C03C9
:1030F0002805080808080808080808086005F805F1
:103100000022AC49AC4806F023FDAC4C002206215D
:103110002000D53006F00CFD002206212000DB3017
:1031200006F006FD2100E131002003F0FBFBA44C7A
:1031300021007331002003F0F5FB210077310020DE
:1031400003F0F0FB21005331002003F0EBFB2100E2
:103150005731002003F0E6FB21006B31002003F023
:10316000E1FB21006F31002003F0DCFB21005B312B
:10317000002003F0D7FB21005F31002003F0D2FBD9
:1031800021006331002003F0CDFB210067310020D6
:1031900003F0C8FBF7BD884C0022062120005A30FE
:1031A00006F0C6FCD52040002118002003F0BAFB31
:1031B000834D29007331002003F0B4FB29007731DF
:1031C000002003F0AFFB29006B31002003F0AAFBC5
:1031D000002206212000723006F0AAFCDD2040000B
:1031E0002118002003F09EFB00221221200048300D
:1031F00006F0AEFC00220C21CF204000201806F083
:1032000097FC002212212000603006F0A1FC002271
:103210000C21D7204000201806F08AFCF7BD664C30
:10322000002206212000783006F092FCDF204000CA
:103230002118002003F076FB0020D02189006118BE
:103240008882F7BD00252E00AC4C0EE0952004F0DE
:103250006DFA02E0942004F069FA280056497200E1
:103260008918A74A89188881761C032E00DB35E36C
:10327000E07C002E02D12021084006E0012E02D180
:103280004021084001E080210840002818D0002E8D
:1032900003D0022E09D004D30AE08D2004F046FAB0
:1032A00006E08E2004F042FA02E08F2004F03EFA9D
:1032B0004148290072008218914BD1529A1E8152C6
:1032C000207D002E04D10100C907C90F080006E0C7
:1032D000012E02D10221084001E00421084000280B
:1032E00017D0002E03D0022E09D004D30AE090207C
:1032F00004F01CFA06E0912004F018FA02E0922093
:1033000004F014FA28002C49720089187C4A8918A4
:10331000C880207D002E02D10821084006E0012E41
:1033200002D11021084001E02021084000289BD054
:10333000002E03D0022E89D08CD38EE7932004F088
:10334000F5F98AE79E2004F0F1F902E09D2004F0EF
:10335000EDF92800C34972008852761C607D032E67
:1033600000DBBDE2002E02D11021084006E0012E54
:1033700002D12021084001E0402108400028ECD083
:10338000002E03D0022EDDD0E0D3E2E79C2004F033
:10339000CDF9DEE7A02004F0C9F902E0A12004F095
:1033A000C5F9054FB0483918284603F0BBFA2E007E
:1033B00016E000BF5A020000181C002098080020E8
:1033C00098070020A42004F0B1F902E0A32004F043
:1033D000ADF9280071007918D72292008852761C26
:1033E000032E00DB90E2A07D002E02D104210840D4
:1033F00006E0012E02D10821084001E0102108401A
:103400000028ECD0002E03D0022EDBD0DED3E0E784
:10341000A22004F08BF9DCE7032006F0A3FCF7BD43
:10342000924C002221219248201806F081FB0022B4
:1034300021219048201806F07BFB00222121A720A3
:103440008000201806F084FBFCF7BCFEF7BDFCF7FB
:10345000B9FEF7BD022003F0B9F9F7BD002003F073
:10346000B5F9F7BD012003F0B1F9F7BD8248017845
:1034700042781206120C114380220A430270120A8B
:103480004270F7BD7C48017842781206120C114355
:103490007A4A0A400270120A4270F7BD734C002249
:1034A0007749200006F054FB00227321CF208000D2
:1034B000201806F04DFB00222021724806F048FB40
:1034C000CC4D002206212800D53006F031FB002229
:1034D00006212800DB3006F02BFB2900E13100201B
:1034E00003F020FAFF20684960540120DC39605461
:1034F000FCF7E6FD032006F035FCF7BD180A0020B6
:1035000042030000614C6248E082FA206081D220D0
:1035100020736E2060730D20A0740F2001002172B3
:1035200060729620208305200100A173E17321744D
:1035300004210A00E274227562746175A07601228A
:1035400013212000083009F06DF9E0761422C02123
:10355000C9002000083006F0D9FBA7480078C00752
:1035600006D41422B82149012000083006F0CEFB11
:1035700000223121474806F0EBFAF7BD464E30886D
:1035800000071AD49C480078C00716D4374C012293
:10359000B3218900200009F045F9404961184870BD
:1035A0003F4D2A0080210901200006F0AFFB2A00D0
:1035B000D0214901200006F0A9FB3088800500D504
:1035C0008BE18D480078C00700D586E12F4C0122A1
:1035D00013212000083009F025F9E0761422C021DB
:1035E000C9002000083006F091FB1422B8214901DF
:1035F0002000083006F08AFBF7BD002213001B48AC
:10360000032B00DB69E159004118C34C0C192578E4
:1036100066783606360C3543C04E2E402670360A84
:1036200066701400BE4D4C531100AC1E01535B1C60
:10363000E6E7002425000BE09E2004F077F802E086
:103640009D2004F073F8200006496A0088526D1C22
:10365000032D00DB41E1B348407D002D22D1102134
:10366000084026E06E1F0020AB030000181C00205D
:103670005A0200007B020000E11E00207FFF0000D4
:1036800039030000A42B0020A7030000A0010020A4
:1036900098080000541F0020AC2D0020CB02000031
:1036A000CD020000012D02D12021084001E040217F
:1036B00008400028CBD0002D03D0022DBCD0BFD3B2
:1036C000C1E79C2004F032F8BDE7974C210073312C
:1036D000002003F027F921007731002003F022F9C0
:1036E0002700BD37002630007870424D2800F130A9
:1036F00000900078072800D0A9E03F480078C00774
:1037000000D5A4E0032005F0EBFF38784000201836
:103710007B3000994978FA22D20089180170090A91
:10372000417020006B3003F007F939788900611887
:10373000A53103F0F7F82000533003F0FDF8397895
:1037400089006118813103F0EDF820005B3003F04F
:10375000F3F83978890061188D3103F0E3F820001F
:10376000633003F0E9F8397889006118993103F082
:10377000D9F82000BF30019003F0DEF839788900D5
:103780006118B13103F0CEF821005331304603F017
:10379000C9F821005731304603F0C4F821005B31ED
:1037A000304603F0BFF821005F31304603F0BAF82D
:1037B00021006331304603F0B5F82100673130460F
:1037C00003F0B0F821006B31304603F0ABF8210074
:1037D0006F31304603F0A6F80199304603F0A2F8A5
:1037E0003878401C3870C0B2032800DB3E704F4F61
:1037F00004E000BF98080020882A0020AB20400089
:103800003C18062221000C30381806F063F9AE206F
:1038100040003E18062231000C30381806F05AF9E4
:103820002F00D537062239002800DB3006F052F988
:1038300000220621200006F07BF90022062130003C
:1038400006F086F900220621380006F071F9A24838
:103850000078010002290DD1009A1278072A2DD094
:10386000092A2BD00B2A29D0012A27D0032A25D0B8
:10387000052A23D0032909D1009A1278072A1DD0DE
:103880000A2A1BD0012A19D0042A17D0042907D1EB
:10389000009A1278072A11D00B2A0FD0032A0DD0D4
:1038A000062905D100990978072907D0012905D0F3
:1038B000002812D10098007807280ED11B488B49A8
:1038C000441821222100A7239B00C01806F002F90A
:1038D00000222121200006F02BF9F7BD2E003DE546
:1038E000000603D4A07D800700D15AE58348007804
:1038F000002805D0022800D150E500D24AE550E565
:103900009F2003F013FF4CE5207D4006E5D596206F
:1039100003F00CFFF7BD0000A1030000FEFF000054
:1039200042030000180A002098070020181C0020FD
:10393000F8B500252E00724C06E072482018B10040
:10394000401802F0F9FF761C032EF6DB6E482018B3
:1039500002F0F2FF6D4E6E4FB84207D26948201850
:1039600002F0EAFFFF21F63188421BD26948201895
:1039700002F0E2FFB84207D28348201802F0DCFFD1
:10398000FF21F63188420DD28548201802F0D4FF7D
:10399000B84209D28548201802F0CEFFFF21F63147
:1039A000884201D3F56302E002F04AFFF0638048E9
:1039B0002018009002F0C0FF0A27390002F05BFFD8
:1039C000F16B8142009808D202F0B6FF390002F094
:1039D00052FFF16B401AF06309E002F0ADFFF16BAA
:1039E0000091390002F047FF0099081AF063F26B6A
:1039F000FA23DB0080206F494F7D074233D09A4283
:103A000065D26D4AA7183A787B781B061B0C1A43BF
:103A1000D5239B00E318009310231A420BD13A7868
:103A20007C782406240C224313433B701B0A7B70D2
:103A30002A00009B1A80009A1288F37C9A4249D38C
:103A4000497D014202D09F2003F070FE38787978DA
:103A50000906090C0843594901403970090A79706F
:103A600000980580F1BD9A4231D3534AA7183A789D
:103A70007B781B061B0C1A43D5239B00E31800938D
:103A800010231A420BD13A787C782406240C224366
:103A900013433B701B0A7B702A00009B1A80009A1C
:103AA0001288F37C9A4215D3497D014202D13B2012
:103AB00003F03CFE387879780906090C08433F4941
:103AC00001403970090A797000980580F1BDD52050
:103AD00080002552F1BD00004A07002080B5FCF7A8
:103AE000A9FEFCF7A7FBFFF723FF01BD7B02000047
:103AF000334800210180418081807047E31E00200F
:103B0000181C0020D9020000CD020000A0010020F6
:103B100050C30000D102000038B52A4D28880007A4
:103B200017D5294C294AD0214901200006F0E2F896
:103B300000280ED00122B3218900200008F072FE77
:103B4000B3218900615C884203D128882049014063
:103B500029802888800516D51E4C1422B8214901D9
:103B60002000083006F0C6F800280CD001221321EE
:103B70002000083008F056FEE17E884203D12888F4
:103B800015490140298031BDDD02000080B50120CA
:103B900012490870022012490870FFF717FA01BD98
:103BA000D50200000F48008870470000E1020000C5
:103BB000E5020000180A0020A1030000EFFF00004A
:103BC0005A1F0020AC2D0020181C0020CD02000040
:103BD000F7FF0000A0010020FFFD0000D12D002014
:103BE000571F0020AE2D0020D8B5FE21002294489A
:103BF0000378B84C0CE026002336307877783F06FF
:103C00003F0C384301269640304200D0511C521CD4
:103C10009A42F0DBC8B2D2BDF8B58A4DBA20400056
:103C200028180090C42105F0B3FFFF20A8302E18FB
:103C30000127B773FF203074A7482C18A772E772CA
:103C40004C382918FA20800002F06CFE377077702B
:103C500001227621FF20B630281808F0E3FD2070FD
:103C60000122C321009808F0DDFD2073C422002149
:103C7000009806F04BF8A2480078C00705D4C4228B
:103C8000C8214901009806F041F800209D4A1070B3
:103C90009D4A90720A211000103005F079FFF1BDA5
:103CA0009A48994942790A7002784A7042788A7033
:103CB0008278CA70C2780A71007948717047F8B585
:103CC000010000200023904A9072914D2C786E786C
:103CD0003606360C34431CD0594C01256E463170E3
:103CE0002178884216DA7B490E00233631787778BE
:103CF0003F063F0C394301268640314205D05B1C0C
:103D000069460978DEB2B14204D3401CE8E79572F7
:103D10000020F2BD21788842F9DA401CC0B2F2BD21
:103D2000F4B584B004000D0068460C2105F030FFA6
:103D3000684B002100220FE01E0023363078777890
:103D40003F063F0C384301269640304203D0684678
:103D5000CEB28255491C521C394E3678D0B2B04290
:103D6000EAD3230000206C460395C5B2C2B2CEB29E
:103D7000B2421BD2625D934218D304D1039AFA2651
:103D8000B600B24212D3401CEFE700236A46127C11
:103D90005D4CE372002A06D05A4A1278C9B28A42B0
:103DA00001D30121A172C0B205B0F0BD0206ECD072
:103DB0006219521E13785B1CE8E7F3B581B0AE4977
:103DC000C97C04220A401024082502266F463F7A47
:103DD000002F17D100280DD0022803D00ED30328BE
:103DE00004D0F7BD21422AD08C2026E0294226D0DB
:103DF0008B2022E0314222D089201EE0002A1ED0F2
:103E00008A201AE0042801D0012F18D100280DD0F3
:103E1000022803D00ED3032804D0F7BD21420ED1CF
:103E200028200AE029420AD1272006E0314206D1A3
:103E3000252002E0002A02D1262003F077FCF7BDFE
:103E40007D210020C81F0020F8B5C84E182231007F
:103E50001B313000173005F03DFEB01D02F06CFD47
:103E600031002F3102F05EFDB11D002002F05AFD3D
:103E7000182231007C313000783005F03FFE3000F0
:103E80006C300090F06E009948620027009807603F
:103E900031003331002002F045FD00988762300088
:103EA000333002F049FD0400B800351828001730FF
:103EB00002F042FD31003331201802F033FD00984A
:103EC000806AA96F4018009988627F1C062FE6DD82
:103ED000F1BD0000980700202B02000010B5A34C94
:103EE000A01C02F029FD2100133102F01BFDA11CD2
:103EF000002002F017FDA06E60670020A06610BDD4
:103F0000882A0020C0080020482A002086090020B6
:103F1000BB070020F8B5954C2600D5366720205CFD
:103F20008000301802F008FD0100914D686A64318C
:103F3000814205D26721615C8900711802F0F2FCB0
:103F4000686A2600CC3631686431814206D230601E
:103F50000522691C2000D03005F0BCFDFF20103088
:103F600027186720205C8000381802F0E5FC01006B
:103F7000A86A6431814205D26721615C89007918A1
:103F800002F0D0FC832040002718380002F0D4FC57
:103F90000100A86A6431814209D2390002F0C2FCF2
:103FA0000522691C85204000201805F093FDFF20A4
:103FB0004A3027186720205C8000381802F0BCFCCB
:103FC0000100E86A6431814205D26721615C8900A1
:103FD000791802F0A7FCE86A716F6431814209D256
:103FE000642807D970670522691CA22040002018A8
:103FF00005F070FDF1BD78B55C4CFF20B63020189F
:104000004178002919D16721615C0078401E814206
:1040100002D10020C04329E088002018FF21BC31D4
:10402000401802F089FC050020000F3002F084FCEB
:10403000FA2189004D43281A18E001291AD14C4968
:104040008D783C2255434E786721615C0078401E94
:10405000814202D1B420C00006E088002018FF2170
:10406000BC31401802F068FC401B801B21003B3132
:1040700002F058FC71BD0000180A0020F8B584B0A9
:104080003A4E350070353000B03001900024A86BF6
:10409000012803DA01990C80EC6365E0AF48016800
:1040A000FA2292008F18076030000F3002F044FCB3
:1040B0000021381801F024FEA96B326F891888425C
:1040C00052D3A6480068E863A5480078C00716D513
:1040D00030000F3002F030FCFA27BF00E96B0818FF
:1040E000390002F0C8FB002909D030000F3002F07F
:1040F00023FCEE6B390002F0BEFB701AE863002669
:104100001A480290D421490040180390007869466B
:10411000087007200978471A07E00298B90040188C
:10412000173002F009FC36187F1C072FF5D330003A
:104130006946097802F09FFB0399897B002911D118
:10414000FA26B600310002F096FB070007D0E86BB4
:10415000310002F090FB390002F08DFB00E01E20E0
:10416000019908807D48046005B0F0BDC81F00209B
:10417000482A0020F0B585B00026002400250196CD
:10418000A94802900078012808D1A848009000684A
:10419000012800DA98E0A6480078002800D0DAE08C
:1041A0000298C07B012803D100994C6000990C81D2
:1041B00000210220FFF701FE00210320FFF7FDFD93
:1041C000039602269B4A9019D42149004018817A0F
:1041D000042319407300D2180492002911D0FF2340
:1041E000AE33D3181A785F783F063F0C3A43FA2370
:1041F0009B005343009A126893429241D243D20FDC
:1042000000E00022029BDB7B002B29D1837ADC07B4
:10421000E40F0394022423400193039B002B07D057
:104220000378009C2489A342AD41ED43ED0F00E0EB
:104230000025019B002B12D0049BFF24AA341C19DB
:10424000237867783F063F0C3B43FA24A4005C4385
:10425000009B5B689C42A441E443E40F00E000241F
:10426000807A030704D513002B4323431B0612D186
:1042700003071BD4400719D00398012343402B4365
:104280001B0613D0002A01D100290FD1200002D132
:10429000019800280AD1022E01D001210CE0002152
:1042A0000020FFF78AFD0121012052E0022E02D1F9
:1042B0000021012001E000210020FFF77EFD761E95
:1042C000F6B2002E47D07DE70020009948600099A3
:1042D00008810021FFF771FD00210120FFF76DFD2E
:1042E0000098807E002806D08648C07CC00632D464
:1042F000012103202DE000210320FFF75EFDFFF7E1
:1043000073FC814C2821615C814219D17F4802F005
:1043100013FB05002000C93002F00EFB85421AD3C2
:104320002100CF3108784A781206120C104322007F
:10433000D132117853781B061B0C194388420AD3DB
:104340002000C3300178032901D10421017001212B
:104350000220FFF732FD05B0F0BD0000802D0020E7
:10436000C1080020F8B5334DFF21A831695C01294F
:104370002ED104002CD02E480078002828D1644E7D
:10438000604FF87C000709D5FF2076303018009088
:1043900002F0D2FA0099001902F0C4FAB87C400683
:1043A00008D5D8483618300002F0C6FA3100001996
:1043B00002F0B8FA2800A8300168091B0160286FD4
:1043C00000192867A86E0019A866E86E0019E8664B
:1043D000F1BD10B5E34C31212000CC3005F0D8FB05
:1043E000312183204000201805F0D0FB3121A0208E
:1043F0004000201805F0CCFB0F20FEF761FE10BD39
:1044000010B5D84C09212000C33005F0BFFB0921AD
:104410002000FD3005F0BAFB3A21FF20383020188B
:1044200005F0B4FB10BD00006F21002070200020BB
:10443000792D0020C81F0020FEB5CA4D280070301D
:1044400000240460046367216C54C7490C70282160
:1044500028003F3005F09AFB2B480100F431019110
:104460000600B9362921405CC00730D528000F303E
:1044700002F062FAFA27BF0029000F3100913900DB
:1044800002F0F9F90800009902F04CFA28000F3008
:1044900002F052FA29003F3102F044FA28000F30AE
:1044A00002F04AFA2880300002F046FA390002F0A1
:1044B000E2F90800310002F035FA019802F03CFA06
:1044C000019D390002F0D7F9080029000BE029000E
:1044D0000F31002002F026FA00202880310002F07F
:1044E00021FA0199002002F01DFAFFF772FF022065
:1044F00005F0F6F89D4884720A21103005F048FB5B
:10450000F7BD0000180A002098080020D71F0020DF
:1045100098040020F8B58AB0924C25007035944E6E
:104520009448301800900078082817D120000F30E8
:1045300002F002FA07009048301802F0FDF921005D
:104540000F31381802F0EEF98C48301802F0F4F907
:10455000216F08182860002000990870884E3000EC
:10456000F83002903000BD3001903000B930039037
:104570002920305CC00760D520000F3002F0DCF944
:10458000FA27BF00210037310091390002F073F99A
:10459000009902F0C7F92000373002F0CDF9210070
:1045A0003731784302F0BEF920003F306721615C6B
:1045B0008900401802F0C0F921003F316722A25C57
:1045C000920089180091390002F055F9009902F023
:1045D000A9F920003F306721615C8900401802F092
:1045E000ABF921003F316722A25C92008918784321
:1045F00002F098F9039802F09FF9019900913900AF
:1046000002F039F9009902F08DF9019802F094F95D
:104610000199784302F086F9029802F08DF9029927
:104620000091390002F027F9009902F07BF9029815
:1046300002F082F90299784312E020000F3002F074
:104640007BF92100373102F06DF9039802F074F91B
:10465000019902F067F93000F43002F06DF9029927
:1046600002F060F931002F31002002F05BF92822BE
:1046700021003F313000483005F02CFAFF20A830EF
:10468000205C012803D1206FA862286B6863270093
:10469000C33709222100CC31380005F01BFA09226A
:1046A0008320400021182000FD3005F013FAFF2080
:1046B00038302618092209302118300005F00AFA8E
:1046C000FFF7BAFE2000373002F036F904903000D0
:1046D00002F032F90690A86A0590019802F02CF9D0
:1046E0000890380002F028F90790204804A9C27801
:1046F0000A7502794A7540798875002005F02EFC0C
:104700000BB0F0BDBF020000F8B500201D49174CEA
:104710000122D54BFF25A4355E5D27780125BD40DC
:104720002E4203D00D78ED0700D5012025796E01CA
:10473000751BE4782C19203CA4B200252D19ED0836
:104740005B19BA2676009B5DED00641BA240134204
:1047500006D002220978114202D00100022008434B
:10476000F2BD0000C81F00205E060020482A00207D
:1047700098040020AB020000A1020000A502000086
:10478000980800203B090020F8B588B0B74FB98BD6
:104790000191B7490978012900D162E1B24CDB21CE
:1047A000490061180291B34D00283FD008780028D5
:1047B0003CD12E20285C002824D0C44EFF20C630D7
:1047C000305C00281ED1C248201803906721615C2C
:1047D0008900401802F0B0F8FFF7C4FDC120400086
:1047E0003018009002F0A8F8060003986721615C79
:1047F0008900401802F0A0F80099301802F092F8F1
:104800000120787220003B3002F096F80021C94365
:1048100088420BD020003B3002F08EF80199814293
:1048200004D320003B3002F087F8019020003F3095
:104830006721615C8900401802F07EF821003F3159
:104840006722A25C92008918019A801802F06AF827
:104850006720205C8600A019FF21E031401802F09B
:104860006BF80490FFF750FF800708D50298007896
:10487000012804D1A8197B3002F05EF80490FA26D2
:10488000B6002088B04201DB0020208020880199FA
:1048900040180790C448059000786946087068463B
:1048A000007800280AD020000F3002F045F83100CF
:1048B00001F0E1FF69460978814234D32800B8301D
:1048C0000390007800282ED02800333002F034F80E
:1048D00029003331019A801802F024F82800A8300A
:1048E000069002F029F800281DD02800333002F08D
:1048F00023F8039909787143884214D32800333090
:1049000002F01AF8290033310091039909787143B4
:1049100001F0B1FF0800009902F004F8069802F0D7
:104920000BF8FFF71FFD68460599497801700029CB
:104930000AD020000F3001F0FFFF310001F09BFF93
:104940006946097881423DD32800EA300390007817
:10495000002837D02800EB30017842781206120C7C
:104960001143019A89180170090A41702900E83140
:1049700005910A46117853781B061B0C194321D068
:10498000017842781206120C1143039A127872438E
:10499000914217D3017842781206120C114300900D
:1049A000080003990978714301F065FF00980170D0
:1049B000090A4170059908784A781206120C1043CA
:1049C000FFF7D0FC2920285CC00711D507983100DB
:1049D00001F051FF04994843FFF7C4FC00203863FD
:1049E00020000F3001F0A8FF310001F044FF2180CA
:1049F0002000AC300090006802990978002200295C
:104A000005D1019B984201D2002000E0C01A009B12
:104A100018602920285CC0071FD4228000291CD1DF
:104A2000079C049844432000310001F024FFFFF765
:104A300099FC3D6B2000310001F01DFF68183863C0
:104A4000310001F018FFFFF78DFC3C6B20003100B6
:104A500001F011FF7043201A3863B88B0199401A96
:104A6000B88309B0F0BD0000C81F0020482A00200C
:104A7000792D0020980800201CB54C4CA078002807
:104A800015D0FFF741FE00281ED16178484A93787F
:104A900024784848A1420CD3A34208D38B4206D2C3
:104AA00051780278914202D3407881420CD30020A1
:104AB00016BD8B4201D3A342F9D35178427891427B
:104AC00002D300788142F2D3012016BD9804002061
:104AD0000702000038B5384C8E2080002518772258
:104AE00080214900280005F005F9344802002532EC
:104AF000117853781B061B0C19430AD0020025328B
:104B0000117853781B061B0C194323300170090AD6
:104B1000417001227621280007F084FE2849615C5B
:104B2000814201D014203BE07721280008F092F860
:104B3000002837D177222900FF20B630201804F052
:104B4000C9FF20000F3001F0F7FE012101F0D8F875
:104B5000FF20FF21B83160541A480088C0061ED4D7
:104B6000194825182878002801D101202870BA207A
:104B7000400024180122C321200007F053FE687072
:104B8000C4220021200005F0C1F8CC480078C007FD
:104B900005D4C422C8214901200005F0B7F8B2208D
:104BA00002F0C4FD31BD00001E0600206C21002073
:104BB000482A00206D080020C81F00209807002008
:104BC000AE020000AC2D002036020000F1B586B028
:104BD00000226846007E052829DC0F00B84D684693
:104BE000007E032816D0BA2040002B18B54968462D
:104BF000007E02E00C5D1B19521CD4B28442F9D332
:104C000069460876AF48097E425C3900180004F016
:104C100061FF27E138002A3001F08EFE002806D01F
:104C200038002A3001F088FEA749884201D30020CD
:104C300026E1AF2002F07AFDA4480078002809D0D0
:104C40000020A34A1070A34A90720A21100010306D
:104C500004F09EFF2422FF20BC302918B81D08F064
:104C6000F7FAC6B22822FF20E030291838002A308F
:104C700008F0EEFAC4B224229748291838005230BE
:104C800008F0E6FAC0B2344320430090FF20B6306B
:104C90002C18009800282BD00020A0700826B87887
:104CA000002809D138782178884205D087480078D3
:104CB000002801D1A670BE70B878042818D1A07061
:104CC0000322F91CDC204000281804F003FF7A7945
:104CD0003979F87807F08AFE002809D438782178E5
:104CE000884205D079480078002801D1A670BE70AE
:104CF000A078FF26022824DC286F76498863772273
:104D00003900200004F0E6FEA078012802D1FFF768
:104D100093FB03E0022801D1FFF7FCFB6B4800780E
:104D200000280CD10098002809D0B92002F0FEFC20
:104D300028000F3001F000FE012100F0E1FFA67015
:104D40008EE0072826D177223900200004F0C2FE29
:104D500028000F3001F0F0FD012100F0D1FF6720A5
:104D6000285C800028183F3001F0E6FDFA21890018
:104D700088428041C043C00FA7490870A670002038
:104D8000534A1070534A90720A211000103004F0F8
:104D9000FFFE65E0082857D177223900200004F093
:104DA00099FE9E489E49411802919E4941180091E2
:104DB0009D49401803900078082807D000990020EA
:104DC00001F0B0FD0299002001F0ACFD009801F067
:104DD000B3FD049028000F3001F0AEFDFA27BF00AC
:104DE0000099019104990091390001F044FD784344
:104DF00000990818019901F095FD029801F09CFDB9
:104E000002992A6F801801F08DFD28000F3001F003
:104E100093FD29000F310091390001F02CFD0800AD
:104E2000009901F07FFD00202867804901F07AFD9C
:104E300028000F3001F080FD012100F061FFA67015
:104E40000820039908700BE001227621380007F052
:104E5000E9FC7621785477228A31380004F056FF35
:104E6000FFF7C9F87248281801210278002A00D1FA
:104E700001701848017300BF18A06946097E405CA4
:104E800007B0F0BD70B5020008000025062A05D164
:104E9000FF21017007214170022070BD654900BFEC
:104EA0000EA402E0A65D89196D1CEEB29642F9D3FC
:104EB000A45C220004F00EFE200070BD882A0020B1
:104EC000C81F0020DC4E000081969800792D00203C
:104ED000C0080020482A00200702000030030E7797
:104EE00009020000F8B50300534C207A18432072E1
:104EF000524DFF20723028180090B9277F00781E8D
:104F0000802212014E4E022B0AD0082B27D0102BE4
:104F10001FD0802B40D0822B73D0832B2DD0F1BD9E
:104F200008784A781206120C1043A28B1018A0833E
:104F30008878CA781206120C1043E28B1018E083AE
:104F400008794A791206120C1043218C0818208423
:104F5000F1BD0C222000243004F0BCFDF1BD3188ED
:104F6000114258D101220100280007F05BFC009992
:104F700008703A00802189000CE0318811424AD142
:104F800001220100280007F04DFC009908703A004A
:104F9000E8218901280031E0C14C3188114215D146
:104FA0002178C90712D401220100280007F03AFC39
:104FB000009908703A0080218900280004F0A6FEBC
:104FC0003A00F0218901280004F0A0FE3088C006D4
:104FD00021D42078C0071ED4B81C2C180122C3216C
:104FE000200007F01FFCB8496854C42200212000AB
:104FF00004F08CFEC422C8214901200004F086FE82
:10500000F1BDFEF74DFEA078E872E07828732079B4
:1050100068736079A873F1BD5E06002098040020D3
:10502000A5020000A1020000AB020000C70800209A
:10503000360200003C210020482A0020C81F002022
:10504000AC2D0020F1B58AB00AA800789F4CA04D85
:105050000027022832D1087805282DD801A1095C43
:105060008F4400BF06343A404A4EB9214900280017
:1050700004F08EFD2763A078E872E0782873207929
:1050800068736079A873002004F06CFE022004F0BD
:1050900069FEFFF76FF80FE0FFF73CFA0CE0FFF74F
:1050A000CBF909E0FFF795F9FFF7AAF904E0002032
:1050B00000E0022004F056FE0120B6E0002801D0F6
:1050C000012828D1072208A804F004FD28009C30FC
:1050D0000190C068009008AE0AA8007800285CD152
:1050E0000098002808DDF01C01F026FC009940180B
:1050F0009021090688420ED2B0782A00B23202927C
:105100004300D25A33889A4206D0012803D003289C
:1051100001D0002879D187E0F01C01F00DFC009946
:1051200008180199C860F01C01F006FC0199096893
:1051300000910A2101F09CFB009908180199086070
:10514000F01C01F0F9FB0199496800910A2101F076
:105150008FFB0099081801994860FF20A830285C4F
:1051600002280BD15B4801F0E7FB0090F01C01F036
:10517000E3FB5849009A101801F0D4FB0298B1786B
:10518000490040180188491C018003A88772052244
:105190008D498E4804F09EFC1BE02F00BA37B07892
:1051A0004000385A3188884203D0207A400639D4EA
:1051B0003AE0F01C01F0C0FB0099081A0199C860A0
:1051C000B078400038180188491C0180012003A9EB
:1051D0008872FEF7CFFF0198C0680390F01C01F0C1
:1051E000ABFB049003AF30883881B078F872FEF7DB
:1051F00057FD0522611C38000C3004F06BFC03A93C
:10520000022004F0ABFEB87A00280BD1112203A9CA
:10521000AC208000281804F05DFC112203A98B4803
:1052200004F058FC072000E000200BB0F0BD80B572
:105230005922874904F04EFC592002BD80B57722DF
:10524000844904F047FC772002BD80B50E228249D4
:1052500004F040FC0E2002BD80B509227F4904F015
:1052600039FC092002BD80B5002004F089FD80B220
:1052700002BD80B50300002004F0F4FD02BD80B53E
:10528000022004F07DFDC0B202BD80B50300022003
:1052900004F0E8FD02BD80B53A22714905E0000046
:1052A000882A002080B53A226E4904F013FC3A2087
:1052B00002BD80B53A226C49F7E780B552226B49AE
:1052C00004F008FC522002BD37020000482A0020EA
:1052D000C81F0020D6080020F8B5664C664D288807
:1052E00020402880624E65483718C2383018009038
:1052F000C422002104F0FEFC012807D10122C321B1
:10530000009807F08FFA7978814204D0288810211C
:105310000143298002E0288804402C803878002846
:1053200001D10120387080242401B9225200A10843
:10533000300004F0DFFC01280AD10122FF21723184
:10534000300007F06FFAFF217231715C814203D0A7
:10535000288804432C8006E02888204203D128882E
:10536000474901402980FEF79BFCAC20800037189C
:105370001121380004F00CFC424D1121280004F0EA
:1053800007FC022004F0FCFC00061CD0022004F004
:10539000F7FCC0B2152816DA022004F0F1FCC0B206
:1053A000394E00E0200001040DD084192A00A1B27A
:1053B000022004F0FFFCA87A0028F3D11122290072
:1053C000380004F087FBF1BD86090020110600209B
:1053D00070B5274C284D2888C00617D5BA20400044
:1053E0002618C422C8214901300004F083FC00289B
:1053F0000CD00122C321300007F014FA2349615C6C
:10540000884203D128881B4901402980288800054B
:1054100017D5B9225200F0218901200004F06AFC5E
:1054200000280ED00122FF217231200007F0FAF986
:10543000FF217231615C884203D128881049014004
:105440002980002001F018F870BD00002606002019
:10545000D71F00207D2100206F210020F421002093
:105460008B200020C5200020FF20002038200020B5
:10547000C81F0020EFFF0000AC2D00203602000006
:10548000FFF70000742C0020FFFF0000370200002F
:1054900063480078C00700D57047F8B58CB010207D
:1054A00004F07AFE002800D151E35E4C8B2080008E
:1054B000201803900120069003998872069803999A
:1054C0004872FF20A830201802900078012808D1E7
:1054D0005548C17B03220A43C273017C13220A434D
:1054E00002745248059052480078002805D005986B
:1054F0000078607305984078A0734E4E3000C93034
:1055000001F01AFA050020000F3001F015FA310001
:10551000C33108913100CF310791854210D208780C
:105520004A781206120C10433200D13211785378A7
:105530001B061B0C1943884202D3042008990870EB
:10554000FEF79CFD3C4D287A3C49611804912100EE
:10555000683100913A4FC1214900791801918107C2
:1055600000D40DE1FD21014029720098006C002853
:1055700008DC3000443001F0DFF931004431AA8BFF
:10558000801808E031004431002001F0CBF9FF2001
:1055900076303918002001F0C5F920000F3001F0F5
:1055A000CBF921000F31AA8B801801F0BBF9A01CA8
:1055B00001F0C2F9A11CAA8B801801F0B3F92148AF
:1055C0000168AA8B891801601F48807C40060AD5B3
:1055D000E02040003F18380001F0AEF93900AA8BF6
:1055E000801801F09FF920000F3001F0A5F90A9012
:1055F0003700C437380001F09FF90A99814225D35A
:10560000380001F099F9002820D008980078002887
:105610001FD1069808990870B72002F087F818E0A3
:10562000882A0020C81F00205C0A00208909002069
:10563000792D002098080020482A00200702000049
:10564000980400205C2C0020180A002000200899F3
:105650000870A01D01F070F9A11DAA8B801801F03F
:1056600061F93700B937380001F066F93900EA8B83
:10567000801801F057F93700F437380001F05CF971
:1056800039002A8C801801F04DF90020E883029837
:10569000C07B002800D05DE20027FA208000029045
:1056A000FF20A8302018807B401E874200DB50E29C
:1056B00020000F3001F040F90890B8002018FF21B9
:1056C000BC31401801F038F90899029A50438142E0
:1056D00000D23EE27F1CFFB2E2E70120FFF754F860
:1056E0006720205C401C672160540020C849C874B2
:1056F000FEF781FC069868726720205CB842ECDBFC
:10570000FEF779FC0020FFF73FF82E20305C0028E0
:105710002ED0BF4FB87C00282AD020003F30672110
:10572000615C8900401801F007F9FA21890088427C
:105730001ED3F87C00281BD104986721615C890086
:10574000401801F0F9F8FEF70DFE019801F0F4F8A9
:10575000069004986721615C8900401801F0ECF81C
:105760000199069A101801F0DDF80120F8746872AA
:105770000298C07B002801D100F006FDFEF7FAFC7C
:10578000287AC10700D4D4E1FE270740FEF788FA43
:10579000B8060AD53800DF270740A878E072E87815
:1057A0002073287960736879A0732F72FFF764F90A
:1057B000C2216054A27B0398807A617B4118C9B2F0
:1057C0000398407A07F012F9002800D56CE1914F58
:1057D000B12080003918002001F0A4F88E48391853
:1057E000002001F09FF8C4204000391808784A785A
:1057F0001206120C1043FF21B431791806910027CC
:10580000002803D00878032800D00F7020000F3044
:1058100001F092F8FA218900884212D20098006CB7
:10582000009989684018009908640098876000987A
:1058300007600098476030002A3001F07DF8FEF7DD
:1058400091FD28217754AF720A212800103004F00E
:105850009FF9C54F3800C330099001F06DF80A90E8
:105860002000C330089001F067F80A9981420CD2F9
:10587000089801F061F8099901F054F80522210017
:10588000C7313800C73004F025F93800CC30089013
:1058900001F052F80B90FF20383020180A9001F0E8
:1058A0004BF80B9981420DD20A9801F045F80899FE
:1058B00001F038F80522FF203C3021183800D030A4
:1058C00004F008F9617B287907F0B6FA002809D0BE
:1058D00005980078072805D00A2803D0012801D0B0
:1058E000042807D10899002001F01CF8099900202C
:1058F00001F018F8287960736879A073079800217F
:105900000170417002980078012800D0A8E02000C2
:105910000F3001F011F8A16E009A5268009B9B684D
:10592000009F3F6C0897FA27BF00B84219D303982D
:10593000406805901F1808180A90059810180990DB
:105940003800642100F097FF0399097A48430899C9
:10595000059A891A091A08913B180A990918099A8F
:1059600012180898009F386400988360009842607D
:105970000098016001276F720298C07B00286ED1E9
:105980006720205C002849D021003F3180000818A2
:1059900000F0D2FFFA21890088421CD36720205CE6
:1059A000082818DC0699897C012903D12E21715C15
:1059B000002954D104998000081800F0BDFFFEF7BB
:1059C000D1FC019800F0B8FF009004986721615C59
:1059D000890040183CE02E20305C00283FD1C048B0
:1059E000201800906721615C8900401800F0A4FF36
:1059F000FEF7B8FC019800F09FFF04900098672123
:105A0000615C8900401800F097FF0199049A23E037
:105A10004B06002098040020C902000020003F30FF
:105A200000F08AFFFA218900884218D30698807C0A
:105A3000012803D12E20305C002810D1049800F0FA
:105A40007BFFFEF78FFC019800F076FF0090049832
:105A500000F072FF0199009A101800F063FF6F7256
:105A6000FEF758FD9F49002000F05CFF01990020DF
:105A700000F058FFFEF7BFFA0298007C032801D11E
:105A8000FFF728F820000F3000F056FF31003331C7
:105A900000F048FF20000F3000F04EFF3100EB31E6
:105AA0000870000A48700BE005984078059909785D
:105AB000627B8A4202D1A27B824201D06173A073D1
:105AC000A878E17A814202D0E072FEF707FA207BE3
:105AD000E97888422BD0012003F002FEE878207399
