:10000000A01F002095220000CD1C0000D71C00007E
:1000100000000000000000000000000000000000E0
:10002000000000000000000000000000E11C0000D3
:100030000000000000000000E31C0000E51C0000C0
:10004000E71C0000E91C0000051D0000071D000062
:10005000091D0000000000000B1D0000391D0000FC
:10006000451D000000000000731D0000A11D0000E0
:10007000C71D000000000000CF1D0000E31D0000B0
:10008000F71D00002D1E0000711E0000731E0000F1
:10009000751E0000771E0000791E00007B1E000008
:1000A0007D1E000000000000000000000B12000098
:1000B0000000000000000000000000000000000040
:1000C00070B50024AE4DA4B228550124002911D0EA
:1000D0008878AB4D2600B6B2A855641C4878A84D68
:1000E0002600B6B2A855641C0878A5492500ADB213
:1000F0004855641C1D00280080B200280AD0110059
:100100002A0092B29E4823009BB2C618300000F02D
:1001100027FA6419200080B270BD00B501000120EB
:100120008978402900DB0220C0B200BDF8B5040088
:100130000F000025032680210902924800F079FB78
:100140002000C0B2012807D1002300220021052091
:10015000FFF7B6FF050009E0E4B2022C06D1002348
:10016000002200213520FFF7ABFF0500864800681C
:100170000121884384490860290089B2804800F041
:10018000BFFB00280CD13800012100F0EFFB002854
:1001900006D17D480068012101437B4801600026AB
:1001A00080210902774800F029FB3000C0B2F2BD7F
:1001B00080B5002069460870062069460120FFF7D7
:1001C000B5FF0100C9B2002906D168460078C00712
:1001D00001D4072000E00620C0B202BD38B50025DA
:1001E0000020042480210902664800F022FBFFF76A
:1001F000DFFF072806D0280005006D1CC821C900B4
:100200008842F4D3C820C000854219D25E480068F5
:10021000012188435C490860002300220021062058
:10022000FFF74EFF010089B2554800F069FB002836
:1002300006D155480068012101435348016000245C
:10024000802109024F4800F0D9FA2000C0B232BD27
:1002500038B50022042400256A46107068464170B3
:1002600080210902474800F0E4FAFFF7B7FF0028B1
:1002700028D1FFF79DFF072806D0280005006D1C38
:10028000C821C9008842F4D3C820C000854219D2D1
:100290003D480068012188433B49086002236A46C3
:1002A00000210120FFF70CFF010089B2344800F063
:1002B00027FB002806D13448006801210143324859
:1002C00001600024802109022E4800F097FA2000E6
:1002D000C0B232BD10B5052400F0F6FA00210020AE
:1002E000FFF7B6FF002800D100242000C0B210BDE7
:1002F000F1B50F00160004240025802109022148D1
:1003000000F097FA0098FFF708FF01282ED1FFF7B9
:1003100065FF00282BD1FFF74BFF072806D02800E8
:1003200005006D1CC821C9008842F4D3C820C00054
:1003300085421CD233003A001348006801218843EB
:10034000114908609BB200990220FFF7B9FE010035
:1003500089B20B4800F0D4FA002808D10A48006896
:100360000121014308480160002400E002248021AB
:100370000902044800F042FA2000C0B2F2BD0000B9
:10038000300D00202000004048000040F1B50F0073
:10039000160000200324002580210902204800F0D7
:1003A00048FA0098FFF7B9FE012830D1FFF700FFA7
:1003B000072806D0280005006D1CC821C900884206
:1003C000F4D3C820C000854222D21648006801211B
:1003D0008843144908600023002200990320FFF796
:1003E0006FFE010089B2104800F08AFA00280FD190
:1003F0003100380089B200F0B9FA002808D1094864
:1004000000680121014307480160002400E0022444
:1004100080210902024800F0F1F92000C0B2F2BDCB
:100420002000004048000040300D0020F8B50600D4
:100430000925002480210902224800F0FAF98221CE
:1004400049000022204F380000F0D4FA3000FFF7B6
:1004500064FE01282DD1FFF7C1FE00282AD1FFF745
:10046000A7FE072806D020000400641CC821C9008C
:100470008842F4D3C820C00084421BD213480068CD
:100480000121884311490860002300223100202007
:10049000FFF716FE010089B20B4800F031FA002880
:1004A00008D10A480068012101430848016000257D
:1004B00000E0022580210902024800F09FF928008F
:1004C000C0B2F2BD20000040300D002048000040C6
:1004D000F8B506000D001400042100226F46380014
:1004E00000F088FA3100684600F01EF8220092B24F
:1004F00029006846FFF74AFF0020F2BDF8B5060064
:100500000D001400042100226F46380000F072FA3A
:100510003100684600F008F8220092B229006846CF
:10052000FFF7E6FE0020F2BD0A0002700A0A4270E0
:100530000A00120C8270090EC170704738B50400B1
:100540000020042100226D46280000F053FA21000B
:100550006846FFF7E9FF6846FFF768FFC0B232BDA3
:10056000124207D08B0706D00B78491C0370401C41
:10057000521EF7D87047830706D00B78491C0370CA
:10058000401C521EF9D1704770B4103A03D378C999
:10059000103A78C0FBD2530701D318C918C001D54F
:1005A00008C908C0D20704D30B880380891C801CAB
:1005B000002A01D50B78037070BC704780B5022209
:1005C0004121884800F050F94121864800F016F991
:1005D0004121844800F02DF904224121814800F096
:1005E00043F9022220217E4800F03EF920217C4878
:1005F00000F004F9C82000F03DFA2021784800F00E
:1006000018F9022280218900764800F02DF9002097
:1006100000F062FA0222C021C901724800F024F9F8
:10062000802189006F4800F0E9F8642000F022FA88
:10063000802189006B4800F0FCF88021C9016948DD
:1006400000F0DCF880218901664800F0D7F86420CA
:1006500000F010FA8021C901624800F0EAF8802118
:100660008901604800F0E5F8642000F003FA802179
:10067000C9015C4800F0C2F880218901594800F0A6
:10068000BDF80422C021C901564800F0EDF802224D
:100690000121564800F0E8F80121544800F0C9F85B
:1006A0000121524800F0AAF80121504800F0C1F899
:1006B000C02189004D4800F0BCF80222C021890009
:1006C0004A4800F0D1F802220121494800F0CCF854
:1006D000022280214901474800F0C6F880214901E3
:1006E000444800F08BF80121414800F087F8802150
:1006F00009023C4800F082F80222802109023948B0
:1007000000F0B2F8C021C901384800F092F8022286
:10071000C021C901354800F0A7F8C021C9013348FC
:1007200000F087F8022204212F4800F09DF80421F0
:100730002D4800F063F80C222F49294800F094F866
:1007400002220221294800F08FF80221274800F0F8
:1007500070F804222021254800F086F80C2202219E
:10076000214800F081F80C2280214900214800F046
:100770007BF802228021C9001E4800F075F8802114
:10078000C9001C4800F03AF80422802109021748E9
:1007900000F06AF80121174800F04BF8022201210D
:1007A000144800F061F80121124800F027F80421F4
:1007B000104800F03EF80C2204210E4800F054F8D6
:1007C0000A210C4800F035F802220A21094800F0FD
:1007D0004BF80A21074800F011F801BD00000000A5
:1007E00010400140200000406000004080000040B8
:1007F000A000004040000040540A000080B52D4A8F
:10080000904203D189B200F0CDF911E02B4A904219
:100810000BD02B4A904208D0254A904205D0264A58
:10082000904202D0274A904202D189B200F0B5F935
:1008300001BD80B51F4A904203D189B200F0BCF9D6
:1008400011E01E4A90420BD01D4A904208D0184A2F
:10085000904205D0184A904202D01A4A904202D1E2
:1008600089B200F0A4F901BDE0B5124B984207D15E
:1008700092B2019289B20091694600F06BF915E0DD
:100880000E4B98420BD00E4B984208D0084B984222
:1008900005D0094B984202D00A4B984206D192B239
:1008A000019289B20091694600F02AF907BD000063
:1008B00060000040104001408000004020000040E7
:1008C00040000040A000004080B586B0444800F0E1
:1008D0007BF900200390002000908020C00004904D
:1008E00020200190102002900020059069463C488D
:1008F00000F087F901213A4800F096F907B000BDF1
:10090000F8B507000E000024002500E06D1C28004B
:10091000310080B289B2884226D2280080B2385C89
:100920003049086030492E4800F08CF9002804D086
:1009300020000400641C6428F4D3642C12D22B48D9
:100940000068002000242849254800F07BF9002891
:1009500004D020000400641C6428F4D3642CD5D394
:10096000012002E0012000E00020F2BDF1B50F00FF
:1009700000241126002500E06D1C2800390080B2FB
:1009800089B288422AD23000C0B21649086000E01D
:10099000641C1549124800F055F9002802D014488B
:1009A0008442F5D31248844207D200240F480068DD
:1009B00000992A0092B2885402E001200FE0641CE2
:1009C0000949074800F03EF9002802D0084884424F
:1009D000F5D307488442CFD3012000E00020F2BDC8
:1009E00000580140085801401000002010580140F4
:1009F000102700001206130A1A43130C1A4300BFF3
:100A0000094205D0830705D00270401C491EF9D168
:100A100070470000130030B414001500103902D3E1
:100A200010393CC0FCD2490700D30CC000D504C02B
:100A3000890002D30280801C002900D5027030BCDE
:100A40007047000001B50098411E0091002810D0A9
:100A500000BF00BF00BF00BF00BF00BF00BF00BF9E
:100A600000BF00BF00BF00BF00BF00BF00BF00BF8E
:100A7000E9E701BD01B50098411E0091002804D0AE
:100A8000FA208000FFF7DEFFF5E701BD0F480068A0
:100A9000402188430D49086000200D49086000206E
:100AA0000A49086000200B490860704701684268E5
:100AB0000A4307490A600549096887229143C268C9
:100AC00080681043084301490860704708080140E6
:100AD000040801401808014000B5012806D1074864
:100AE0000068402101430548016005E003480068B3
:100AF000402188430149086000BD0000080801400A
:100B000010B5304A904203D10A6804239A430A6020
:100B10000A79920709D5C2680B689A430B79DB07FB
:100B200002D513000A681A43C26002680B689A4330
:100B300043680C68A3430C79240702D51C000B689A
:100B400023430C79640702D514000A68224302602B
:100B5000436010BD10B50A79920709D5C2680B68C9
:100B60009A430B79DB0702D513000A681A43C26067
:100B700002680B689A4343680C68A3430C79240706
:100B800002D51C000B6823430C79640702D51400BE
:100B90000A6822430260436010BD826889B20A433A
:100BA00082607047826889B20A43826070478268B7
:100BB00089B28A4382607047826889B28A438260C0
:100BC00070470000A000004081B00021009100218A
:100BD00001600168802212010A43026001682C4A08
:100BE0000A400260016900910099491C009180212E
:100BF0000902416080210902C1600021416101B008
:100C0000704710B40368234A1A400B684C681C43B1
:100C10008B6823430C691C434B692343C968194300
:100C20001143016010BC704700B5012905D101686E
:100C3000802212020A43026003E00168164A0A4059
:100C4000026000BD00B54A0F520780231B069A427E
:100C500007D140680840002801D0012016E000209C
:100C600014E04A0F52078023DB059A4207D1C0687F
:100C70000840002801D0012008E0002006E040697B
:100C80000840002801D0012000E0002000BD000045
:100C9000FFF7FFFFC8F8FFFFFF7FFFFF10B504005D
:100CA0002078C00712D58D480068082188438B49F9
:100CB00008608A480068102188438849086087488E
:100CC00000688749086000208649086086480068F7
:100CD0004021884384490860844800688021884313
:100CE00082490860207800070FD57C480068802181
:100CF00088437A49086079480068216A0143774847
:100D000001607648006876490860207880072DD514
:100D1000764800688021884374490860E06820288C
:100D20001AD16E480068202101436C4801606B486D
:100D300000686B4908606E48006807218843216994
:100D400001436B4801606B48006820218843A1681B
:100D500001436848016009E0604800682021884339
:100D60005E4908605D4800685D490860207840077A
:100D700034D5A069402827D1584800684021014354
:100D80005648016055480068554908605848006851
:100D900078218843E1690143554801606069102862
:100DA00009D14E480068802101434C4801604B48FE
:100DB00000684B4908604F4800681021884361690A
:100DC00001434C48016009E04448006840218843E1
:100DD000424908604148006841490860207880061F
:100DE0000AD54448006802218843616A01434148AA
:100DF0000160A06A00F098F92078C0075ED56068AD
:100E0000002803D160683749086057E0606801280E
:100E10000DD13248006880210143304801602F48DD
:100E200000682F49086060682E49086046E06068E5
:100E300002281ED12948006840210143274801604B
:100E40002648006826490860002093490880934896
:100E50000068C00709D4904800880100491C8E4AE8
:100E6000118080B28E498842F1DB60681D490860BC
:100E700024E0606804281ED118480068202101433E
:100E8000164801601548006815490860002082492D
:100E9000088082480068800709D47F4800880100E4
:100EA000491C7D4A118080B27D498842F1DB60682F
:100EB0000C49086002E060680A4908602078400632
:100EC00003D5E06A401E774908602078000603D504
:100ED000206B401E7449086010BD00008C0F00207C
:100EE0000C420140043E01402842014008420140BA
:100EF000244201400840014000B56C4800684007AA
:100F0000400F68490968C9B2491C002806D0022868
:100F10000ED008D3042877D062D3B1E0C820C00334
:100F200000F01CF9ADE0C820C00300F017F9A8E0FC
:100F30005F4802687820104000282AD008282DD069
:100F4000102830D0182833D0202835D0282838D081
:100F500030283AD038283DD0602806D0682809D0FB
:100F600070280CD078280FD038E0C820000400F09A
:100F7000F5F834E0FA20000400F0F0F82FE09620B5
:100F8000400400F0EBF82AE0AF20400400F0E6F85F
:100F900025E0C820400400F0E1F820E0E120400412
:100FA00000F0DCF81BE0FA20400400F0D7F816E06F
:100FB000404800F0D3F812E09620800400F0CEF80C
:100FC0000DE03D4800F0CAF809E0AF20800400F0D1
:100FD000C5F804E0394800F0C1F800E0002050E016
:100FE000374800688007800F002804D18020000265
:100FF00000F0B4F807E0012804D18020800100F05F
:10100000ADF800E000203CE0294800684007400FB0
:1010100000280BD0022813D00DD304281AD014D3E3
:10102000062821D01BD3072823D027E0C82040045E
:1010300000F094F823E0C820000400F08FF81EE0D0
:10104000C820C00300F08AF819E0C820800300F02F
:1010500085F814E0C820400300F080F80FE0C820B5
:10106000000300F07BF80AE0C820C00200F076F828
:1010700005E0C820800200F071F800E0002000E0E8
:10108000002000BD80B5FFF737FF07490968C9B2E6
:10109000491C00F063F802BD9A0F00205442014041
:1010A00088130000083E01400C3E0140043E014010
:1010B000244201400000260200008A020000EE02E5
:1010C0005848014000B5002806D01348134908606D
:1010D00013481F49086005E00F481049086011488F
:1010E0001B49086000BD00B500201949096889073F
:1010F00004D501000800401CC829F6D300BD00B586
:10110000144909680840002801D0012000E00020AF
:1011100000BD104908607047A55AA55A44480140CF
:101120005AA55AA55BA55AA510B504000A4800683F
:10113000032188430443FFF7D6FF0020FFF7C2FFD7
:10114000054804600120FFF7BDFFFFF7CCFF10BD8D
:101150004848014050480140584801400022030AD5
:101160008B420BD203098B4219D243088B422ED2F9
:10117000411A00D20146524110467047FF2209022F
:101180003FD012068B4205D3121209028B4201D3C3
:101190001212090203098B4219D300E0090AC3099C
:1011A0008B4201D3CB01C01A524183098B4201D338
:1011B0008B01C01A524143098B4201D34B01C01A23
:1011C000524103098B4201D30B01C01A5241C3089B
:1011D0008B4201D3CB00C01A524183088B4201D30A
:1011E0008B00C01A524143088B4201D34B00C01AF6
:1011F0005241884200D3401A5241CFD20146104694
:10120000704708B500F002F808BDFEE7704700001F
:1012100038B504002068056920680561680600D4B7
:10122000B5E0A0688068002800D1B0E0206840697F
:10123000400600D4ABE06068007CC0076AD5280790
:1012400068D5A068007E022828D120680069400681
:10125000FBD520680069000756D520684069082141
:10126000884321684861206800690821014320689B
:1012700001616068006901218843616808616068F4
:10128000406804210143606841606068006800288C
:101290003AD0202061680968884735E020680069F5
:1012A0004006FBD52068006900072DD5206800693D
:1012B0000821014320680161206800694006FBD5D0
:1012C0002068006900071FD520684069082188430D
:1012D0002168486120680069082101432068016194
:1012E000606800690121884361680861606840683E
:1012F000042101436068416060680068002803D0F1
:1013000020206168096888472068056920680561B0
:1013100008208543A0680069A168096888420CD24A
:10132000A0688068411CA268916000782168C8604C
:10133000A0680069401CA1680861A0680069A168F4
:101340000968884213D12068406940218843216898
:10135000486160684068012188436168486060684E
:101360000068002803D001206168096888472807C1
:101370000DD5606840680421014360684160606881
:101380000068002803D00820616809688847A8061B
:1013900000D4C5E0A068C068002800D1C0E0206883
:1013A0004069800600D4BBE06068006980076AD5A8
:1013B000680768D5A068407E022828D120680069A7
:1013C0008006FBD520680069400756D52068406933
:1013D0000421884321684861206800690421014391
:1013E00020680161606800690221884361680861C2
:1013F0006068406808210143606841606068006877
:1014000000283AD0402061680968884735E02068A4
:1014100000698006FBD52068006940072DD520684B
:101420000069042101432068016120680069800689
:10143000FBD52068006940071FD52068406904215A
:1014400088432168486120680069042101432068BD
:101450000161606800690221884361680861606811
:1014600040680821014360684160606800680028A6
:1014700003D04020616809688847206805692068B2
:10148000056180208543A0684069A1684968884259
:101490000CD2A068C068411CA268D1602168C968EC
:1014A0000170A0684069401CA1684861A06840695B
:1014B000A1684968884213D1206840692021884387
:1014C000216848616068406801218843616848601C
:1014D00060680068002803D00220616809688847B6
:1014E00028060DD5606840680221014360684160AC
:1014F00060680068002803D0042061680968884794
:1015000068070DD560684068082101436068416044
:1015100060680068002803D0102061680968884767
:1015200031BD80B50148FFF773FE01BD7022000098
:1015300010B513005A1E002B12D0030008780002C9
:101540005840491C00231C00E4B2082CF1DA0404C2
:1015500001D4400002E04400A54860405B1CF2E773
:1015600080B210BD0A0002700A0A4270090C817034
:10157000704710B5040072B6200000F04DF962B655
:10158000002000E0401C80218900884204D2215CB8
:10159000FF29F7D0022000E0002010BD70B5040044
:1015A0000E00150072B62A003100200000F045F947
:1015B00062B600F07FF9012801D002200BE0002084
:1015C00000E0401CA84205D2215C325C9142F8D078
:1015D000022000E0002070BD38B50C0015000100AD
:1015E0006846FFF7BFFF2A0092B221006846FEF767
:1015F000CDFE002801D1002000E0012032BDF0B571
:1016000085B007003800C0B2032801DB0620CBE01C
:10161000784800783900C9B2884201D10020C3E07F
:1016200076483900C9B204225143405803900C2235
:1016300069460398FFF7D0FF002801D00120B3E0EE
:10164000684600886E49884212D16846C0793900E0
:10165000C9B288420CD168464088002808D0684644
:1016600040886849884203D268468079092801D3B6
:10167000062099E06846408863494018440A0025DE
:1016800000E06D1CA5420DD2802080006843F0214F
:1016900089024018FFF76DFF0100C9B20029F0D0A0
:1016A000C0B281E003980C3004900024574D12E042
:1016B00032005749280080B2FFF73AFF0500320098
:1016C0005349F02080022018FFF768FF0100C9B2DB
:1016D00000291BD1A41968464088844218D2684664
:1016E0004088001BFF21891C884202D38026760097
:1016F00002E068464088061B3200454904980019FC
:10170000FFF76AFF0028D3D001204DE0C0B24BE0C4
:1017100068468088ADB2854201D0042044E0039839
:101720006946498840180C3069468A7904214A4341
:101730003849FFF751FF002801D0012034E0002094
:1017400013E034490200D2B204235A43891849886D
:10175000F0229202891801220A4326490300DBB2D3
:1017600004246343C9184A60401C01006A46927908
:10177000C9B291420CD227490200D2B204235A4383
:10178000891849886A4652889142DAD306200BE0CC
:1017900018480770684680791649487016480068EE
:1017A000401C15490860002005B0F0BD00B5114986
:1017B0000978C0B2814201D1012000E00020C0B20E
:1017C00000BD00B50B4A1278C0B2824206D10800B3
:1017D000084A527880B292B2904201D3002005E0CC
:1017E000044889B204224A438018406800BD0000C2
:1017F0002110000000000020840F00207C22000047
:101800004D4D000001400000FF010000FFFF0000FF
:10181000340E0020340F002000B52B492B4A1160F4
:101820002B4908602B482C4908602B480068002889
:10183000FBD100202549086000BD30B5224B234C68
:101840002360234B186000230EE00C78284D2C7089
:10185000491C08E0C418A407A40F022CF5D10C7889
:10186000224D2C70491C5B1C934213D2C418A40750
:10187000A40F002C04D10C78184D2C70491CF2E7F1
:10188000C418A407A40F012CE4D10C78194D2C70B6
:10189000491CE8E700201249088012480068012826
:1018A00004D00F48008810498842F6DB0020074921
:1018B000086030BD00B50B480068012801D1012047
:1018C00000E0002000BD000055AAAA55E0FF0F006F
:1018D000E8FF0F00AA5555AAF4FF0F00ECFF0F0018
:1018E0009C0F0020BCFF0F0010270000EEFF0F0030
:1018F000EFFF0F00EDFF0F00F3B585B005001700F7
:101900001E00280000F00AF9002003900320009038
:101910003000C0B2002840D17948854209D17948C9
:101920000078012101437748017001207649087051
:101930005CE07648854209D1724800780221014373
:10194000704801700220704908704FE0704885426D
:1019500009D16C480078042101436A4801700420D1
:101960006949087042E06B48854209D165480078B2
:10197000102101436348017010206349087035E06D
:101980006548854232D15F480078202101435D4897
:10199000017020205C49087028E05948854203D135
:1019A0000120594908701AE05848854203D10220A5
:1019B0005549087013E05648854203D10420524926
:1019C00008700CE05348854203D110204E4908703E
:1019D00005E05148854202D120204B490870494812
:1019E000007849490978884346490870FFB2022FB8
:1019F00004D1F6B201960220029003E0002001908B
:101A0000002002900698302811D1962040000490C2
:101A100028003B49401A08D0203840D0203840D018
:101A2000403840D0203840D040E006243EE0312805
:101A300003D1962080000490EAE7322803D1962053
:101A4000C0000490E4E7332803D1962000010490FD
:101A5000DEE7342803D1962040010490D8E73528EA
:101A600003D1962080010490D2E7362803D1962036
:101A7000C0010490CCE7372803D1E1204002049054
:101A8000C6E7382803D1E120C0010490C0E7392817
:101A900003D1E12000020490BAE700202DE00724E2
:101AA00004E0082402E00A2400E00B246946280030
:101AB00000F048F801220821280000F06DF81648CF
:101AC00085420AD101220121280000F073F8012289
:101AD0000221280000F06EF804E001220121280014
:101AE00000F068F801220221280000F063F80021CC
:101AF000200040B200F0D4F8012007B0F0BD000093
:101B0000001801409F0F00209E0F00202018014068
:101B10004018014080180140A018014081B0002108
:101B20000091016800910099491C00913F21C1601A
:101B30003C2141600021016100214161002181605F
:101B400001B07047FEB505000C00A868032188436A
:101B500021680143019168690F2188436168A26887
:101B60000A43E168114301436961FFF78BFA0600FC
:101B700030002169FFF7F2FA070020694008009061
:101B800030002169FFF7EAFA0098884200D27F1CF2
:101B90002F610198A860F7BD00B5D2B2012A03D128
:101BA00082681143816002E082688A43826000BDDE
:101BB000C160704700B5012A03D18268114381607A
:101BC00002E082688A43826000BD00000121C006F5
:101BD000C00E81402C48016070470121C006C00E34
:101BE00081402A4801607047F0B5020052B2002AD5
:101BF00023D5274B020052B21207120F083A92085F
:101C000004246243224C05006DB22D072D0F083DC0
:101C1000AD08042675436459FF258607B60F0827CB
:101C20007E43B540AC438901C9B28007800F0825C7
:101C300068438140214399501BE0164A03005BB280
:101C40009B0804246343D258FF238407A40F08256C
:101C50006C43A3409A438901C9B283079B0F0824B0
:101C60006343994011430B4A40B280080423584310
:101C70001150F0BD00B5BFF34F8F0748074908600A
:101C8000BFF34F8F00BFFDE700E100E080E200E01E
:101C90001CED00E000E400E00400FA050CED00E0BB
:101CA00038B505000C00280040B2FFF796FF210070
:101CB000280040B2FFF798FF280040B2FFF786FFE8
:101CC00031BD80B5FFF7D6FF01BD000080B50F2004
:101CD000FFF7F7FFFEE780B51020FFF7F2FFFEE702
:101CE000704770477047704780B50420FFF707FAC8
:101CF000002802D00420FFF70CFA0020C043FFF7B1
:101D000008FA01BD70477047704780B502214D4801
:101D1000FFF74EFF0021C9434A48FFF749FF022160
:101D20004848FFF745FF02214648FFF741FF0221DF
:101D30004448FFF73DFF01BD80B502214248FFF74F
:101D400037FF01BD80B502214048FFF731FF002178
:101D5000C9433E48FFF72CFF02213C48FFF728FF0C
:101D600002213A48FFF724FF02213848FFF720FFFD
:101D700001BD80B502213648FFF71AFF0021C94393
:101D80003348FFF715FF02213148FFF711FF022109
:101D90002F48FFF70DFF02212D48FFF709FF01BD76
:101DA00080B50021C9432B48FFF702FF02212948D3
:101DB000FFF7FEFE02212748FFF7FAFE0221254821
:101DC000FFF7F6FE01BD80B5FFF7ABFB01BD80B5A7
:101DD000214800F05DF8002802D01F4800F060F8AC
:101DE00001BD80B51D4800F053F8002802D01B4803
:101DF00000F056F801BD80B519480068401C18492C
:101E00000860184800F044F800280ED0154800F08B
:101E100047F815480068401C1349086012480068DC
:101E2000642802D300201049086001BD80B50F4826
:101E300000F02EF8002802D00C4800F031F801BD67
:101E40000000000000180140201801404018014027
:101E500080180140A01801400028014020280140BE
:101E6000900F002040280140940F0020602801407E
:101E700070477047704770477047704780B5802043
:101E800000F012F8002802D0802000F017F801BD01
:101E900000B5C068C00701D5012000E0002000BDEA
:101EA0000121C1607047000000B50649096808407B
:101EB000002801D0012000E0002000BD0149086099
:101EC000704700006042014000B5294800680121C8
:101ED0008843274908602648006826490860002092
:101EE0002549086025480068032188432349086084
:101EF0000320234908600020224908802248006806
:101F0000002809D51F4800880100491C1D4A11807E
:101F100080B21E498842F1DB00201B49086000BDE9
:101F200000B5002118490968194A0A40C368816848
:101F3000194311430268002A0CD14268002A05D1D6
:101F4000F02291430069000108430EE080208003E5
:101F500008430AE04268002A04D10F229143006935
:101F6000084302E08020400308430749086000BDA1
:101F70008C0F00200C4201400442014064420140A9
:101F800060420140980F0020684201408813000021
:101F900000E0C8FF00B507490968012805D12020E5
:101FA000814308001021014301E0102081430148D2
:101FB000016000BD0442014038B5012000F044F842
:101FC00000F068F8FEF7FAFAFEF784F96420FEF7ED
:101FD00051FDFEF779FC0020FEF7B0FA6420FEF711
:101FE00049FD002419E015480068051980225200B7
:101FF000134801192800FEF781FA6420FEF73AFD24
:10200000802252000C4801192800FEF761FA642072
:10201000FEF730FD8020400024180A480068844202
:10202000E1D36420FEF726FD00F04AF8FA20800094
:10203000FEF720FDFAE7000010020020880F0020C4
:10204000240000200C02002000B58DB0E321009197
:10205000042101910100C9B2002904D1012004909A
:1020600002200C9006E0C0B2012803D100200490A9
:1020700001200C9000200290202003900020099065
:1020800000200A9001200B906846FEF707FE0DB075
:1020900000BD000080B5FEF717FC0121A02000F074
:1020A00023F800F03BF80023002230210348FFF71B
:1020B00023FC8020400000F049F801BD8018014059
:1020C00080B50020FFF772FB002804D10020FFF745
:1020D00096FA002807D100210020FFF772FB0100CB
:1020E000002900D0804701BDF8B500220292C9B294
:1020F000022902D18121039101E082210391002173
:102100000191C0B20090FEF7C1FC6846FEF7CEFC1C
:102110000120FEF7E1FC05B000BD000000B585B070
:10212000FFF7D2FE802000060090002001900920D9
:102130000490C02080000390002002906846FFF7C2
:10214000EFFE0020FFF726FF05B000BD00B50449F3
:1021500009680840002801D0012000E0002000BDEF
:102160005442014070B40123002413E00168001DB3
:10217000194202D04D466D1E49190C60091D121FEF
:10218000042AFAD20D00960701D50C80AD1C1A4026
:1021900000D02C700268001D002AE7D170BC704787
:1021A00030B501684118446862088A188368E407FA
:1021B0000DD54C461B190AE00C7864B2491C0D7809
:1021C000491C1D705B1C002C05D5641CF9D1914283
:1021D000F2D10C3030BD641EF1D5F8E710B50749D7
:1021E00079441831064C7C44163404E0081D0A6812
:1021F000891888470100A142F8D110BD08000000ED
:102200002400000061FFFFFF900D0000100200207D
:10221000000000008DFFFFFF840000005C03000051
:102220000000002000F00DF8002801D0FFF7D6FFD5
:1022300000BF00BF002000BF00BFFFF7BDFE00F0E1
:1022400002F80120704780B500F002F801BD0000DF
:102250000746384600F002F8FBE7000080B500BFF3
:1022600000BF024A11001820ABBEFBE726000200A7
:1022700000200140700F0020540F002000000000DB
:10228000004000000080000000BF00BF00BF00BF92
:10229000FFF7C8FF00480047892200000003DD0067
:1022A000FC4D35F10A00009E7C0800250600005F09
:1022B0000600008B06000095060000090700002BB1
:1022C000070000670700008107000040100020E1C0
:1022D0000A0000E1030000EB03E20001F503F60051
:1022E00019F7030000F9030000FB030000FD0300E1
:1022F00000190400001B0400001D04FA00091F045B
:1023000000004D0400005904FA000987040000B5DC
:10231000040000DB04FA0029E3040000F7040000D5
:102320000B05000041050000850500008705000041
:10233000890500008B0500008D0500008F05000059
:102340009105F600010306EE007E38B50400206812
:10235000056920680561680600D4B5E0A06880685A
:10236000002800D1B0E020684069400600D4ABE00E
:102370006068007CC0076AD5280768D5A068007E21
:10238000022828D1206800694006FBD52068006932
:10239000000756D5206840690821884321684861B4
:1023A00020680069082101432068016160680069B4
:1023B0000121884361680861606840680421014325
:1023C00060684160606800680056283AD02020614B
:1023D000680968884735E0206800694006FBD50039
:1023E000BF00BF024A11001820ABBEFBE726000267
:1023F00000250600005F060000090700002B07000B
:10240000008B0600006707000081070000313233AF
:102410004134353642373839432A302344002001CD
:1024200040FD0018201400002000BF00BF00BF00C6
:10243000BFFFF7B6FF00480047D50A0000FC4D0972
:0A244000C80001FF0000E7010000E2
:04000005000022894C
:00000001FF
