:1000000040100020E10A0000E1030000EB030000C3
:1000100000000000000000000000000000000000E0
:10002000000000000000000000000000F5030000D8
:100030000000000000000000F7030000F9030000CA
:10004000FB030000FD030000190400001B04000076
:100050001D040000000000001F0400004D0400000B
:10006000590400000000000087040000B5040000EF
:10007000DB04000000000000E3040000F7040000BF
:100080000B05000041050000850500008705000004
:10009000890500008B0500008D0500008F0500001C
:1000A00091050000000000000000000003060000B1
:1000B0000000000000000000000000000000000040
:1000C00038B504002068056920680561680600D419
:1000D000B5E0A0688068002800D1B0E020684069E1
:1000E000400600D4ABE06068007CC0076AD52807F2
:1000F00068D5A068007E022828D1206800694006E3
:10010000FBD520680069000756D5206840690821A2
:1001100088432168486120680069082101432068FC
:100120000161606800690121884361680861606855
:1001300040680421014360684160606800680028ED
:100140003AD0202061680968884735E02068006956
:100150004006FBD52068006900072DD5206800699E
:100160000821014320680161206800694006FBD531
:100170002068006900071FD520684069082188436E
:1001800021684861206800690821014320680161F5
:10019000606800690121884361680861606840689F
:1001A000042101436068416060680068002803D052
:1001B0002020616809688847206805692068056112
:1001C00008208543A0680069A168096888420CD2AC
:1001D000A0688068411CA268916000782168C860AE
:1001E000A0680069401CA1680861A0680069A16856
:1001F0000968884213D120684069402188432168FA
:1002000048616068406801218843616848606068AF
:100210000068002803D00120616809688847280722
:100220000DD56068406804210143606841606068E2
:100230000068002803D00820616809688847A8067C
:1002400000D4C5E0A068C068002800D1C0E02068E4
:100250004069800600D4BBE06068006980076AD509
:10026000680768D5A068407E022828D12068006908
:100270008006FBD520680069400756D52068406994
:1002800004218843216848612068006904210143F2
:100290002068016160680069022188436168086123
:1002A00060684068082101436068416060680068D8
:1002B00000283AD0402061680968884735E0206806
:1002C00000698006FBD52068006940072DD52068AD
:1002D00000690421014320680161206800698006EB
:1002E000FBD52068006940071FD5206840690421BC
:1002F000884321684861206800690421014320681F
:100300000161606800690221884361680861606872
:100310004068082101436068416060680068002807
:1003200003D0402061680968884720680569206813
:10033000056180208543A0684069A16849688842BA
:100340000CD2A068C068411CA268D1602168C9684D
:100350000170A0684069401CA1684861A0684069BC
:10036000A1684968884213D12068406920218843E8
:10037000216848616068406801218843616848607D
:1003800060680068002803D0022061680968884717
:1003900028060DD56068406802210143606841600D
:1003A00060680068002803D00420616809688847F5
:1003B00068070DD5606840680821014360684160A6
:1003C00060680068002803D01020616809688847C9
:1003D00031BD80B50148FFF773FE01BDC80A0000BA
:1003E00080B50F2000F0ECF8FEE780B5102000F09B
:1003F000E7F8FEE7704770477047704780B5042004
:1004000000F0E2F8002802D0042000F0E7F8002015
:10041000C04300F0E3F801BD70477047704780B5F6
:1004200002214D4800F0E0F80021C9434A4800F09D
:10043000DBF80221484800F0D7F80221464800F0D6
:10044000D3F80221444800F0CFF801BD80B5022165
:10045000424800F0C9F801BD80B50221404800F0D3
:10046000C3F80021C9433E4800F0BEF802213C48D1
:1004700000F0BAF802213A4800F0B6F802213848F4
:1004800000F0B2F801BD80B50221364800F0ACF8AA
:100490000021C943334800F0A7F80221314800F099
:1004A000A3F802212F4800F09FF802212D4800F008
:1004B0009BF801BD80B50021C9432B4800F094F89A
:1004C0000221294800F090F80221274800F08CF81A
:1004D0000221254800F088F801BD80B5FFF779FFBB
:1004E00001BD80B5214800F081F8002802D01F48E6
:1004F00000F084F801BD80B51D4800F077F80028B1
:1005000002D01B4800F07AF801BD80B51948006898
:10051000401C18490860184800F068F800280ED000
:10052000154800F06BF815480068401C1349086036
:1005300012480068642802D300201049086001BDF9
:1005400080B50F4800F052F8002802D00C4800F0A7
:1005500055F801BD000000000018014020180140BE
:100560004018014080180140A018014000280140B7
:1005700020280140300000204028014034000020A5
:100580006028014070477047704770477047704758
:1005900080B5802000F036F8002802D0802000F0DE
:1005A0003BF801BD00B5BFF34F8F03480349086016
:1005B000BFF34F8F00BFFDE70400FA050CED00E02C
:1005C00080B5FFF7EFFF01BD00B506490968084097
:1005D000002801D0012000E0002000BD0149086092
:1005E0007047000050480140C160704700B5C068C6
:1005F000C00701D5012000E0002000BD0121C1603D
:100600007047FEE700B5064909680840002801D098
:10061000012000E0002000BD014908607047000093
:100620006042014080B551480078002801D0012087
:1006300014E0022201214E4800F003F901214C4848
:1006400000F0ACF80C2202214A4800F0FAF8012030
:1006500046490870FF2048490870012002BD80B556
:100660004248007800280FD004220121404800F0C1
:10067000E8F8042202213F4800F0E3F800203B495B
:100680000870FF203C49087001BD80B5142000F0BF
:100690001FF901BD38B5002407E00120A04001008A
:1006A00089B2334800F07AF8641C2000C0B20428F4
:1006B00028DA0120A040010089B22D4800F089F815
:1006C000FFF7E3FF002500E06D1C2800C0B20428FE
:1006D000E3DA01212800001D814089B2254800F09D
:1006E00093F80028F0D10120A040010089B22048F1
:1006F00000F054F82148E4B204214C430019EDB253
:10070000405D00E0FF2032BD80B518480078002829
:1007100001D1002008E0FFF7BDFFC0B2FF2801D0E3
:10072000012000E00020C0B202BD10B50F480078E3
:10073000002801D1FF2015E0FFF7ACFF04002000E6
:10074000C0B2FF280DD0FFF7A0FFFFF7A3FF2100E5
:10075000C9B2C0B2814204D1074804702000C0B2BF
:1007600000E0FF2010BD04480078704739000020E9
:10077000200000401040014038000020B80A00006E
:1007800080B502E00A2000F0A3F8FFF7CEFF0100D9
:10079000C9B2FF29F6D0C0B202BD000080B53B4A05
:1007A000904203D189B200F005F911E0394A904234
:1007B0000BD0394A904208D0334A904205D0344A8F
:1007C000904202D0354A904202D189B200F0EDF851
:1007D00001BD80B52D4A904203D189B200F0F4F8F2
:1007E00011E02C4A90420BD02B4A904208D0264A66
:1007F000904205D0264A904202D0284A904202D127
:1008000089B200F0DCF801BD80B5204A904203D1E6
:1008100089B200F0C0F813E01E4A90420BD01E4A85
:10082000904208D0184A904205D0194A904202D00E
:100830001A4A904203D189B200F0A3F800E00020E8
:1008400002BDE0B5114B984207D192B2019289B234
:100850000091694600F072F815E00E4B98420BD0FB
:100860000D4B984208D0084B984205D0084B98424F
:1008700002D00A4B984206D192B2019289B20091FD
:10088000694600F031F807BD6000004010400140AB
:10089000800000402000004040000040A0000040D8
:1008A00001B50098411E0091002810D000BF00BF84
:1008B00000BF00BF00BF00BF00BF00BF00BF00BF40
:1008C00000BF00BF00BF00BF00BF00BFE9E701BD20
:1008D00001B50098411E0091002804D0FA20800044
:1008E000FFF7DEFFF5E701BD10B53A4A904203D1AC
:1008F0000A6804239A430A600A79920709D5C268F4
:100900000B689A430B79DB0702D513000A681A4378
:10091000C26002680B689A4343680C68A3430C7971
:10092000240702D51C000B6823430C79640702D509
:1009300014000A6822430260436010BD10B50A79B2
:10094000920709D5C2680B689A430B79DB0702D579
:1009500013000A681A43C26002680B689A4343682E
:100960000C68A3430C79240702D51C000B682343B1
:100970000C79640702D514000A68224302604360C0
:1009800010BD00B5006989B20840002801D00120DF
:1009900000E0002000BD00B5406989B20840002891
:1009A00001D0012000E0002000BD826889B20A4326
:1009B00082607047826889B20A43826070478268A9
:1009C00089B28A4382607047826889B28A438260B2
:1009D00070470000A000004030B50168411844682D
:1009E00062088A188368E4070DD54C461B190AE093
:1009F0000C7864B2491C0D78491C1D705B1C002CDE
:100A000005D5641CF9D19142F2D10C3030BD641E81
:100A1000F1D5F8E710B5074979441831064C7C4404
:100A2000163404E0081D0A68891888470100A142AD
:100A3000F8D110BD08000000140000009DFFFFFF6A
:100A4000AC0000000A0000000000002000F00DF8DB
:100A5000002801D0FFF7DEFF00BF00BF002000BF6D
:100A600000BF00F004F800F004F8012070470020F7
:100A7000704780B500F002F801BD00000746384617
:100A800000F002F8FBE7000080B500BF00BF024A9B
:100A900011001820ABBEFBE726000200250600006F
:100AA0005F060000090700002B0700008B0600000E
:100AB0006707000081070000313233413435364288
:100AC000373839432A3023440020014000000020F9
:100AD0001400002000BF00BF00BF00BFFFF7B6FF3B
:100AE00000480047D50A00004D4D4D4DC80001FF9C
:010AF0000005
:0400000500000AD518
:00000001FF
